{
  "_format": "hh-sol-artifact-1",
  "contractName": "DrugBatch",
  "sourceName": "contracts/DrugBatch.sol",
  "abi": [
    {
      "inputs": [],
      "stateMutability": "nonpayable",
      "type": "constructor"
    },
    {
      "anonymous": false,
      "inputs": [
        {
          "indexed": false,
          "internalType": "uint256",
          "name": "id",
          "type": "uint256"
        },
        {
          "indexed": false,
          "internalType": "string",
          "name": "manufacturer",
          "type": "string"
        },
        {
          "indexed": false,
          "internalType": "uint256",
          "name": "manufactureDate",
          "type": "uint256"
        },
        {
          "indexed": false,
          "internalType": "uint256",
          "name": "expiryDate",
          "type": "uint256"
        }
      ],
      "name": "BatchCreated",
      "type": "event"
    },
    {
      "anonymous": false,
      "inputs": [
        {
          "indexed": false,
          "internalType": "uint256",
          "name": "id",
          "type": "uint256"
        },
        {
          "indexed": false,
          "internalType": "string",
          "name": "status",
          "type": "string"
        }
      ],
      "name": "BatchUpdated",
      "type": "event"
    },
    {
      "anonymous": false,
      "inputs": [
        {
          "indexed": true,
          "internalType": "bytes32",
          "name": "id",
          "type": "bytes32"
        }
      ],
      "name": "ChainlinkCancelled",
      "type": "event"
    },
    {
      "anonymous": false,
      "inputs": [
        {
          "indexed": true,
          "internalType": "bytes32",
          "name": "id",
          "type": "bytes32"
        }
      ],
      "name": "ChainlinkFulfilled",
      "type": "event"
    },
    {
      "anonymous": false,
      "inputs": [
        {
          "indexed": true,
          "internalType": "bytes32",
          "name": "id",
          "type": "bytes32"
        }
      ],
      "name": "ChainlinkRequested",
      "type": "event"
    },
    {
      "anonymous": false,
      "inputs": [
        {
          "indexed": false,
          "internalType": "uint256",
          "name": "id",
          "type": "uint256"
        },
        {
          "indexed": false,
          "internalType": "uint256",
          "name": "temperature",
          "type": "uint256"
        }
      ],
      "name": "TemperatureExceeded",
      "type": "event"
    },
    {
      "inputs": [
        {
          "internalType": "uint256",
          "name": "",
          "type": "uint256"
        }
      ],
      "name": "batches",
      "outputs": [
        {
          "internalType": "uint256",
          "name": "id",
          "type": "uint256"
        },
        {
          "internalType": "string",
          "name": "manufacturer",
          "type": "string"
        },
        {
          "internalType": "uint256",
          "name": "manufactureDate",
          "type": "uint256"
        },
        {
          "internalType": "uint256",
          "name": "expiryDate",
          "type": "uint256"
        },
        {
          "internalType": "string",
          "name": "status",
          "type": "string"
        }
      ],
      "stateMutability": "view",
      "type": "function"
    },
    {
      "inputs": [
        {
          "internalType": "bytes32",
          "name": "",
          "type": "bytes32"
        }
      ],
      "name": "chainlinkRequestIdToBatchId",
      "outputs": [
        {
          "internalType": "uint256",
          "name": "",
          "type": "uint256"
        }
      ],
      "stateMutability": "view",
      "type": "function"
    },
    {
      "inputs": [
        {
          "internalType": "string",
          "name": "_manufacturer",
          "type": "string"
        },
        {
          "internalType": "uint256",
          "name": "_manufactureDate",
          "type": "uint256"
        },
        {
          "internalType": "uint256",
          "name": "_expiryDate",
          "type": "uint256"
        }
      ],
      "name": "createBatch",
      "outputs": [],
      "stateMutability": "nonpayable",
      "type": "function"
    },
    {
      "inputs": [
        {
          "internalType": "bytes32",
          "name": "_requestId",
          "type": "bytes32"
        },
        {
          "internalType": "uint256",
          "name": "_temperature",
          "type": "uint256"
        }
      ],
      "name": "fulfill",
      "outputs": [],
      "stateMutability": "nonpayable",
      "type": "function"
    },
    {
      "inputs": [],
      "name": "nextBatchId",
      "outputs": [
        {
          "internalType": "uint256",
          "name": "",
          "type": "uint256"
        }
      ],
      "stateMutability": "view",
      "type": "function"
    },
    {
      "inputs": [
        {
          "internalType": "uint256",
          "name": "_batchId",
          "type": "uint256"
        }
      ],
      "name": "requestTemperatureData",
      "outputs": [
        {
          "internalType": "bytes32",
          "name": "requestId",
          "type": "bytes32"
        }
      ],
      "stateMutability": "nonpayable",
      "type": "function"
    },
    {
      "inputs": [
        {
          "internalType": "uint256",
          "name": "_batchId",
          "type": "uint256"
        },
        {
          "internalType": "string",
          "name": "_status",
          "type": "string"
        }
      ],
      "name": "updateBatch",
      "outputs": [],
      "stateMutability": "nonpayable",
      "type": "function"
    }
  ],
  "bytecode": "0x60806040526001600455601e6009553480156200001b57600080fd5b506200002c620000bd60201b60201c565b737afe30cb3e53dba6801aa0ea647a0b1099abd5e6600a60006101000a81548173ffffffffffffffffffffffffffffffffffffffff021916908373ffffffffffffffffffffffffffffffffffffffff1602179055507f6435323730643163333131393431643062303862656164323166656137373437600b8190555067016345785d8a0000600c819055506200023a565b6200016373c89bd4e1632d3a43cb03aaad5262cbe4038bc57173ffffffffffffffffffffffffffffffffffffffff166338cc48316040518163ffffffff1660e01b815260040160206040518083038186803b1580156200011c57600080fd5b505afa15801562000131573d6000803e3d6000fd5b505050506040513d601f19601f82011682018060405250810190620001579190620001c0565b6200016560201b60201c565b565b80600260006101000a81548173ffffffffffffffffffffffffffffffffffffffff021916908373ffffffffffffffffffffffffffffffffffffffff16021790555050565b600081519050620001ba8162000220565b92915050565b600060208284031215620001d357600080fd5b6000620001e384828501620001a9565b91505092915050565b6000620001f98262000200565b9050919050565b600073ffffffffffffffffffffffffffffffffffffffff82169050919050565b6200022b81620001ec565b81146200023757600080fd5b50565b611ec2806200024a6000396000f3fe608060405234801561001057600080fd5b506004361061007d5760003560e01c80638207fd851161005b5780638207fd85146100fe5780638462a7f81461011a578063b32c4d8d14610138578063e7f25c6e1461016c5761007d565b806339e25bad146100825780634357855e146100b2578063496781d0146100ce575b600080fd5b61009c6004803603810190610097919061129d565b610188565b6040516100a99190611738565b60405180910390f35b6100cc60048036038101906100c791906112c6565b6101a0565b005b6100e860048036038101906100e39190611369565b610307565b6040516100f591906116bd565b60405180910390f35b61011860048036038101906101139190611392565b6103c1565b005b61012261046d565b60405161012f9190611738565b60405180910390f35b610152600480360381019061014d9190611369565b610473565b6040516101639594939291906117cf565b60405180910390f35b61018660048036038101906101819190611302565b6105b9565b005b60076020528060005260406000206000915090505481565b816005600082815260200190815260200160002060009054906101000a900473ffffffffffffffffffffffffffffffffffffffff1673ffffffffffffffffffffffffffffffffffffffff163373ffffffffffffffffffffffffffffffffffffffff1614610242576040517f08c379a000000000000000000000000000000000000000000000000000000000815260040161023990611718565b60405180910390fd5b6005600082815260200190815260200160002060006101000a81549073ffffffffffffffffffffffffffffffffffffffff0219169055807f7cc135e0cebb02c3480ae5d74d377283180a2601f8f644edf7987b009316c63a60405160405180910390a2600060076000858152602001908152602001600020549050600954831115610301577fc63b563cb63ffad76bbc9e8ceaad18081512169728708708ce00e240e22c8a0181846040516102f8929190611830565b60405180910390a15b50505050565b60008061031e600b5430634357855e60e01b6106e3565b90506103726040518060400160405280600781526020017f626174636849640000000000000000000000000000000000000000000000000081525061036285610714565b836108c49092919063ffffffff16565b6103a1600a60009054906101000a900473ffffffffffffffffffffffffffffffffffffffff1682600c546108f7565b915082600760008481526020019081526020016000208190555050919050565b6008548210610405576040517f08c379a00000000000000000000000000000000000000000000000000000000081526004016103fc906116d8565b60405180910390fd5b8060066000848152602001908152602001600020600401908051906020019061042f9291906110a3565b507fcc1163b9f5b7a48feb09e3106d97fe333e2b9b8d72544e2f9d4470f483e5214e8282604051610461929190611753565b60405180910390a15050565b60085481565b600660205280600052604060002060009150905080600001549080600101805461049c90611c86565b80601f01602080910402602001604051908101604052809291908181526020018280546104c890611c86565b80156105155780601f106104ea57610100808354040283529160200191610515565b820191906000526020600020905b8154815290600101906020018083116104f857829003601f168201915b50505050509080600201549080600301549080600401805461053690611c86565b80601f016020809104026020016040519081016040528092919081815260200182805461056290611c86565b80156105af5780601f10610584576101008083540402835291602001916105af565b820191906000526020600020905b81548152906001019060200180831161059257829003601f168201915b5050505050905085565b6040518060a0016040528060085481526020018481526020018381526020018281526020016040518060400160405280600781526020017f43726561746564000000000000000000000000000000000000000000000000008152508152506006600060085481526020019081526020016000206000820151816000015560208201518160010190805190602001906106529291906110a3565b50604082015181600201556060820151816003015560808201518160040190805190602001906106839291906110a3565b509050507fcfc3a8401549578cdc3a4450882d09189a820561ebadb683b484bc6bd62dd4ef6008548484846040516106be9493929190611783565b60405180910390a1600860008154809291906106d990611cb8565b9190505550505050565b6106eb611129565b6106f3611129565b61070a858585846109c3909392919063ffffffff16565b9150509392505050565b6060600082141561075c576040518060400160405280600181526020017f300000000000000000000000000000000000000000000000000000000000000081525090506108bf565b600082905060005b6000821461078e57808061077790611cb8565b915050600a826107879190611948565b9150610764565b60008167ffffffffffffffff8111156107d0577f4e487b7100000000000000000000000000000000000000000000000000000000600052604160045260246000fd5b6040519080825280601f01601f1916602001820160405280156108025781602001600182028036833780820191505090505b50905060008290505b600086146108b757600a866108209190611d2f565b603061082c91906118f2565b60f81b828261083a90611c5c565b92508281518110610874577f4e487b7100000000000000000000000000000000000000000000000000000000600052603260045260246000fd5b60200101907effffffffffffffffffffffffffffffffffffffffffffffffffffffffffffff1916908160001a905350600a866108b09190611948565b955061080b565b819450505050505b919050565b6108db828460800151610a7390919063ffffffff16565b6108f2818460800151610a7390919063ffffffff16565b505050565b600080600454905060018161090c91906118f2565b6004819055506000634042994660e01b60008087600001513089604001518760018c608001516000015160405160240161094d9897969594939291906115fa565b604051602081830303815290604052907bffffffffffffffffffffffffffffffffffffffffffffffffffffffff19166020820180517bffffffffffffffffffffffffffffffffffffffffffffffffffffffff838183161783525050505090506109b886838684610a98565b925050509392505050565b6109cb611129565b6109db8560800151610100610c3c565b508385600001818152505082856020019073ffffffffffffffffffffffffffffffffffffffff16908173ffffffffffffffffffffffffffffffffffffffff16815250508185604001907bffffffffffffffffffffffffffffffffffffffffffffffffffffffff191690817bffffffffffffffffffffffffffffffffffffffffffffffffffffffff191681525050849050949350505050565b610a808260038351610ca6565b610a938183610e2b90919063ffffffff16565b505050565b60003084604051602001610aad9291906115ce565b604051602081830303815290604052805190602001209050846005600083815260200190815260200160002060006101000a81548173ffffffffffffffffffffffffffffffffffffffff021916908373ffffffffffffffffffffffffffffffffffffffff160217905550807fb5e6e01e79f91267dc17b4e6314d5d4d03593d2ceee0fbb452b750bd70ea5af960405160405180910390a2600260009054906101000a900473ffffffffffffffffffffffffffffffffffffffff1673ffffffffffffffffffffffffffffffffffffffff16634000aea08685856040518463ffffffff1660e01b8152600401610ba39392919061167f565b602060405180830381600087803b158015610bbd57600080fd5b505af1158015610bd1573d6000803e3d6000fd5b505050506040513d601f19601f82011682018060405250810190610bf59190611274565b610c34576040517f08c379a0000000000000000000000000000000000000000000000000000000008152600401610c2b906116f8565b60405180910390fd5b949350505050565b610c44611196565b6000602083610c539190611d2f565b14610c7f57602082610c659190611d2f565b6020610c719190611b44565b82610c7c91906118f2565b91505b81836020018181525050604051808452600081528281016020016040525082905092915050565b60178167ffffffffffffffff1611610cdd57610cd78160058460ff16901b60ff161784610e4d90919063ffffffff16565b50610e26565b60ff8167ffffffffffffffff1611610d3357610d0c601860058460ff16901b1784610e4d90919063ffffffff16565b50610d2d8167ffffffffffffffff16600185610e6d9092919063ffffffff16565b50610e25565b61ffff8167ffffffffffffffff1611610d8a57610d63601960058460ff16901b1784610e4d90919063ffffffff16565b50610d848167ffffffffffffffff16600285610e6d9092919063ffffffff16565b50610e24565b63ffffffff8167ffffffffffffffff1611610de357610dbc601a60058460ff16901b1784610e4d90919063ffffffff16565b50610ddd8167ffffffffffffffff16600485610e6d9092919063ffffffff16565b50610e23565b610e00601b60058460ff16901b1784610e4d90919063ffffffff16565b50610e218167ffffffffffffffff16600885610e6d9092919063ffffffff16565b505b5b5b5b505050565b610e33611196565b610e4583846000015151848551610e8f565b905092915050565b610e55611196565b610e658384600001515184610f7e565b905092915050565b610e75611196565b610e86848560000151518585610fd5565b90509392505050565b610e97611196565b8251821115610ea557600080fd5b84602001518285610eb691906118f2565b1115610eeb57610eea856002610edb88602001518887610ed691906118f2565b611063565b610ee59190611aea565b61107f565b5b600080865180518760208301019350808887011115610f0a5787860182525b60208701925050505b60208410610f515780518252602082610f2c91906118f2565b9150602081610f3b91906118f2565b9050602084610f4a9190611b44565b9350610f13565b60006001856020036101000a03905080198251168184511681811785525050508692505050949350505050565b610f86611196565b83602001518310610fac57610fab8460028660200151610fa69190611aea565b61107f565b5b8351805160208583010184815381861415610fc8576001820183525b5050508390509392505050565b610fdd611196565b84602001518483610fee91906118f2565b111561101657611015856002868561100691906118f2565b6110109190611aea565b61107f565b5b600060018361010061102891906119cc565b6110329190611b44565b905085518386820101858319825116178152815185880111156110555784870182525b505085915050949350505050565b60008183111561107557829050611079565b8190505b92915050565b6000826000015190506110928383610c3c565b5061109d8382610e2b565b50505050565b8280546110af90611c86565b90600052602060002090601f0160209004810192826110d15760008555611118565b82601f106110ea57805160ff1916838001178555611118565b82800160010185558215611118579182015b828111156111175782518255916020019190600101906110fc565b5b50905061112591906111b0565b5090565b6040518060a0016040528060008019168152602001600073ffffffffffffffffffffffffffffffffffffffff16815260200160007bffffffffffffffffffffffffffffffffffffffffffffffffffffffff1916815260200160008152602001611190611196565b81525090565b604051806040016040528060608152602001600081525090565b5b808211156111c95760008160009055506001016111b1565b5090565b60006111e06111db8461188a565b611859565b9050828152602081018484840111156111f857600080fd5b611203848285611c1a565b509392505050565b60008151905061121a81611e47565b92915050565b60008135905061122f81611e5e565b92915050565b600082601f83011261124657600080fd5b81356112568482602086016111cd565b91505092915050565b60008135905061126e81611e75565b92915050565b60006020828403121561128657600080fd5b60006112948482850161120b565b91505092915050565b6000602082840312156112af57600080fd5b60006112bd84828501611220565b91505092915050565b600080604083850312156112d957600080fd5b60006112e785828601611220565b92505060206112f88582860161125f565b9150509250929050565b60008060006060848603121561131757600080fd5b600084013567ffffffffffffffff81111561133157600080fd5b61133d86828701611235565b935050602061134e8682870161125f565b925050604061135f8682870161125f565b9150509250925092565b60006020828403121561137b57600080fd5b60006113898482850161125f565b91505092915050565b600080604083850312156113a557600080fd5b60006113b38582860161125f565b925050602083013567ffffffffffffffff8111156113d057600080fd5b6113dc85828601611235565b9150509250929050565b6113ef81611b78565b82525050565b6113fe81611b96565b82525050565b61140d81611ba0565b82525050565b600061141e826118ba565b61142881856118d0565b9350611438818560208601611c29565b61144181611e1c565b840191505092915050565b61145d61145882611bf6565b611d01565b82525050565b600061146e826118c5565b61147881856118e1565b9350611488818560208601611c29565b61149181611e1c565b840191505092915050565b60006114a96014836118e1565b91507f426174636820646f6573206e6f742065786973740000000000000000000000006000830152602082019050919050565b60006114e96023836118e1565b91507f756e61626c6520746f207472616e73666572416e6443616c6c20746f206f726160008301527f636c6500000000000000000000000000000000000000000000000000000000006020830152604082019050919050565b600061154f6028836118e1565b91507f536f75726365206d75737420626520746865206f7261636c65206f662074686560008301527f20726571756573740000000000000000000000000000000000000000000000006020830152604082019050919050565b6115b181611bec565b82525050565b6115c86115c382611bec565b611d25565b82525050565b60006115da828561144c565b6014820191506115ea82846115b7565b6020820191508190509392505050565b600061010082019050611610600083018b6113e6565b61161d602083018a6115a8565b61162a60408301896113f5565b61163760608301886113e6565b6116446080830187611404565b61165160a08301866115a8565b61165e60c08301856115a8565b81810360e08301526116708184611413565b90509998505050505050505050565b600060608201905061169460008301866113e6565b6116a160208301856115a8565b81810360408301526116b38184611413565b9050949350505050565b60006020820190506116d260008301846113f5565b92915050565b600060208201905081810360008301526116f18161149c565b9050919050565b60006020820190508181036000830152611711816114dc565b9050919050565b6000602082019050818103600083015261173181611542565b9050919050565b600060208201905061174d60008301846115a8565b92915050565b600060408201905061176860008301856115a8565b818103602083015261177a8184611463565b90509392505050565b600060808201905061179860008301876115a8565b81810360208301526117aa8186611463565b90506117b960408301856115a8565b6117c660608301846115a8565b95945050505050565b600060a0820190506117e460008301886115a8565b81810360208301526117f68187611463565b905061180560408301866115a8565b61181260608301856115a8565b81810360808301526118248184611463565b90509695505050505050565b600060408201905061184560008301856115a8565b61185260208301846115a8565b9392505050565b6000604051905081810181811067ffffffffffffffff821117156118805761187f611ded565b5b8060405250919050565b600067ffffffffffffffff8211156118a5576118a4611ded565b5b601f19601f8301169050602081019050919050565b600081519050919050565b600081519050919050565b600082825260208201905092915050565b600082825260208201905092915050565b60006118fd82611bec565b915061190883611bec565b9250827fffffffffffffffffffffffffffffffffffffffffffffffffffffffffffffffff0382111561193d5761193c611d60565b5b828201905092915050565b600061195382611bec565b915061195e83611bec565b92508261196e5761196d611d8f565b5b828204905092915050565b6000808291508390505b60018511156119c35780860481111561199f5761199e611d60565b5b60018516156119ae5780820291505b80810290506119bc85611e3a565b9450611983565b94509492505050565b60006119d782611bec565b91506119e283611bec565b9250611a0f7fffffffffffffffffffffffffffffffffffffffffffffffffffffffffffffffff8484611a17565b905092915050565b600082611a275760019050611ae3565b81611a355760009050611ae3565b8160018114611a4b5760028114611a5557611a84565b6001915050611ae3565b60ff841115611a6757611a66611d60565b5b8360020a915084821115611a7e57611a7d611d60565b5b50611ae3565b5060208310610133831016604e8410600b8410161715611ab95782820a905083811115611ab457611ab3611d60565b5b611ae3565b611ac68484846001611979565b92509050818404811115611add57611adc611d60565b5b81810290505b9392505050565b6000611af582611bec565b9150611b0083611bec565b9250817fffffffffffffffffffffffffffffffffffffffffffffffffffffffffffffffff0483118215151615611b3957611b38611d60565b5b828202905092915050565b6000611b4f82611bec565b9150611b5a83611bec565b925082821015611b6d57611b6c611d60565b5b828203905092915050565b6000611b8382611bcc565b9050919050565b60008115159050919050565b6000819050919050565b60007fffffffff0000000000000000000000000000000000000000000000000000000082169050919050565b600073ffffffffffffffffffffffffffffffffffffffff82169050919050565b6000819050919050565b6000611c0182611c08565b9050919050565b6000611c1382611bcc565b9050919050565b82818337600083830152505050565b60005b83811015611c47578082015181840152602081019050611c2c565b83811115611c56576000848401525b50505050565b6000611c6782611bec565b91506000821415611c7b57611c7a611d60565b5b600182039050919050565b60006002820490506001821680611c9e57607f821691505b60208210811415611cb257611cb1611dbe565b5b50919050565b6000611cc382611bec565b91507fffffffffffffffffffffffffffffffffffffffffffffffffffffffffffffffff821415611cf657611cf5611d60565b5b600182019050919050565b6000611d0c82611d13565b9050919050565b6000611d1e82611e2d565b9050919050565b6000819050919050565b6000611d3a82611bec565b9150611d4583611bec565b925082611d5557611d54611d8f565b5b828206905092915050565b7f4e487b7100000000000000000000000000000000000000000000000000000000600052601160045260246000fd5b7f4e487b7100000000000000000000000000000000000000000000000000000000600052601260045260246000fd5b7f4e487b7100000000000000000000000000000000000000000000000000000000600052602260045260246000fd5b7f4e487b7100000000000000000000000000000000000000000000000000000000600052604160045260246000fd5b6000601f19601f8301169050919050565b60008160601b9050919050565b60008160011c9050919050565b611e5081611b8a565b8114611e5b57600080fd5b50565b611e6781611b96565b8114611e7257600080fd5b50565b611e7e81611bec565b8114611e8957600080fd5b5056fea2646970667358221220a41cb9c99bb7c57d3dc65192dbb6c5906465c123ff62b97d1ed82028210cd77d64736f6c63430008000033",
  "linkReferences": {},
  "deployedLinkReferences": {}
}