{
  "_format": "hh-sol-artifact-1",
  "contractName": "DrugBatch",
  "sourceName": "contracts/DrugBatch.sol",
  "abi": [
    {
      "inputs": [],
      "stateMutability": "nonpayable",
      "type": "constructor"
    },
    {
      "anonymous": false,
      "inputs": [
        {
          "indexed": false,
          "internalType": "uint256",
          "name": "id",
          "type": "uint256"
        },
        {
          "indexed": false,
          "internalType": "string",
          "name": "manufacturer",
          "type": "string"
        },
        {
          "indexed": false,
          "internalType": "uint256",
          "name": "manufactureDate",
          "type": "uint256"
        },
        {
          "indexed": false,
          "internalType": "uint256",
          "name": "expiryDate",
          "type": "uint256"
        }
      ],
      "name": "BatchCreated",
      "type": "event"
    },
    {
      "anonymous": false,
      "inputs": [
        {
          "indexed": false,
          "internalType": "uint256",
          "name": "id",
          "type": "uint256"
        },
        {
          "indexed": false,
          "internalType": "string",
          "name": "status",
          "type": "string"
        }
      ],
      "name": "BatchUpdated",
      "type": "event"
    },
    {
      "anonymous": false,
      "inputs": [
        {
          "indexed": true,
          "internalType": "bytes32",
          "name": "id",
          "type": "bytes32"
        }
      ],
      "name": "ChainlinkCancelled",
      "type": "event"
    },
    {
      "anonymous": false,
      "inputs": [
        {
          "indexed": true,
          "internalType": "bytes32",
          "name": "id",
          "type": "bytes32"
        }
      ],
      "name": "ChainlinkFulfilled",
      "type": "event"
    },
    {
      "anonymous": false,
      "inputs": [
        {
          "indexed": true,
          "internalType": "bytes32",
          "name": "id",
          "type": "bytes32"
        }
      ],
      "name": "ChainlinkRequested",
      "type": "event"
    },
    {
      "anonymous": false,
      "inputs": [
        {
          "indexed": false,
          "internalType": "uint256",
          "name": "id",
          "type": "uint256"
        },
        {
          "indexed": false,
          "internalType": "uint256",
          "name": "temperature",
          "type": "uint256"
        }
      ],
      "name": "TemperatureExceeded",
      "type": "event"
    },
    {
      "inputs": [
        {
          "internalType": "uint256",
          "name": "",
          "type": "uint256"
        }
      ],
      "name": "batches",
      "outputs": [
        {
          "internalType": "uint256",
          "name": "id",
          "type": "uint256"
        },
        {
          "internalType": "string",
          "name": "manufacturer",
          "type": "string"
        },
        {
          "internalType": "uint256",
          "name": "manufactureDate",
          "type": "uint256"
        },
        {
          "internalType": "uint256",
          "name": "expiryDate",
          "type": "uint256"
        },
        {
          "internalType": "string",
          "name": "status",
          "type": "string"
        }
      ],
      "stateMutability": "view",
      "type": "function"
    },
    {
      "inputs": [
        {
          "internalType": "bytes32",
          "name": "",
          "type": "bytes32"
        }
      ],
      "name": "chainlinkRequestIdToBatchId",
      "outputs": [
        {
          "internalType": "uint256",
          "name": "",
          "type": "uint256"
        }
      ],
      "stateMutability": "view",
      "type": "function"
    },
    {
      "inputs": [
        {
          "internalType": "string",
          "name": "_manufacturer",
          "type": "string"
        },
        {
          "internalType": "uint256",
          "name": "_manufactureDate",
          "type": "uint256"
        },
        {
          "internalType": "uint256",
          "name": "_expiryDate",
          "type": "uint256"
        }
      ],
      "name": "createBatch",
      "outputs": [],
      "stateMutability": "nonpayable",
      "type": "function"
    },
    {
      "inputs": [
        {
          "internalType": "bytes32",
          "name": "_requestId",
          "type": "bytes32"
        },
        {
          "internalType": "uint256",
          "name": "_temperature",
          "type": "uint256"
        }
      ],
      "name": "fulfill",
      "outputs": [],
      "stateMutability": "nonpayable",
      "type": "function"
    },
    {
      "inputs": [],
      "name": "nextBatchId",
      "outputs": [
        {
          "internalType": "uint256",
          "name": "",
          "type": "uint256"
        }
      ],
      "stateMutability": "view",
      "type": "function"
    },
    {
      "inputs": [
        {
          "internalType": "uint256",
          "name": "_batchId",
          "type": "uint256"
        }
      ],
      "name": "requestTemperatureData",
      "outputs": [
        {
          "internalType": "bytes32",
          "name": "requestId",
          "type": "bytes32"
        }
      ],
      "stateMutability": "nonpayable",
      "type": "function"
    },
    {
      "inputs": [
        {
          "internalType": "uint256",
          "name": "_batchId",
          "type": "uint256"
        },
        {
          "internalType": "string",
          "name": "_status",
          "type": "string"
        }
      ],
      "name": "updateBatch",
      "outputs": [],
      "stateMutability": "nonpayable",
      "type": "function"
    }
  ],
  "bytecode": "0x60806040526001600455601e60095534801561001a57600080fd5b50737afe30cb3e53dba6801aa0ea647a0b1099abd5e6600a60006101000a81548173ffffffffffffffffffffffffffffffffffffffff021916908373ffffffffffffffffffffffffffffffffffffffff16021790555061009373779877a7b0d9e8603169ddbd7836e478b46247896100ff60201b60201c565b6100c4600a60009054906101000a900473ffffffffffffffffffffffffffffffffffffffff1661014360201b60201c565b7f6435323730643163333131393431643062303862656164323166656137373437600b8190555067016345785d8a0000600c81905550610187565b80600260006101000a81548173ffffffffffffffffffffffffffffffffffffffff021916908373ffffffffffffffffffffffffffffffffffffffff16021790555050565b80600360006101000a81548173ffffffffffffffffffffffffffffffffffffffff021916908373ffffffffffffffffffffffffffffffffffffffff16021790555050565b611f3d806101966000396000f3fe608060405234801561001057600080fd5b506004361061007d5760003560e01c80638207fd851161005b5780638207fd85146100fe5780638462a7f81461011a578063b32c4d8d14610138578063e7f25c6e1461016c5761007d565b806339e25bad146100825780634357855e146100b2578063496781d0146100ce575b600080fd5b61009c6004803603810190610097919061125d565b610188565b6040516100a99190611671565b60405180910390f35b6100cc60048036038101906100c7919061128a565b6101a0565b005b6100e860048036038101906100e39190611339565b610307565b6040516100f591906115f6565b60405180910390f35b61011860048036038101906101139190611366565b6103c1565b005b61012261046d565b60405161012f9190611671565b60405180910390f35b610152600480360381019061014d9190611339565b610473565b604051610163959493929190611708565b60405180910390f35b610186600480360381019061018191906112ca565b6105b9565b005b60076020528060005260406000206000915090505481565b816005600082815260200190815260200160002060009054906101000a900473ffffffffffffffffffffffffffffffffffffffff1673ffffffffffffffffffffffffffffffffffffffff163373ffffffffffffffffffffffffffffffffffffffff1614610242576040517f08c379a000000000000000000000000000000000000000000000000000000000815260040161023990611651565b60405180910390fd5b6005600082815260200190815260200160002060006101000a81549073ffffffffffffffffffffffffffffffffffffffff0219169055807f7cc135e0cebb02c3480ae5d74d377283180a2601f8f644edf7987b009316c63a60405160405180910390a2600060076000858152602001908152602001600020549050600954831115610301577fc63b563cb63ffad76bbc9e8ceaad18081512169728708708ce00e240e22c8a0181846040516102f8929190611769565b60405180910390a15b50505050565b60008061031e600b5430634357855e60e01b6106e3565b90506103726040518060400160405280600781526020017f626174636849640000000000000000000000000000000000000000000000000081525061036285610714565b836108789092919063ffffffff16565b6103a1600a60009054906101000a900473ffffffffffffffffffffffffffffffffffffffff1682600c546108ab565b915082600760008481526020019081526020016000208190555050919050565b6008548210610405576040517f08c379a00000000000000000000000000000000000000000000000000000000081526004016103fc90611611565b60405180910390fd5b8060066000848152602001908152602001600020600401908051906020019061042f929190611057565b507fcc1163b9f5b7a48feb09e3106d97fe333e2b9b8d72544e2f9d4470f483e5214e828260405161046192919061168c565b60405180910390a15050565b60085481565b600660205280600052604060002060009150905080600001549080600101805461049c90611bc6565b80601f01602080910402602001604051908101604052809291908181526020018280546104c890611bc6565b80156105155780601f106104ea57610100808354040283529160200191610515565b820191906000526020600020905b8154815290600101906020018083116104f857829003601f168201915b50505050509080600201549080600301549080600401805461053690611bc6565b80601f016020809104026020016040519081016040528092919081815260200182805461056290611bc6565b80156105af5780601f10610584576101008083540402835291602001916105af565b820191906000526020600020905b81548152906001019060200180831161059257829003601f168201915b5050505050905085565b6040518060a0016040528060085481526020018481526020018381526020018281526020016040518060400160405280600781526020017f4372656174656400000000000000000000000000000000000000000000000000815250815250600660006008548152602001908152602001600020600082015181600001556020820151816001019080519060200190610652929190611057565b5060408201518160020155606082015181600301556080820151816004019080519060200190610683929190611057565b509050507fcfc3a8401549578cdc3a4450882d09189a820561ebadb683b484bc6bd62dd4ef6008548484846040516106be94939291906116bc565b60405180910390a1600860008154809291906106d990611c29565b9190505550505050565b6106eb6110dd565b6106f36110dd565b61070a85858584610977909392919063ffffffff16565b9150509392505050565b6060600082141561075c576040518060400160405280600181526020017f30000000000000000000000000000000000000000000000000000000000000008152509050610873565b600082905060005b6000821461078e57808061077790611c29565b915050600a826107879190611876565b9150610764565b60008167ffffffffffffffff8111156107aa576107a9611d8d565b5b6040519080825280601f01601f1916602001820160405280156107dc5781602001600182028036833780820191505090505b50905060008290505b6000861461086b57600a866107fa9190611ca0565b60306108069190611820565b60f81b828261081490611b9c565b9250828151811061082857610827611d5e565b5b60200101907effffffffffffffffffffffffffffffffffffffffffffffffffffffffffffff1916908160001a905350600a866108649190611876565b95506107e5565b819450505050505b919050565b61088f828460800151610a2790919063ffffffff16565b6108a6818460800151610a2790919063ffffffff16565b505050565b60008060045490506001816108c09190611820565b6004819055506000634042994660e01b60008087600001513089604001518760018c6080015160000151604051602401610901989796959493929190611533565b604051602081830303815290604052907bffffffffffffffffffffffffffffffffffffffffffffffffffffffff19166020820180517bffffffffffffffffffffffffffffffffffffffffffffffffffffffff8381831617835250505050905061096c86838684610a4c565b925050509392505050565b61097f6110dd565b61098f8560800151610100610bf0565b508385600001818152505082856020019073ffffffffffffffffffffffffffffffffffffffff16908173ffffffffffffffffffffffffffffffffffffffff16815250508185604001907bffffffffffffffffffffffffffffffffffffffffffffffffffffffff191690817bffffffffffffffffffffffffffffffffffffffffffffffffffffffff191681525050849050949350505050565b610a348260038351610c5a565b610a478183610ddf90919063ffffffff16565b505050565b60003084604051602001610a61929190611507565b604051602081830303815290604052805190602001209050846005600083815260200190815260200160002060006101000a81548173ffffffffffffffffffffffffffffffffffffffff021916908373ffffffffffffffffffffffffffffffffffffffff160217905550807fb5e6e01e79f91267dc17b4e6314d5d4d03593d2ceee0fbb452b750bd70ea5af960405160405180910390a2600260009054906101000a900473ffffffffffffffffffffffffffffffffffffffff1673ffffffffffffffffffffffffffffffffffffffff16634000aea08685856040518463ffffffff1660e01b8152600401610b57939291906115b8565b602060405180830381600087803b158015610b7157600080fd5b505af1158015610b85573d6000803e3d6000fd5b505050506040513d601f19601f82011682018060405250810190610ba99190611230565b610be8576040517f08c379a0000000000000000000000000000000000000000000000000000000008152600401610bdf90611631565b60405180910390fd5b949350505050565b610bf861114a565b6000602083610c079190611ca0565b14610c3357602082610c199190611ca0565b6020610c259190611a72565b82610c309190611820565b91505b81836020018181525050604051808452600081528281016020016040525082905092915050565b60178167ffffffffffffffff1611610c9157610c8b8160058460ff16901b60ff161784610e0190919063ffffffff16565b50610dda565b60ff8167ffffffffffffffff1611610ce757610cc0601860058460ff16901b1784610e0190919063ffffffff16565b50610ce18167ffffffffffffffff16600185610e219092919063ffffffff16565b50610dd9565b61ffff8167ffffffffffffffff1611610d3e57610d17601960058460ff16901b1784610e0190919063ffffffff16565b50610d388167ffffffffffffffff16600285610e219092919063ffffffff16565b50610dd8565b63ffffffff8167ffffffffffffffff1611610d9757610d70601a60058460ff16901b1784610e0190919063ffffffff16565b50610d918167ffffffffffffffff16600485610e219092919063ffffffff16565b50610dd7565b610db4601b60058460ff16901b1784610e0190919063ffffffff16565b50610dd58167ffffffffffffffff16600885610e219092919063ffffffff16565b505b5b5b5b505050565b610de761114a565b610df983846000015151848551610e43565b905092915050565b610e0961114a565b610e198384600001515184610f32565b905092915050565b610e2961114a565b610e3a848560000151518585610f89565b90509392505050565b610e4b61114a565b8251821115610e5957600080fd5b84602001518285610e6a9190611820565b1115610e9f57610e9e856002610e8f88602001518887610e8a9190611820565b611017565b610e999190611a18565b611033565b5b600080865180518760208301019350808887011115610ebe5787860182525b60208701925050505b60208410610f055780518252602082610ee09190611820565b9150602081610eef9190611820565b9050602084610efe9190611a72565b9350610ec7565b60006001856020036101000a03905080198251168184511681811785525050508692505050949350505050565b610f3a61114a565b83602001518310610f6057610f5f8460028660200151610f5a9190611a18565b611033565b5b8351805160208583010184815381861415610f7c576001820183525b5050508390509392505050565b610f9161114a565b84602001518483610fa29190611820565b1115610fca57610fc98560028685610fba9190611820565b610fc49190611a18565b611033565b5b6000600183610100610fdc91906118fa565b610fe69190611a72565b905085518386820101858319825116178152815185880111156110095784870182525b505085915050949350505050565b6000818311156110295782905061102d565b8190505b92915050565b6000826000015190506110468383610bf0565b506110518382610ddf565b50505050565b82805461106390611bc6565b90600052602060002090601f01602090048101928261108557600085556110cc565b82601f1061109e57805160ff19168380011785556110cc565b828001600101855582156110cc579182015b828111156110cb5782518255916020019190600101906110b0565b5b5090506110d99190611164565b5090565b6040518060a0016040528060008019168152602001600073ffffffffffffffffffffffffffffffffffffffff16815260200160007bffffffffffffffffffffffffffffffffffffffffffffffffffffffff191681526020016000815260200161114461114a565b81525090565b604051806040016040528060608152602001600081525090565b5b8082111561117d576000816000905550600101611165565b5090565b600061119461118f846117b7565b611792565b9050828152602081018484840111156111b0576111af611dc1565b5b6111bb848285611b5a565b509392505050565b6000815190506111d281611ec2565b92915050565b6000813590506111e781611ed9565b92915050565b600082601f83011261120257611201611dbc565b5b8135611212848260208601611181565b91505092915050565b60008135905061122a81611ef0565b92915050565b60006020828403121561124657611245611dcb565b5b6000611254848285016111c3565b91505092915050565b60006020828403121561127357611272611dcb565b5b6000611281848285016111d8565b91505092915050565b600080604083850312156112a1576112a0611dcb565b5b60006112af858286016111d8565b92505060206112c08582860161121b565b9150509250929050565b6000806000606084860312156112e3576112e2611dcb565b5b600084013567ffffffffffffffff81111561130157611300611dc6565b5b61130d868287016111ed565b935050602061131e8682870161121b565b925050604061132f8682870161121b565b9150509250925092565b60006020828403121561134f5761134e611dcb565b5b600061135d8482850161121b565b91505092915050565b6000806040838503121561137d5761137c611dcb565b5b600061138b8582860161121b565b925050602083013567ffffffffffffffff8111156113ac576113ab611dc6565b5b6113b8858286016111ed565b9150509250929050565b6113cb81611aa6565b82525050565b6113da81611ac4565b82525050565b6113e981611ace565b82525050565b60006113fa826117e8565b61140481856117fe565b9350611414818560208601611b69565b61141d81611dd0565b840191505092915050565b61143961143482611b24565b611c72565b82525050565b600061144a826117f3565b611454818561180f565b9350611464818560208601611b69565b61146d81611dd0565b840191505092915050565b600061148560148361180f565b915061149082611dfb565b602082019050919050565b60006114a860238361180f565b91506114b382611e24565b604082019050919050565b60006114cb60288361180f565b91506114d682611e73565b604082019050919050565b6114ea81611b1a565b82525050565b6115016114fc82611b1a565b611c96565b82525050565b60006115138285611428565b60148201915061152382846114f0565b6020820191508190509392505050565b600061010082019050611549600083018b6113c2565b611556602083018a6114e1565b61156360408301896113d1565b61157060608301886113c2565b61157d60808301876113e0565b61158a60a08301866114e1565b61159760c08301856114e1565b81810360e08301526115a981846113ef565b90509998505050505050505050565b60006060820190506115cd60008301866113c2565b6115da60208301856114e1565b81810360408301526115ec81846113ef565b9050949350505050565b600060208201905061160b60008301846113d1565b92915050565b6000602082019050818103600083015261162a81611478565b9050919050565b6000602082019050818103600083015261164a8161149b565b9050919050565b6000602082019050818103600083015261166a816114be565b9050919050565b600060208201905061168660008301846114e1565b92915050565b60006040820190506116a160008301856114e1565b81810360208301526116b3818461143f565b90509392505050565b60006080820190506116d160008301876114e1565b81810360208301526116e3818661143f565b90506116f260408301856114e1565b6116ff60608301846114e1565b95945050505050565b600060a08201905061171d60008301886114e1565b818103602083015261172f818761143f565b905061173e60408301866114e1565b61174b60608301856114e1565b818103608083015261175d818461143f565b90509695505050505050565b600060408201905061177e60008301856114e1565b61178b60208301846114e1565b9392505050565b600061179c6117ad565b90506117a88282611bf8565b919050565b6000604051905090565b600067ffffffffffffffff8211156117d2576117d1611d8d565b5b6117db82611dd0565b9050602081019050919050565b600081519050919050565b600081519050919050565b600082825260208201905092915050565b600082825260208201905092915050565b600061182b82611b1a565b915061183683611b1a565b9250827fffffffffffffffffffffffffffffffffffffffffffffffffffffffffffffffff0382111561186b5761186a611cd1565b5b828201905092915050565b600061188182611b1a565b915061188c83611b1a565b92508261189c5761189b611d00565b5b828204905092915050565b6000808291508390505b60018511156118f1578086048111156118cd576118cc611cd1565b5b60018516156118dc5780820291505b80810290506118ea85611dee565b94506118b1565b94509492505050565b600061190582611b1a565b915061191083611b1a565b925061193d7fffffffffffffffffffffffffffffffffffffffffffffffffffffffffffffffff8484611945565b905092915050565b6000826119555760019050611a11565b816119635760009050611a11565b81600181146119795760028114611983576119b2565b6001915050611a11565b60ff84111561199557611994611cd1565b5b8360020a9150848211156119ac576119ab611cd1565b5b50611a11565b5060208310610133831016604e8410600b84101617156119e75782820a9050838111156119e2576119e1611cd1565b5b611a11565b6119f484848460016118a7565b92509050818404811115611a0b57611a0a611cd1565b5b81810290505b9392505050565b6000611a2382611b1a565b9150611a2e83611b1a565b9250817fffffffffffffffffffffffffffffffffffffffffffffffffffffffffffffffff0483118215151615611a6757611a66611cd1565b5b828202905092915050565b6000611a7d82611b1a565b9150611a8883611b1a565b925082821015611a9b57611a9a611cd1565b5b828203905092915050565b6000611ab182611afa565b9050919050565b60008115159050919050565b6000819050919050565b60007fffffffff0000000000000000000000000000000000000000000000000000000082169050919050565b600073ffffffffffffffffffffffffffffffffffffffff82169050919050565b6000819050919050565b6000611b2f82611b36565b9050919050565b6000611b4182611b48565b9050919050565b6000611b5382611afa565b9050919050565b82818337600083830152505050565b60005b83811015611b87578082015181840152602081019050611b6c565b83811115611b96576000848401525b50505050565b6000611ba782611b1a565b91506000821415611bbb57611bba611cd1565b5b600182039050919050565b60006002820490506001821680611bde57607f821691505b60208210811415611bf257611bf1611d2f565b5b50919050565b611c0182611dd0565b810181811067ffffffffffffffff82111715611c2057611c1f611d8d565b5b80604052505050565b6000611c3482611b1a565b91507fffffffffffffffffffffffffffffffffffffffffffffffffffffffffffffffff821415611c6757611c66611cd1565b5b600182019050919050565b6000611c7d82611c84565b9050919050565b6000611c8f82611de1565b9050919050565b6000819050919050565b6000611cab82611b1a565b9150611cb683611b1a565b925082611cc657611cc5611d00565b5b828206905092915050565b7f4e487b7100000000000000000000000000000000000000000000000000000000600052601160045260246000fd5b7f4e487b7100000000000000000000000000000000000000000000000000000000600052601260045260246000fd5b7f4e487b7100000000000000000000000000000000000000000000000000000000600052602260045260246000fd5b7f4e487b7100000000000000000000000000000000000000000000000000000000600052603260045260246000fd5b7f4e487b7100000000000000000000000000000000000000000000000000000000600052604160045260246000fd5b600080fd5b600080fd5b600080fd5b600080fd5b6000601f19601f8301169050919050565b60008160601b9050919050565b60008160011c9050919050565b7f426174636820646f6573206e6f74206578697374000000000000000000000000600082015250565b7f756e61626c6520746f207472616e73666572416e6443616c6c20746f206f726160008201527f636c650000000000000000000000000000000000000000000000000000000000602082015250565b7f536f75726365206d75737420626520746865206f7261636c65206f662074686560008201527f2072657175657374000000000000000000000000000000000000000000000000602082015250565b611ecb81611ab8565b8114611ed657600080fd5b50565b611ee281611ac4565b8114611eed57600080fd5b50565b611ef981611b1a565b8114611f0457600080fd5b5056fea2646970667358221220e3469e9334af6a195b83a32059764e9278b4e20f2cb8a88dce262287e9d0f4e164736f6c63430008070033",
  "linkReferences": {},
  "deployedLinkReferences": {}
}