{
  "_format": "hh-sol-artifact-1",
  "contractName": "DrugBatch",
  "sourceName": "contracts/DrugBatch.sol",
  "abi": [
    {
      "inputs": [],
      "stateMutability": "nonpayable",
      "type": "constructor"
    },
    {
      "anonymous": false,
      "inputs": [
        {
          "indexed": false,
          "internalType": "uint256",
          "name": "id",
          "type": "uint256"
        },
        {
          "indexed": false,
          "internalType": "string",
          "name": "manufacturer",
          "type": "string"
        },
        {
          "indexed": false,
          "internalType": "uint256",
          "name": "manufactureDate",
          "type": "uint256"
        },
        {
          "indexed": false,
          "internalType": "uint256",
          "name": "expiryDate",
          "type": "uint256"
        }
      ],
      "name": "BatchCreated",
      "type": "event"
    },
    {
      "anonymous": false,
      "inputs": [
        {
          "indexed": false,
          "internalType": "uint256",
          "name": "id",
          "type": "uint256"
        },
        {
          "indexed": false,
          "internalType": "string",
          "name": "status",
          "type": "string"
        }
      ],
      "name": "BatchUpdated",
      "type": "event"
    },
    {
      "anonymous": false,
      "inputs": [
        {
          "indexed": true,
          "internalType": "bytes32",
          "name": "id",
          "type": "bytes32"
        }
      ],
      "name": "ChainlinkCancelled",
      "type": "event"
    },
    {
      "anonymous": false,
      "inputs": [
        {
          "indexed": true,
          "internalType": "bytes32",
          "name": "id",
          "type": "bytes32"
        }
      ],
      "name": "ChainlinkFulfilled",
      "type": "event"
    },
    {
      "anonymous": false,
      "inputs": [
        {
          "indexed": true,
          "internalType": "bytes32",
          "name": "id",
          "type": "bytes32"
        }
      ],
      "name": "ChainlinkRequested",
      "type": "event"
    },
    {
      "anonymous": false,
      "inputs": [
        {
          "indexed": false,
          "internalType": "uint256",
          "name": "id",
          "type": "uint256"
        },
        {
          "indexed": false,
          "internalType": "uint256",
          "name": "temperature",
          "type": "uint256"
        }
      ],
      "name": "TemperatureExceeded",
      "type": "event"
    },
    {
      "inputs": [
        {
          "internalType": "uint256",
          "name": "",
          "type": "uint256"
        }
      ],
      "name": "batches",
      "outputs": [
        {
          "internalType": "uint256",
          "name": "id",
          "type": "uint256"
        },
        {
          "internalType": "string",
          "name": "manufacturer",
          "type": "string"
        },
        {
          "internalType": "uint256",
          "name": "manufactureDate",
          "type": "uint256"
        },
        {
          "internalType": "uint256",
          "name": "expiryDate",
          "type": "uint256"
        },
        {
          "internalType": "string",
          "name": "status",
          "type": "string"
        }
      ],
      "stateMutability": "view",
      "type": "function"
    },
    {
      "inputs": [
        {
          "internalType": "bytes32",
          "name": "",
          "type": "bytes32"
        }
      ],
      "name": "chainlinkRequestIdToBatchId",
      "outputs": [
        {
          "internalType": "uint256",
          "name": "",
          "type": "uint256"
        }
      ],
      "stateMutability": "view",
      "type": "function"
    },
    {
      "inputs": [
        {
          "internalType": "string",
          "name": "_manufacturer",
          "type": "string"
        },
        {
          "internalType": "uint256",
          "name": "_manufactureDate",
          "type": "uint256"
        },
        {
          "internalType": "uint256",
          "name": "_expiryDate",
          "type": "uint256"
        }
      ],
      "name": "createBatch",
      "outputs": [],
      "stateMutability": "nonpayable",
      "type": "function"
    },
    {
      "inputs": [
        {
          "internalType": "bytes32",
          "name": "_requestId",
          "type": "bytes32"
        },
        {
          "internalType": "uint256",
          "name": "_temperature",
          "type": "uint256"
        }
      ],
      "name": "fulfill",
      "outputs": [],
      "stateMutability": "nonpayable",
      "type": "function"
    },
    {
      "inputs": [],
      "name": "nextBatchId",
      "outputs": [
        {
          "internalType": "uint256",
          "name": "",
          "type": "uint256"
        }
      ],
      "stateMutability": "view",
      "type": "function"
    },
    {
      "inputs": [
        {
          "internalType": "uint256",
          "name": "_batchId",
          "type": "uint256"
        },
        {
          "internalType": "uint256",
          "name": "_temperature",
          "type": "uint256"
        }
      ],
      "name": "recordTemperature",
      "outputs": [],
      "stateMutability": "nonpayable",
      "type": "function"
    },
    {
      "inputs": [
        {
          "internalType": "uint256",
          "name": "_batchId",
          "type": "uint256"
        }
      ],
      "name": "requestTemperatureData",
      "outputs": [
        {
          "internalType": "bytes32",
          "name": "requestId",
          "type": "bytes32"
        }
      ],
      "stateMutability": "nonpayable",
      "type": "function"
    },
    {
      "inputs": [
        {
          "internalType": "uint256",
          "name": "_batchId",
          "type": "uint256"
        },
        {
          "internalType": "string",
          "name": "_status",
          "type": "string"
        }
      ],
      "name": "updateBatch",
      "outputs": [],
      "stateMutability": "nonpayable",
      "type": "function"
    }
  ],
  "bytecode": "0x60806040526001600455601e60095534801561001a57600080fd5b50737afe30cb3e53dba6801aa0ea647a0b1099abd5e6600a60006101000a81548173ffffffffffffffffffffffffffffffffffffffff021916908373ffffffffffffffffffffffffffffffffffffffff16021790555061009373326c977e6efc84e512bb9c30f76e30c160ed06fb6100ff60201b60201c565b6100c4600a60009054906101000a900473ffffffffffffffffffffffffffffffffffffffff1661014360201b60201c565b7f6435323730643163333131393431643062303862656164323166656137373437600b8190555067016345785d8a0000600c81905550610187565b80600260006101000a81548173ffffffffffffffffffffffffffffffffffffffff021916908373ffffffffffffffffffffffffffffffffffffffff16021790555050565b80600360006101000a81548173ffffffffffffffffffffffffffffffffffffffff021916908373ffffffffffffffffffffffffffffffffffffffff16021790555050565b61225780620001976000396000f3fe608060405234801561001057600080fd5b50600436106100885760003560e01c80638462a7f81161005b5780638462a7f814610125578063b32c4d8d14610143578063b53db1c714610177578063e7f25c6e1461019357610088565b806339e25bad1461008d5780634357855e146100bd578063496781d0146100d95780638207fd8514610109575b600080fd5b6100a760048036038101906100a29190611443565b6101af565b6040516100b491906118dd565b60405180910390f35b6100d760048036038101906100d29190611470565b6101c7565b005b6100f360048036038101906100ee919061151f565b61032e565b6040516101009190611862565b60405180910390f35b610123600480360381019061011e919061154c565b6103e8565b005b61012d610494565b60405161013a91906118dd565b60405180910390f35b61015d6004803603810190610158919061151f565b61049a565b60405161016e959493929190611974565b60405180910390f35b610191600480360381019061018c91906115a8565b6105e0565b005b6101ad60048036038101906101a891906114b0565b61079f565b005b60076020528060005260406000206000915090505481565b816005600082815260200190815260200160002060009054906101000a900473ffffffffffffffffffffffffffffffffffffffff1673ffffffffffffffffffffffffffffffffffffffff163373ffffffffffffffffffffffffffffffffffffffff1614610269576040517f08c379a0000000000000000000000000000000000000000000000000000000008152600401610260906118bd565b60405180910390fd5b6005600082815260200190815260200160002060006101000a81549073ffffffffffffffffffffffffffffffffffffffff0219169055807f7cc135e0cebb02c3480ae5d74d377283180a2601f8f644edf7987b009316c63a60405160405180910390a2600060076000858152602001908152602001600020549050600954831115610328577fc63b563cb63ffad76bbc9e8ceaad18081512169728708708ce00e240e22c8a01818460405161031f929190611a31565b60405180910390a15b50505050565b600080610345600b5430634357855e60e01b6108c9565b90506103996040518060400160405280600781526020017f6261746368496400000000000000000000000000000000000000000000000000815250610389856108fa565b83610a5e9092919063ffffffff16565b6103c8600a60009054906101000a900473ffffffffffffffffffffffffffffffffffffffff1682600c54610a91565b915082600760008481526020019081526020016000208190555050919050565b600854821061042c576040517f08c379a00000000000000000000000000000000000000000000000000000000081526004016104239061187d565b60405180910390fd5b8060066000848152602001908152602001600020600401908051906020019061045692919061123d565b507fcc1163b9f5b7a48feb09e3106d97fe333e2b9b8d72544e2f9d4470f483e5214e82826040516104889291906118f8565b60405180910390a15050565b60085481565b60066020528060005260406000206000915090508060000154908060010180546104c390611e8e565b80601f01602080910402602001604051908101604052809291908181526020018280546104ef90611e8e565b801561053c5780601f106105115761010080835404028352916020019161053c565b820191906000526020600020905b81548152906001019060200180831161051f57829003601f168201915b50505050509080600201549080600301549080600401805461055d90611e8e565b80601f016020809104026020016040519081016040528092919081815260200182805461058990611e8e565b80156105d65780601f106105ab576101008083540402835291602001916105d6565b820191906000526020600020905b8154815290600101906020018083116105b957829003601f168201915b5050505050905085565b6008548210610624576040517f08c379a000000000000000000000000000000000000000000000000000000000815260040161061b9061187d565b60405180910390fd5b600954811115610703577fc63b563cb63ffad76bbc9e8ceaad18081512169728708708ce00e240e22c8a01828260405161065f929190611a31565b60405180910390a16040518060400160405280601481526020017f54656d70657261747572652045786365656465640000000000000000000000008152506006600084815260200190815260200160002060040190805190602001906106c692919061123d565b507fcc1163b9f5b7a48feb09e3106d97fe333e2b9b8d72544e2f9d4470f483e5214e826040516106f69190611a03565b60405180910390a161079b565b6040518060400160405280601281526020017f54656d7065726174757265204e6f726d616c000000000000000000000000000081525060066000848152602001908152602001600020600401908051906020019061076292919061123d565b507fcc1163b9f5b7a48feb09e3106d97fe333e2b9b8d72544e2f9d4470f483e5214e8260405161079291906119d5565b60405180910390a15b5050565b6040518060a0016040528060085481526020018481526020018381526020018281526020016040518060400160405280600781526020017f437265617465640000000000000000000000000000000000000000000000000081525081525060066000600854815260200190815260200160002060008201518160000155602082015181600101908051906020019061083892919061123d565b506040820151816002015560608201518160030155608082015181600401908051906020019061086992919061123d565b509050507fcfc3a8401549578cdc3a4450882d09189a820561ebadb683b484bc6bd62dd4ef6008548484846040516108a49493929190611928565b60405180910390a1600860008154809291906108bf90611ef1565b9190505550505050565b6108d16112c3565b6108d96112c3565b6108f085858584610b5d909392919063ffffffff16565b9150509392505050565b60606000821415610942576040518060400160405280600181526020017f30000000000000000000000000000000000000000000000000000000000000008152509050610a59565b600082905060005b6000821461097457808061095d90611ef1565b915050600a8261096d9190611b3e565b915061094a565b60008167ffffffffffffffff8111156109905761098f612055565b5b6040519080825280601f01601f1916602001820160405280156109c25781602001600182028036833780820191505090505b50905060008290505b60008614610a5157600a866109e09190611f68565b60306109ec9190611ae8565b60f81b82826109fa90611e64565b92508281518110610a0e57610a0d612026565b5b60200101907effffffffffffffffffffffffffffffffffffffffffffffffffffffffffffff1916908160001a905350600a86610a4a9190611b3e565b95506109cb565b819450505050505b919050565b610a75828460800151610c0d90919063ffffffff16565b610a8c818460800151610c0d90919063ffffffff16565b505050565b6000806004549050600181610aa69190611ae8565b6004819055506000634042994660e01b60008087600001513089604001518760018c6080015160000151604051602401610ae798979695949392919061179f565b604051602081830303815290604052907bffffffffffffffffffffffffffffffffffffffffffffffffffffffff19166020820180517bffffffffffffffffffffffffffffffffffffffffffffffffffffffff83818316178352505050509050610b5286838684610c32565b925050509392505050565b610b656112c3565b610b758560800151610100610dd6565b508385600001818152505082856020019073ffffffffffffffffffffffffffffffffffffffff16908173ffffffffffffffffffffffffffffffffffffffff16815250508185604001907bffffffffffffffffffffffffffffffffffffffffffffffffffffffff191690817bffffffffffffffffffffffffffffffffffffffffffffffffffffffff191681525050849050949350505050565b610c1a8260038351610e40565b610c2d8183610fc590919063ffffffff16565b505050565b60003084604051602001610c47929190611773565b604051602081830303815290604052805190602001209050846005600083815260200190815260200160002060006101000a81548173ffffffffffffffffffffffffffffffffffffffff021916908373ffffffffffffffffffffffffffffffffffffffff160217905550807fb5e6e01e79f91267dc17b4e6314d5d4d03593d2ceee0fbb452b750bd70ea5af960405160405180910390a2600260009054906101000a900473ffffffffffffffffffffffffffffffffffffffff1673ffffffffffffffffffffffffffffffffffffffff16634000aea08685856040518463ffffffff1660e01b8152600401610d3d93929190611824565b602060405180830381600087803b158015610d5757600080fd5b505af1158015610d6b573d6000803e3d6000fd5b505050506040513d601f19601f82011682018060405250810190610d8f9190611416565b610dce576040517f08c379a0000000000000000000000000000000000000000000000000000000008152600401610dc59061189d565b60405180910390fd5b949350505050565b610dde611330565b6000602083610ded9190611f68565b14610e1957602082610dff9190611f68565b6020610e0b9190611d3a565b82610e169190611ae8565b91505b81836020018181525050604051808452600081528281016020016040525082905092915050565b60178167ffffffffffffffff1611610e7757610e718160058460ff16901b60ff161784610fe790919063ffffffff16565b50610fc0565b60ff8167ffffffffffffffff1611610ecd57610ea6601860058460ff16901b1784610fe790919063ffffffff16565b50610ec78167ffffffffffffffff166001856110079092919063ffffffff16565b50610fbf565b61ffff8167ffffffffffffffff1611610f2457610efd601960058460ff16901b1784610fe790919063ffffffff16565b50610f1e8167ffffffffffffffff166002856110079092919063ffffffff16565b50610fbe565b63ffffffff8167ffffffffffffffff1611610f7d57610f56601a60058460ff16901b1784610fe790919063ffffffff16565b50610f778167ffffffffffffffff166004856110079092919063ffffffff16565b50610fbd565b610f9a601b60058460ff16901b1784610fe790919063ffffffff16565b50610fbb8167ffffffffffffffff166008856110079092919063ffffffff16565b505b5b5b5b505050565b610fcd611330565b610fdf83846000015151848551611029565b905092915050565b610fef611330565b610fff8384600001515184611118565b905092915050565b61100f611330565b61102084856000015151858561116f565b90509392505050565b611031611330565b825182111561103f57600080fd5b846020015182856110509190611ae8565b111561108557611084856002611075886020015188876110709190611ae8565b6111fd565b61107f9190611ce0565b611219565b5b6000808651805187602083010193508088870111156110a45787860182525b60208701925050505b602084106110eb57805182526020826110c69190611ae8565b91506020816110d59190611ae8565b90506020846110e49190611d3a565b93506110ad565b60006001856020036101000a03905080198251168184511681811785525050508692505050949350505050565b611120611330565b836020015183106111465761114584600286602001516111409190611ce0565b611219565b5b8351805160208583010184815381861415611162576001820183525b5050508390509392505050565b611177611330565b846020015184836111889190611ae8565b11156111b0576111af85600286856111a09190611ae8565b6111aa9190611ce0565b611219565b5b60006001836101006111c29190611bc2565b6111cc9190611d3a565b905085518386820101858319825116178152815185880111156111ef5784870182525b505085915050949350505050565b60008183111561120f57829050611213565b8190505b92915050565b60008260000151905061122c8383610dd6565b506112378382610fc5565b50505050565b82805461124990611e8e565b90600052602060002090601f01602090048101928261126b57600085556112b2565b82601f1061128457805160ff19168380011785556112b2565b828001600101855582156112b2579182015b828111156112b1578251825591602001919060010190611296565b5b5090506112bf919061134a565b5090565b6040518060a0016040528060008019168152602001600073ffffffffffffffffffffffffffffffffffffffff16815260200160007bffffffffffffffffffffffffffffffffffffffffffffffffffffffff191681526020016000815260200161132a611330565b81525090565b604051806040016040528060608152602001600081525090565b5b8082111561136357600081600090555060010161134b565b5090565b600061137a61137584611a7f565b611a5a565b90508281526020810184848401111561139657611395612089565b5b6113a1848285611e22565b509392505050565b6000815190506113b8816121dc565b92915050565b6000813590506113cd816121f3565b92915050565b600082601f8301126113e8576113e7612084565b5b81356113f8848260208601611367565b91505092915050565b6000813590506114108161220a565b92915050565b60006020828403121561142c5761142b612093565b5b600061143a848285016113a9565b91505092915050565b60006020828403121561145957611458612093565b5b6000611467848285016113be565b91505092915050565b6000806040838503121561148757611486612093565b5b6000611495858286016113be565b92505060206114a685828601611401565b9150509250929050565b6000806000606084860312156114c9576114c8612093565b5b600084013567ffffffffffffffff8111156114e7576114e661208e565b5b6114f3868287016113d3565b935050602061150486828701611401565b925050604061151586828701611401565b9150509250925092565b60006020828403121561153557611534612093565b5b600061154384828501611401565b91505092915050565b6000806040838503121561156357611562612093565b5b600061157185828601611401565b925050602083013567ffffffffffffffff8111156115925761159161208e565b5b61159e858286016113d3565b9150509250929050565b600080604083850312156115bf576115be612093565b5b60006115cd85828601611401565b92505060206115de85828601611401565b9150509250929050565b6115f181611d6e565b82525050565b61160081611d8c565b82525050565b61160f81611d96565b82525050565b600061162082611ab0565b61162a8185611ac6565b935061163a818560208601611e31565b61164381612098565b840191505092915050565b61165f61165a82611dec565b611f3a565b82525050565b600061167082611abb565b61167a8185611ad7565b935061168a818560208601611e31565b61169381612098565b840191505092915050565b60006116ab601483611ad7565b91506116b6826120c3565b602082019050919050565b60006116ce602383611ad7565b91506116d9826120ec565b604082019050919050565b60006116f1601283611ad7565b91506116fc8261213b565b602082019050919050565b6000611714602883611ad7565b915061171f82612164565b604082019050919050565b6000611737601483611ad7565b9150611742826121b3565b602082019050919050565b61175681611de2565b82525050565b61176d61176882611de2565b611f5e565b82525050565b600061177f828561164e565b60148201915061178f828461175c565b6020820191508190509392505050565b6000610100820190506117b5600083018b6115e8565b6117c2602083018a61174d565b6117cf60408301896115f7565b6117dc60608301886115e8565b6117e96080830187611606565b6117f660a083018661174d565b61180360c083018561174d565b81810360e08301526118158184611615565b90509998505050505050505050565b600060608201905061183960008301866115e8565b611846602083018561174d565b81810360408301526118588184611615565b9050949350505050565b600060208201905061187760008301846115f7565b92915050565b600060208201905081810360008301526118968161169e565b9050919050565b600060208201905081810360008301526118b6816116c1565b9050919050565b600060208201905081810360008301526118d681611707565b9050919050565b60006020820190506118f2600083018461174d565b92915050565b600060408201905061190d600083018561174d565b818103602083015261191f8184611665565b90509392505050565b600060808201905061193d600083018761174d565b818103602083015261194f8186611665565b905061195e604083018561174d565b61196b606083018461174d565b95945050505050565b600060a082019050611989600083018861174d565b818103602083015261199b8187611665565b90506119aa604083018661174d565b6119b7606083018561174d565b81810360808301526119c98184611665565b90509695505050505050565b60006040820190506119ea600083018461174d565b81810360208301526119fb816116e4565b905092915050565b6000604082019050611a18600083018461174d565b8181036020830152611a298161172a565b905092915050565b6000604082019050611a46600083018561174d565b611a53602083018461174d565b9392505050565b6000611a64611a75565b9050611a708282611ec0565b919050565b6000604051905090565b600067ffffffffffffffff821115611a9a57611a99612055565b5b611aa382612098565b9050602081019050919050565b600081519050919050565b600081519050919050565b600082825260208201905092915050565b600082825260208201905092915050565b6000611af382611de2565b9150611afe83611de2565b9250827fffffffffffffffffffffffffffffffffffffffffffffffffffffffffffffffff03821115611b3357611b32611f99565b5b828201905092915050565b6000611b4982611de2565b9150611b5483611de2565b925082611b6457611b63611fc8565b5b828204905092915050565b6000808291508390505b6001851115611bb957808604811115611b9557611b94611f99565b5b6001851615611ba45780820291505b8081029050611bb2856120b6565b9450611b79565b94509492505050565b6000611bcd82611de2565b9150611bd883611de2565b9250611c057fffffffffffffffffffffffffffffffffffffffffffffffffffffffffffffffff8484611c0d565b905092915050565b600082611c1d5760019050611cd9565b81611c2b5760009050611cd9565b8160018114611c415760028114611c4b57611c7a565b6001915050611cd9565b60ff841115611c5d57611c5c611f99565b5b8360020a915084821115611c7457611c73611f99565b5b50611cd9565b5060208310610133831016604e8410600b8410161715611caf5782820a905083811115611caa57611ca9611f99565b5b611cd9565b611cbc8484846001611b6f565b92509050818404811115611cd357611cd2611f99565b5b81810290505b9392505050565b6000611ceb82611de2565b9150611cf683611de2565b9250817fffffffffffffffffffffffffffffffffffffffffffffffffffffffffffffffff0483118215151615611d2f57611d2e611f99565b5b828202905092915050565b6000611d4582611de2565b9150611d5083611de2565b925082821015611d6357611d62611f99565b5b828203905092915050565b6000611d7982611dc2565b9050919050565b60008115159050919050565b6000819050919050565b60007fffffffff0000000000000000000000000000000000000000000000000000000082169050919050565b600073ffffffffffffffffffffffffffffffffffffffff82169050919050565b6000819050919050565b6000611df782611dfe565b9050919050565b6000611e0982611e10565b9050919050565b6000611e1b82611dc2565b9050919050565b82818337600083830152505050565b60005b83811015611e4f578082015181840152602081019050611e34565b83811115611e5e576000848401525b50505050565b6000611e6f82611de2565b91506000821415611e8357611e82611f99565b5b600182039050919050565b60006002820490506001821680611ea657607f821691505b60208210811415611eba57611eb9611ff7565b5b50919050565b611ec982612098565b810181811067ffffffffffffffff82111715611ee857611ee7612055565b5b80604052505050565b6000611efc82611de2565b91507fffffffffffffffffffffffffffffffffffffffffffffffffffffffffffffffff821415611f2f57611f2e611f99565b5b600182019050919050565b6000611f4582611f4c565b9050919050565b6000611f57826120a9565b9050919050565b6000819050919050565b6000611f7382611de2565b9150611f7e83611de2565b925082611f8e57611f8d611fc8565b5b828206905092915050565b7f4e487b7100000000000000000000000000000000000000000000000000000000600052601160045260246000fd5b7f4e487b7100000000000000000000000000000000000000000000000000000000600052601260045260246000fd5b7f4e487b7100000000000000000000000000000000000000000000000000000000600052602260045260246000fd5b7f4e487b7100000000000000000000000000000000000000000000000000000000600052603260045260246000fd5b7f4e487b7100000000000000000000000000000000000000000000000000000000600052604160045260246000fd5b600080fd5b600080fd5b600080fd5b600080fd5b6000601f19601f8301169050919050565b60008160601b9050919050565b60008160011c9050919050565b7f426174636820646f6573206e6f74206578697374000000000000000000000000600082015250565b7f756e61626c6520746f207472616e73666572416e6443616c6c20746f206f726160008201527f636c650000000000000000000000000000000000000000000000000000000000602082015250565b7f54656d7065726174757265204e6f726d616c0000000000000000000000000000600082015250565b7f536f75726365206d75737420626520746865206f7261636c65206f662074686560008201527f2072657175657374000000000000000000000000000000000000000000000000602082015250565b7f54656d7065726174757265204578636565646564000000000000000000000000600082015250565b6121e581611d80565b81146121f057600080fd5b50565b6121fc81611d8c565b811461220757600080fd5b50565b61221381611de2565b811461221e57600080fd5b5056fea26469706673582212200e69cb384b714bea79dfc3b70410d258e65d172981465c1b28d26ba88e35c2b264736f6c63430008070033",
  "linkReferences": {},
  "deployedLinkReferences": {}
}