{"contracts/DrugBatch.sol":{"DrugBatch":{"abi":[{"inputs":[],"stateMutability":"nonpayable","type":"constructor"},{"anonymous":false,"inputs":[{"indexed":false,"internalType":"uint256","name":"id","type":"uint256"},{"indexed":false,"internalType":"string","name":"manufacturer","type":"string"},{"indexed":false,"internalType":"uint256","name":"manufactureDate","type":"uint256"},{"indexed":false,"internalType":"uint256","name":"expiryDate","type":"uint256"}],"name":"BatchCreated","type":"event"},{"anonymous":false,"inputs":[{"indexed":false,"internalType":"uint256","name":"id","type":"uint256"},{"indexed":false,"internalType":"string","name":"status","type":"string"}],"name":"BatchUpdated","type":"event"},{"anonymous":false,"inputs":[{"indexed":true,"internalType":"bytes32","name":"id","type":"bytes32"}],"name":"ChainlinkCancelled","type":"event"},{"anonymous":false,"inputs":[{"indexed":true,"internalType":"bytes32","name":"id","type":"bytes32"}],"name":"ChainlinkFulfilled","type":"event"},{"anonymous":false,"inputs":[{"indexed":true,"internalType":"bytes32","name":"id","type":"bytes32"}],"name":"ChainlinkRequested","type":"event"},{"anonymous":false,"inputs":[{"indexed":false,"internalType":"uint256","name":"id","type":"uint256"},{"indexed":false,"internalType":"uint256","name":"temperature","type":"uint256"}],"name":"TemperatureExceeded","type":"event"},{"inputs":[{"internalType":"uint256","name":"","type":"uint256"}],"name":"batches","outputs":[{"internalType":"uint256","name":"id","type":"uint256"},{"internalType":"string","name":"manufacturer","type":"string"},{"internalType":"uint256","name":"manufactureDate","type":"uint256"},{"internalType":"uint256","name":"expiryDate","type":"uint256"},{"internalType":"string","name":"status","type":"string"}],"stateMutability":"view","type":"function"},{"inputs":[{"internalType":"bytes32","name":"","type":"bytes32"}],"name":"chainlinkRequestIdToBatchId","outputs":[{"internalType":"uint256","name":"","type":"uint256"}],"stateMutability":"view","type":"function"},{"inputs":[{"internalType":"string","name":"_manufacturer","type":"string"},{"internalType":"uint256","name":"_manufactureDate","type":"uint256"},{"internalType":"uint256","name":"_expiryDate","type":"uint256"}],"name":"createBatch","outputs":[],"stateMutability":"nonpayable","type":"function"},{"inputs":[{"internalType":"bytes32","name":"_requestId","type":"bytes32"},{"internalType":"uint256","name":"_temperature","type":"uint256"}],"name":"fulfill","outputs":[],"stateMutability":"nonpayable","type":"function"},{"inputs":[],"name":"nextBatchId","outputs":[{"internalType":"uint256","name":"","type":"uint256"}],"stateMutability":"view","type":"function"},{"inputs":[{"internalType":"uint256","name":"_batchId","type":"uint256"}],"name":"requestTemperatureData","outputs":[{"internalType":"bytes32","name":"requestId","type":"bytes32"}],"stateMutability":"nonpayable","type":"function"},{"inputs":[{"internalType":"uint256","name":"_batchId","type":"uint256"},{"internalType":"string","name":"_status","type":"string"}],"name":"updateBatch","outputs":[],"stateMutability":"nonpayable","type":"function"}],"evm":{"bytecode":{"linkReferences":{},"object":"60806040526001600455601e60095534801561001a57600080fd5b50737afe30cb3e53dba6801aa0ea647a0b1099abd5e6600a60006101000a81548173ffffffffffffffffffffffffffffffffffffffff021916908373ffffffffffffffffffffffffffffffffffffffff16021790555061009373779877a7b0d9e8603169ddbd7836e478b46247896100ff60201b60201c565b6100c4600a60009054906101000a900473ffffffffffffffffffffffffffffffffffffffff1661014360201b60201c565b7f6435323730643163333131393431643062303862656164323166656137373437600b8190555067016345785d8a0000600c81905550610187565b80600260006101000a81548173ffffffffffffffffffffffffffffffffffffffff021916908373ffffffffffffffffffffffffffffffffffffffff16021790555050565b80600360006101000a81548173ffffffffffffffffffffffffffffffffffffffff021916908373ffffffffffffffffffffffffffffffffffffffff16021790555050565b611f3d806101966000396000f3fe608060405234801561001057600080fd5b506004361061007d5760003560e01c80638207fd851161005b5780638207fd85146100fe5780638462a7f81461011a578063b32c4d8d14610138578063e7f25c6e1461016c5761007d565b806339e25bad146100825780634357855e146100b2578063496781d0146100ce575b600080fd5b61009c6004803603810190610097919061125d565b610188565b6040516100a99190611671565b60405180910390f35b6100cc60048036038101906100c7919061128a565b6101a0565b005b6100e860048036038101906100e39190611339565b610307565b6040516100f591906115f6565b60405180910390f35b61011860048036038101906101139190611366565b6103c1565b005b61012261046d565b60405161012f9190611671565b60405180910390f35b610152600480360381019061014d9190611339565b610473565b604051610163959493929190611708565b60405180910390f35b610186600480360381019061018191906112ca565b6105b9565b005b60076020528060005260406000206000915090505481565b816005600082815260200190815260200160002060009054906101000a900473ffffffffffffffffffffffffffffffffffffffff1673ffffffffffffffffffffffffffffffffffffffff163373ffffffffffffffffffffffffffffffffffffffff1614610242576040517f08c379a000000000000000000000000000000000000000000000000000000000815260040161023990611651565b60405180910390fd5b6005600082815260200190815260200160002060006101000a81549073ffffffffffffffffffffffffffffffffffffffff0219169055807f7cc135e0cebb02c3480ae5d74d377283180a2601f8f644edf7987b009316c63a60405160405180910390a2600060076000858152602001908152602001600020549050600954831115610301577fc63b563cb63ffad76bbc9e8ceaad18081512169728708708ce00e240e22c8a0181846040516102f8929190611769565b60405180910390a15b50505050565b60008061031e600b5430634357855e60e01b6106e3565b90506103726040518060400160405280600781526020017f626174636849640000000000000000000000000000000000000000000000000081525061036285610714565b836108789092919063ffffffff16565b6103a1600a60009054906101000a900473ffffffffffffffffffffffffffffffffffffffff1682600c546108ab565b915082600760008481526020019081526020016000208190555050919050565b6008548210610405576040517f08c379a00000000000000000000000000000000000000000000000000000000081526004016103fc90611611565b60405180910390fd5b8060066000848152602001908152602001600020600401908051906020019061042f929190611057565b507fcc1163b9f5b7a48feb09e3106d97fe333e2b9b8d72544e2f9d4470f483e5214e828260405161046192919061168c565b60405180910390a15050565b60085481565b600660205280600052604060002060009150905080600001549080600101805461049c90611bc6565b80601f01602080910402602001604051908101604052809291908181526020018280546104c890611bc6565b80156105155780601f106104ea57610100808354040283529160200191610515565b820191906000526020600020905b8154815290600101906020018083116104f857829003601f168201915b50505050509080600201549080600301549080600401805461053690611bc6565b80601f016020809104026020016040519081016040528092919081815260200182805461056290611bc6565b80156105af5780601f10610584576101008083540402835291602001916105af565b820191906000526020600020905b81548152906001019060200180831161059257829003601f168201915b5050505050905085565b6040518060a0016040528060085481526020018481526020018381526020018281526020016040518060400160405280600781526020017f4372656174656400000000000000000000000000000000000000000000000000815250815250600660006008548152602001908152602001600020600082015181600001556020820151816001019080519060200190610652929190611057565b5060408201518160020155606082015181600301556080820151816004019080519060200190610683929190611057565b509050507fcfc3a8401549578cdc3a4450882d09189a820561ebadb683b484bc6bd62dd4ef6008548484846040516106be94939291906116bc565b60405180910390a1600860008154809291906106d990611c29565b9190505550505050565b6106eb6110dd565b6106f36110dd565b61070a85858584610977909392919063ffffffff16565b9150509392505050565b6060600082141561075c576040518060400160405280600181526020017f30000000000000000000000000000000000000000000000000000000000000008152509050610873565b600082905060005b6000821461078e57808061077790611c29565b915050600a826107879190611876565b9150610764565b60008167ffffffffffffffff8111156107aa576107a9611d8d565b5b6040519080825280601f01601f1916602001820160405280156107dc5781602001600182028036833780820191505090505b50905060008290505b6000861461086b57600a866107fa9190611ca0565b60306108069190611820565b60f81b828261081490611b9c565b9250828151811061082857610827611d5e565b5b60200101907effffffffffffffffffffffffffffffffffffffffffffffffffffffffffffff1916908160001a905350600a866108649190611876565b95506107e5565b819450505050505b919050565b61088f828460800151610a2790919063ffffffff16565b6108a6818460800151610a2790919063ffffffff16565b505050565b60008060045490506001816108c09190611820565b6004819055506000634042994660e01b60008087600001513089604001518760018c6080015160000151604051602401610901989796959493929190611533565b604051602081830303815290604052907bffffffffffffffffffffffffffffffffffffffffffffffffffffffff19166020820180517bffffffffffffffffffffffffffffffffffffffffffffffffffffffff8381831617835250505050905061096c86838684610a4c565b925050509392505050565b61097f6110dd565b61098f8560800151610100610bf0565b508385600001818152505082856020019073ffffffffffffffffffffffffffffffffffffffff16908173ffffffffffffffffffffffffffffffffffffffff16815250508185604001907bffffffffffffffffffffffffffffffffffffffffffffffffffffffff191690817bffffffffffffffffffffffffffffffffffffffffffffffffffffffff191681525050849050949350505050565b610a348260038351610c5a565b610a478183610ddf90919063ffffffff16565b505050565b60003084604051602001610a61929190611507565b604051602081830303815290604052805190602001209050846005600083815260200190815260200160002060006101000a81548173ffffffffffffffffffffffffffffffffffffffff021916908373ffffffffffffffffffffffffffffffffffffffff160217905550807fb5e6e01e79f91267dc17b4e6314d5d4d03593d2ceee0fbb452b750bd70ea5af960405160405180910390a2600260009054906101000a900473ffffffffffffffffffffffffffffffffffffffff1673ffffffffffffffffffffffffffffffffffffffff16634000aea08685856040518463ffffffff1660e01b8152600401610b57939291906115b8565b602060405180830381600087803b158015610b7157600080fd5b505af1158015610b85573d6000803e3d6000fd5b505050506040513d601f19601f82011682018060405250810190610ba99190611230565b610be8576040517f08c379a0000000000000000000000000000000000000000000000000000000008152600401610bdf90611631565b60405180910390fd5b949350505050565b610bf861114a565b6000602083610c079190611ca0565b14610c3357602082610c199190611ca0565b6020610c259190611a72565b82610c309190611820565b91505b81836020018181525050604051808452600081528281016020016040525082905092915050565b60178167ffffffffffffffff1611610c9157610c8b8160058460ff16901b60ff161784610e0190919063ffffffff16565b50610dda565b60ff8167ffffffffffffffff1611610ce757610cc0601860058460ff16901b1784610e0190919063ffffffff16565b50610ce18167ffffffffffffffff16600185610e219092919063ffffffff16565b50610dd9565b61ffff8167ffffffffffffffff1611610d3e57610d17601960058460ff16901b1784610e0190919063ffffffff16565b50610d388167ffffffffffffffff16600285610e219092919063ffffffff16565b50610dd8565b63ffffffff8167ffffffffffffffff1611610d9757610d70601a60058460ff16901b1784610e0190919063ffffffff16565b50610d918167ffffffffffffffff16600485610e219092919063ffffffff16565b50610dd7565b610db4601b60058460ff16901b1784610e0190919063ffffffff16565b50610dd58167ffffffffffffffff16600885610e219092919063ffffffff16565b505b5b5b5b505050565b610de761114a565b610df983846000015151848551610e43565b905092915050565b610e0961114a565b610e198384600001515184610f32565b905092915050565b610e2961114a565b610e3a848560000151518585610f89565b90509392505050565b610e4b61114a565b8251821115610e5957600080fd5b84602001518285610e6a9190611820565b1115610e9f57610e9e856002610e8f88602001518887610e8a9190611820565b611017565b610e999190611a18565b611033565b5b600080865180518760208301019350808887011115610ebe5787860182525b60208701925050505b60208410610f055780518252602082610ee09190611820565b9150602081610eef9190611820565b9050602084610efe9190611a72565b9350610ec7565b60006001856020036101000a03905080198251168184511681811785525050508692505050949350505050565b610f3a61114a565b83602001518310610f6057610f5f8460028660200151610f5a9190611a18565b611033565b5b8351805160208583010184815381861415610f7c576001820183525b5050508390509392505050565b610f9161114a565b84602001518483610fa29190611820565b1115610fca57610fc98560028685610fba9190611820565b610fc49190611a18565b611033565b5b6000600183610100610fdc91906118fa565b610fe69190611a72565b905085518386820101858319825116178152815185880111156110095784870182525b505085915050949350505050565b6000818311156110295782905061102d565b8190505b92915050565b6000826000015190506110468383610bf0565b506110518382610ddf565b50505050565b82805461106390611bc6565b90600052602060002090601f01602090048101928261108557600085556110cc565b82601f1061109e57805160ff19168380011785556110cc565b828001600101855582156110cc579182015b828111156110cb5782518255916020019190600101906110b0565b5b5090506110d99190611164565b5090565b6040518060a0016040528060008019168152602001600073ffffffffffffffffffffffffffffffffffffffff16815260200160007bffffffffffffffffffffffffffffffffffffffffffffffffffffffff191681526020016000815260200161114461114a565b81525090565b604051806040016040528060608152602001600081525090565b5b8082111561117d576000816000905550600101611165565b5090565b600061119461118f846117b7565b611792565b9050828152602081018484840111156111b0576111af611dc1565b5b6111bb848285611b5a565b509392505050565b6000815190506111d281611ec2565b92915050565b6000813590506111e781611ed9565b92915050565b600082601f83011261120257611201611dbc565b5b8135611212848260208601611181565b91505092915050565b60008135905061122a81611ef0565b92915050565b60006020828403121561124657611245611dcb565b5b6000611254848285016111c3565b91505092915050565b60006020828403121561127357611272611dcb565b5b6000611281848285016111d8565b91505092915050565b600080604083850312156112a1576112a0611dcb565b5b60006112af858286016111d8565b92505060206112c08582860161121b565b9150509250929050565b6000806000606084860312156112e3576112e2611dcb565b5b600084013567ffffffffffffffff81111561130157611300611dc6565b5b61130d868287016111ed565b935050602061131e8682870161121b565b925050604061132f8682870161121b565b9150509250925092565b60006020828403121561134f5761134e611dcb565b5b600061135d8482850161121b565b91505092915050565b6000806040838503121561137d5761137c611dcb565b5b600061138b8582860161121b565b925050602083013567ffffffffffffffff8111156113ac576113ab611dc6565b5b6113b8858286016111ed565b9150509250929050565b6113cb81611aa6565b82525050565b6113da81611ac4565b82525050565b6113e981611ace565b82525050565b60006113fa826117e8565b61140481856117fe565b9350611414818560208601611b69565b61141d81611dd0565b840191505092915050565b61143961143482611b24565b611c72565b82525050565b600061144a826117f3565b611454818561180f565b9350611464818560208601611b69565b61146d81611dd0565b840191505092915050565b600061148560148361180f565b915061149082611dfb565b602082019050919050565b60006114a860238361180f565b91506114b382611e24565b604082019050919050565b60006114cb60288361180f565b91506114d682611e73565b604082019050919050565b6114ea81611b1a565b82525050565b6115016114fc82611b1a565b611c96565b82525050565b60006115138285611428565b60148201915061152382846114f0565b6020820191508190509392505050565b600061010082019050611549600083018b6113c2565b611556602083018a6114e1565b61156360408301896113d1565b61157060608301886113c2565b61157d60808301876113e0565b61158a60a08301866114e1565b61159760c08301856114e1565b81810360e08301526115a981846113ef565b90509998505050505050505050565b60006060820190506115cd60008301866113c2565b6115da60208301856114e1565b81810360408301526115ec81846113ef565b9050949350505050565b600060208201905061160b60008301846113d1565b92915050565b6000602082019050818103600083015261162a81611478565b9050919050565b6000602082019050818103600083015261164a8161149b565b9050919050565b6000602082019050818103600083015261166a816114be565b9050919050565b600060208201905061168660008301846114e1565b92915050565b60006040820190506116a160008301856114e1565b81810360208301526116b3818461143f565b90509392505050565b60006080820190506116d160008301876114e1565b81810360208301526116e3818661143f565b90506116f260408301856114e1565b6116ff60608301846114e1565b95945050505050565b600060a08201905061171d60008301886114e1565b818103602083015261172f818761143f565b905061173e60408301866114e1565b61174b60608301856114e1565b818103608083015261175d818461143f565b90509695505050505050565b600060408201905061177e60008301856114e1565b61178b60208301846114e1565b9392505050565b600061179c6117ad565b90506117a88282611bf8565b919050565b6000604051905090565b600067ffffffffffffffff8211156117d2576117d1611d8d565b5b6117db82611dd0565b9050602081019050919050565b600081519050919050565b600081519050919050565b600082825260208201905092915050565b600082825260208201905092915050565b600061182b82611b1a565b915061183683611b1a565b9250827fffffffffffffffffffffffffffffffffffffffffffffffffffffffffffffffff0382111561186b5761186a611cd1565b5b828201905092915050565b600061188182611b1a565b915061188c83611b1a565b92508261189c5761189b611d00565b5b828204905092915050565b6000808291508390505b60018511156118f1578086048111156118cd576118cc611cd1565b5b60018516156118dc5780820291505b80810290506118ea85611dee565b94506118b1565b94509492505050565b600061190582611b1a565b915061191083611b1a565b925061193d7fffffffffffffffffffffffffffffffffffffffffffffffffffffffffffffffff8484611945565b905092915050565b6000826119555760019050611a11565b816119635760009050611a11565b81600181146119795760028114611983576119b2565b6001915050611a11565b60ff84111561199557611994611cd1565b5b8360020a9150848211156119ac576119ab611cd1565b5b50611a11565b5060208310610133831016604e8410600b84101617156119e75782820a9050838111156119e2576119e1611cd1565b5b611a11565b6119f484848460016118a7565b92509050818404811115611a0b57611a0a611cd1565b5b81810290505b9392505050565b6000611a2382611b1a565b9150611a2e83611b1a565b9250817fffffffffffffffffffffffffffffffffffffffffffffffffffffffffffffffff0483118215151615611a6757611a66611cd1565b5b828202905092915050565b6000611a7d82611b1a565b9150611a8883611b1a565b925082821015611a9b57611a9a611cd1565b5b828203905092915050565b6000611ab182611afa565b9050919050565b60008115159050919050565b6000819050919050565b60007fffffffff0000000000000000000000000000000000000000000000000000000082169050919050565b600073ffffffffffffffffffffffffffffffffffffffff82169050919050565b6000819050919050565b6000611b2f82611b36565b9050919050565b6000611b4182611b48565b9050919050565b6000611b5382611afa565b9050919050565b82818337600083830152505050565b60005b83811015611b87578082015181840152602081019050611b6c565b83811115611b96576000848401525b50505050565b6000611ba782611b1a565b91506000821415611bbb57611bba611cd1565b5b600182039050919050565b60006002820490506001821680611bde57607f821691505b60208210811415611bf257611bf1611d2f565b5b50919050565b611c0182611dd0565b810181811067ffffffffffffffff82111715611c2057611c1f611d8d565b5b80604052505050565b6000611c3482611b1a565b91507fffffffffffffffffffffffffffffffffffffffffffffffffffffffffffffffff821415611c6757611c66611cd1565b5b600182019050919050565b6000611c7d82611c84565b9050919050565b6000611c8f82611de1565b9050919050565b6000819050919050565b6000611cab82611b1a565b9150611cb683611b1a565b925082611cc657611cc5611d00565b5b828206905092915050565b7f4e487b7100000000000000000000000000000000000000000000000000000000600052601160045260246000fd5b7f4e487b7100000000000000000000000000000000000000000000000000000000600052601260045260246000fd5b7f4e487b7100000000000000000000000000000000000000000000000000000000600052602260045260246000fd5b7f4e487b7100000000000000000000000000000000000000000000000000000000600052603260045260246000fd5b7f4e487b7100000000000000000000000000000000000000000000000000000000600052604160045260246000fd5b600080fd5b600080fd5b600080fd5b600080fd5b6000601f19601f8301169050919050565b60008160601b9050919050565b60008160011c9050919050565b7f426174636820646f6573206e6f74206578697374000000000000000000000000600082015250565b7f756e61626c6520746f207472616e73666572416e6443616c6c20746f206f726160008201527f636c650000000000000000000000000000000000000000000000000000000000602082015250565b7f536f75726365206d75737420626520746865206f7261636c65206f662074686560008201527f2072657175657374000000000000000000000000000000000000000000000000602082015250565b611ecb81611ab8565b8114611ed657600080fd5b50565b611ee281611ac4565b8114611eed57600080fd5b50565b611ef981611b1a565b8114611f0457600080fd5b5056fea2646970667358221220e3469e9334af6a195b83a32059764e9278b4e20f2cb8a88dce262287e9d0f4e164736f6c63430008070033","opcodes":"PUSH1 0x80 PUSH1 0x40 MSTORE PUSH1 0x1 PUSH1 0x4 SSTORE PUSH1 0x1E PUSH1 0x9 SSTORE CALLVALUE DUP1 ISZERO PUSH2 0x1A JUMPI PUSH1 0x0 DUP1 REVERT JUMPDEST POP PUSH20 0x7AFE30CB3E53DBA6801AA0EA647A0B1099ABD5E6 PUSH1 0xA PUSH1 0x0 PUSH2 0x100 EXP DUP2 SLOAD DUP2 PUSH20 0xFFFFFFFFFFFFFFFFFFFFFFFFFFFFFFFFFFFFFFFF MUL NOT AND SWAP1 DUP4 PUSH20 0xFFFFFFFFFFFFFFFFFFFFFFFFFFFFFFFFFFFFFFFF AND MUL OR SWAP1 SSTORE POP PUSH2 0x93 PUSH20 0x779877A7B0D9E8603169DDBD7836E478B4624789 PUSH2 0xFF PUSH1 0x20 SHL PUSH1 0x20 SHR JUMP JUMPDEST PUSH2 0xC4 PUSH1 0xA PUSH1 0x0 SWAP1 SLOAD SWAP1 PUSH2 0x100 EXP SWAP1 DIV PUSH20 0xFFFFFFFFFFFFFFFFFFFFFFFFFFFFFFFFFFFFFFFF AND PUSH2 0x143 PUSH1 0x20 SHL PUSH1 0x20 SHR JUMP JUMPDEST PUSH32 0x6435323730643163333131393431643062303862656164323166656137373437 PUSH1 0xB DUP2 SWAP1 SSTORE POP PUSH8 0x16345785D8A0000 PUSH1 0xC DUP2 SWAP1 SSTORE POP PUSH2 0x187 JUMP JUMPDEST DUP1 PUSH1 0x2 PUSH1 0x0 PUSH2 0x100 EXP DUP2 SLOAD DUP2 PUSH20 0xFFFFFFFFFFFFFFFFFFFFFFFFFFFFFFFFFFFFFFFF MUL NOT AND SWAP1 DUP4 PUSH20 0xFFFFFFFFFFFFFFFFFFFFFFFFFFFFFFFFFFFFFFFF AND MUL OR SWAP1 SSTORE POP POP JUMP JUMPDEST DUP1 PUSH1 0x3 PUSH1 0x0 PUSH2 0x100 EXP DUP2 SLOAD DUP2 PUSH20 0xFFFFFFFFFFFFFFFFFFFFFFFFFFFFFFFFFFFFFFFF MUL NOT AND SWAP1 DUP4 PUSH20 0xFFFFFFFFFFFFFFFFFFFFFFFFFFFFFFFFFFFFFFFF AND MUL OR SWAP1 SSTORE POP POP JUMP JUMPDEST PUSH2 0x1F3D DUP1 PUSH2 0x196 PUSH1 0x0 CODECOPY PUSH1 0x0 RETURN INVALID PUSH1 0x80 PUSH1 0x40 MSTORE CALLVALUE DUP1 ISZERO PUSH2 0x10 JUMPI PUSH1 0x0 DUP1 REVERT JUMPDEST POP PUSH1 0x4 CALLDATASIZE LT PUSH2 0x7D JUMPI PUSH1 0x0 CALLDATALOAD PUSH1 0xE0 SHR DUP1 PUSH4 0x8207FD85 GT PUSH2 0x5B JUMPI DUP1 PUSH4 0x8207FD85 EQ PUSH2 0xFE JUMPI DUP1 PUSH4 0x8462A7F8 EQ PUSH2 0x11A JUMPI DUP1 PUSH4 0xB32C4D8D EQ PUSH2 0x138 JUMPI DUP1 PUSH4 0xE7F25C6E EQ PUSH2 0x16C JUMPI PUSH2 0x7D JUMP JUMPDEST DUP1 PUSH4 0x39E25BAD EQ PUSH2 0x82 JUMPI DUP1 PUSH4 0x4357855E EQ PUSH2 0xB2 JUMPI DUP1 PUSH4 0x496781D0 EQ PUSH2 0xCE JUMPI JUMPDEST PUSH1 0x0 DUP1 REVERT JUMPDEST PUSH2 0x9C PUSH1 0x4 DUP1 CALLDATASIZE SUB DUP2 ADD SWAP1 PUSH2 0x97 SWAP2 SWAP1 PUSH2 0x125D JUMP JUMPDEST PUSH2 0x188 JUMP JUMPDEST PUSH1 0x40 MLOAD PUSH2 0xA9 SWAP2 SWAP1 PUSH2 0x1671 JUMP JUMPDEST PUSH1 0x40 MLOAD DUP1 SWAP2 SUB SWAP1 RETURN JUMPDEST PUSH2 0xCC PUSH1 0x4 DUP1 CALLDATASIZE SUB DUP2 ADD SWAP1 PUSH2 0xC7 SWAP2 SWAP1 PUSH2 0x128A JUMP JUMPDEST PUSH2 0x1A0 JUMP JUMPDEST STOP JUMPDEST PUSH2 0xE8 PUSH1 0x4 DUP1 CALLDATASIZE SUB DUP2 ADD SWAP1 PUSH2 0xE3 SWAP2 SWAP1 PUSH2 0x1339 JUMP JUMPDEST PUSH2 0x307 JUMP JUMPDEST PUSH1 0x40 MLOAD PUSH2 0xF5 SWAP2 SWAP1 PUSH2 0x15F6 JUMP JUMPDEST PUSH1 0x40 MLOAD DUP1 SWAP2 SUB SWAP1 RETURN JUMPDEST PUSH2 0x118 PUSH1 0x4 DUP1 CALLDATASIZE SUB DUP2 ADD SWAP1 PUSH2 0x113 SWAP2 SWAP1 PUSH2 0x1366 JUMP JUMPDEST PUSH2 0x3C1 JUMP JUMPDEST STOP JUMPDEST PUSH2 0x122 PUSH2 0x46D JUMP JUMPDEST PUSH1 0x40 MLOAD PUSH2 0x12F SWAP2 SWAP1 PUSH2 0x1671 JUMP JUMPDEST PUSH1 0x40 MLOAD DUP1 SWAP2 SUB SWAP1 RETURN JUMPDEST PUSH2 0x152 PUSH1 0x4 DUP1 CALLDATASIZE SUB DUP2 ADD SWAP1 PUSH2 0x14D SWAP2 SWAP1 PUSH2 0x1339 JUMP JUMPDEST PUSH2 0x473 JUMP JUMPDEST PUSH1 0x40 MLOAD PUSH2 0x163 SWAP6 SWAP5 SWAP4 SWAP3 SWAP2 SWAP1 PUSH2 0x1708 JUMP JUMPDEST PUSH1 0x40 MLOAD DUP1 SWAP2 SUB SWAP1 RETURN JUMPDEST PUSH2 0x186 PUSH1 0x4 DUP1 CALLDATASIZE SUB DUP2 ADD SWAP1 PUSH2 0x181 SWAP2 SWAP1 PUSH2 0x12CA JUMP JUMPDEST PUSH2 0x5B9 JUMP JUMPDEST STOP JUMPDEST PUSH1 0x7 PUSH1 0x20 MSTORE DUP1 PUSH1 0x0 MSTORE PUSH1 0x40 PUSH1 0x0 KECCAK256 PUSH1 0x0 SWAP2 POP SWAP1 POP SLOAD DUP2 JUMP JUMPDEST DUP2 PUSH1 0x5 PUSH1 0x0 DUP3 DUP2 MSTORE PUSH1 0x20 ADD SWAP1 DUP2 MSTORE PUSH1 0x20 ADD PUSH1 0x0 KECCAK256 PUSH1 0x0 SWAP1 SLOAD SWAP1 PUSH2 0x100 EXP SWAP1 DIV PUSH20 0xFFFFFFFFFFFFFFFFFFFFFFFFFFFFFFFFFFFFFFFF AND PUSH20 0xFFFFFFFFFFFFFFFFFFFFFFFFFFFFFFFFFFFFFFFF AND CALLER PUSH20 0xFFFFFFFFFFFFFFFFFFFFFFFFFFFFFFFFFFFFFFFF AND EQ PUSH2 0x242 JUMPI PUSH1 0x40 MLOAD PUSH32 0x8C379A000000000000000000000000000000000000000000000000000000000 DUP2 MSTORE PUSH1 0x4 ADD PUSH2 0x239 SWAP1 PUSH2 0x1651 JUMP JUMPDEST PUSH1 0x40 MLOAD DUP1 SWAP2 SUB SWAP1 REVERT JUMPDEST PUSH1 0x5 PUSH1 0x0 DUP3 DUP2 MSTORE PUSH1 0x20 ADD SWAP1 DUP2 MSTORE PUSH1 0x20 ADD PUSH1 0x0 KECCAK256 PUSH1 0x0 PUSH2 0x100 EXP DUP2 SLOAD SWAP1 PUSH20 0xFFFFFFFFFFFFFFFFFFFFFFFFFFFFFFFFFFFFFFFF MUL NOT AND SWAP1 SSTORE DUP1 PUSH32 0x7CC135E0CEBB02C3480AE5D74D377283180A2601F8F644EDF7987B009316C63A PUSH1 0x40 MLOAD PUSH1 0x40 MLOAD DUP1 SWAP2 SUB SWAP1 LOG2 PUSH1 0x0 PUSH1 0x7 PUSH1 0x0 DUP6 DUP2 MSTORE PUSH1 0x20 ADD SWAP1 DUP2 MSTORE PUSH1 0x20 ADD PUSH1 0x0 KECCAK256 SLOAD SWAP1 POP PUSH1 0x9 SLOAD DUP4 GT ISZERO PUSH2 0x301 JUMPI PUSH32 0xC63B563CB63FFAD76BBC9E8CEAAD18081512169728708708CE00E240E22C8A01 DUP2 DUP5 PUSH1 0x40 MLOAD PUSH2 0x2F8 SWAP3 SWAP2 SWAP1 PUSH2 0x1769 JUMP JUMPDEST PUSH1 0x40 MLOAD DUP1 SWAP2 SUB SWAP1 LOG1 JUMPDEST POP POP POP POP JUMP JUMPDEST PUSH1 0x0 DUP1 PUSH2 0x31E PUSH1 0xB SLOAD ADDRESS PUSH4 0x4357855E PUSH1 0xE0 SHL PUSH2 0x6E3 JUMP JUMPDEST SWAP1 POP PUSH2 0x372 PUSH1 0x40 MLOAD DUP1 PUSH1 0x40 ADD PUSH1 0x40 MSTORE DUP1 PUSH1 0x7 DUP2 MSTORE PUSH1 0x20 ADD PUSH32 0x6261746368496400000000000000000000000000000000000000000000000000 DUP2 MSTORE POP PUSH2 0x362 DUP6 PUSH2 0x714 JUMP JUMPDEST DUP4 PUSH2 0x878 SWAP1 SWAP3 SWAP2 SWAP1 PUSH4 0xFFFFFFFF AND JUMP JUMPDEST PUSH2 0x3A1 PUSH1 0xA PUSH1 0x0 SWAP1 SLOAD SWAP1 PUSH2 0x100 EXP SWAP1 DIV PUSH20 0xFFFFFFFFFFFFFFFFFFFFFFFFFFFFFFFFFFFFFFFF AND DUP3 PUSH1 0xC SLOAD PUSH2 0x8AB JUMP JUMPDEST SWAP2 POP DUP3 PUSH1 0x7 PUSH1 0x0 DUP5 DUP2 MSTORE PUSH1 0x20 ADD SWAP1 DUP2 MSTORE PUSH1 0x20 ADD PUSH1 0x0 KECCAK256 DUP2 SWAP1 SSTORE POP POP SWAP2 SWAP1 POP JUMP JUMPDEST PUSH1 0x8 SLOAD DUP3 LT PUSH2 0x405 JUMPI PUSH1 0x40 MLOAD PUSH32 0x8C379A000000000000000000000000000000000000000000000000000000000 DUP2 MSTORE PUSH1 0x4 ADD PUSH2 0x3FC SWAP1 PUSH2 0x1611 JUMP JUMPDEST PUSH1 0x40 MLOAD DUP1 SWAP2 SUB SWAP1 REVERT JUMPDEST DUP1 PUSH1 0x6 PUSH1 0x0 DUP5 DUP2 MSTORE PUSH1 0x20 ADD SWAP1 DUP2 MSTORE PUSH1 0x20 ADD PUSH1 0x0 KECCAK256 PUSH1 0x4 ADD SWAP1 DUP1 MLOAD SWAP1 PUSH1 0x20 ADD SWAP1 PUSH2 0x42F SWAP3 SWAP2 SWAP1 PUSH2 0x1057 JUMP JUMPDEST POP PUSH32 0xCC1163B9F5B7A48FEB09E3106D97FE333E2B9B8D72544E2F9D4470F483E5214E DUP3 DUP3 PUSH1 0x40 MLOAD PUSH2 0x461 SWAP3 SWAP2 SWAP1 PUSH2 0x168C JUMP JUMPDEST PUSH1 0x40 MLOAD DUP1 SWAP2 SUB SWAP1 LOG1 POP POP JUMP JUMPDEST PUSH1 0x8 SLOAD DUP2 JUMP JUMPDEST PUSH1 0x6 PUSH1 0x20 MSTORE DUP1 PUSH1 0x0 MSTORE PUSH1 0x40 PUSH1 0x0 KECCAK256 PUSH1 0x0 SWAP2 POP SWAP1 POP DUP1 PUSH1 0x0 ADD SLOAD SWAP1 DUP1 PUSH1 0x1 ADD DUP1 SLOAD PUSH2 0x49C SWAP1 PUSH2 0x1BC6 JUMP JUMPDEST DUP1 PUSH1 0x1F ADD PUSH1 0x20 DUP1 SWAP2 DIV MUL PUSH1 0x20 ADD PUSH1 0x40 MLOAD SWAP1 DUP2 ADD PUSH1 0x40 MSTORE DUP1 SWAP3 SWAP2 SWAP1 DUP2 DUP2 MSTORE PUSH1 0x20 ADD DUP3 DUP1 SLOAD PUSH2 0x4C8 SWAP1 PUSH2 0x1BC6 JUMP JUMPDEST DUP1 ISZERO PUSH2 0x515 JUMPI DUP1 PUSH1 0x1F LT PUSH2 0x4EA JUMPI PUSH2 0x100 DUP1 DUP4 SLOAD DIV MUL DUP4 MSTORE SWAP2 PUSH1 0x20 ADD SWAP2 PUSH2 0x515 JUMP JUMPDEST DUP3 ADD SWAP2 SWAP1 PUSH1 0x0 MSTORE PUSH1 0x20 PUSH1 0x0 KECCAK256 SWAP1 JUMPDEST DUP2 SLOAD DUP2 MSTORE SWAP1 PUSH1 0x1 ADD SWAP1 PUSH1 0x20 ADD DUP1 DUP4 GT PUSH2 0x4F8 JUMPI DUP3 SWAP1 SUB PUSH1 0x1F AND DUP3 ADD SWAP2 JUMPDEST POP POP POP POP POP SWAP1 DUP1 PUSH1 0x2 ADD SLOAD SWAP1 DUP1 PUSH1 0x3 ADD SLOAD SWAP1 DUP1 PUSH1 0x4 ADD DUP1 SLOAD PUSH2 0x536 SWAP1 PUSH2 0x1BC6 JUMP JUMPDEST DUP1 PUSH1 0x1F ADD PUSH1 0x20 DUP1 SWAP2 DIV MUL PUSH1 0x20 ADD PUSH1 0x40 MLOAD SWAP1 DUP2 ADD PUSH1 0x40 MSTORE DUP1 SWAP3 SWAP2 SWAP1 DUP2 DUP2 MSTORE PUSH1 0x20 ADD DUP3 DUP1 SLOAD PUSH2 0x562 SWAP1 PUSH2 0x1BC6 JUMP JUMPDEST DUP1 ISZERO PUSH2 0x5AF JUMPI DUP1 PUSH1 0x1F LT PUSH2 0x584 JUMPI PUSH2 0x100 DUP1 DUP4 SLOAD DIV MUL DUP4 MSTORE SWAP2 PUSH1 0x20 ADD SWAP2 PUSH2 0x5AF JUMP JUMPDEST DUP3 ADD SWAP2 SWAP1 PUSH1 0x0 MSTORE PUSH1 0x20 PUSH1 0x0 KECCAK256 SWAP1 JUMPDEST DUP2 SLOAD DUP2 MSTORE SWAP1 PUSH1 0x1 ADD SWAP1 PUSH1 0x20 ADD DUP1 DUP4 GT PUSH2 0x592 JUMPI DUP3 SWAP1 SUB PUSH1 0x1F AND DUP3 ADD SWAP2 JUMPDEST POP POP POP POP POP SWAP1 POP DUP6 JUMP JUMPDEST PUSH1 0x40 MLOAD DUP1 PUSH1 0xA0 ADD PUSH1 0x40 MSTORE DUP1 PUSH1 0x8 SLOAD DUP2 MSTORE PUSH1 0x20 ADD DUP5 DUP2 MSTORE PUSH1 0x20 ADD DUP4 DUP2 MSTORE PUSH1 0x20 ADD DUP3 DUP2 MSTORE PUSH1 0x20 ADD PUSH1 0x40 MLOAD DUP1 PUSH1 0x40 ADD PUSH1 0x40 MSTORE DUP1 PUSH1 0x7 DUP2 MSTORE PUSH1 0x20 ADD PUSH32 0x4372656174656400000000000000000000000000000000000000000000000000 DUP2 MSTORE POP DUP2 MSTORE POP PUSH1 0x6 PUSH1 0x0 PUSH1 0x8 SLOAD DUP2 MSTORE PUSH1 0x20 ADD SWAP1 DUP2 MSTORE PUSH1 0x20 ADD PUSH1 0x0 KECCAK256 PUSH1 0x0 DUP3 ADD MLOAD DUP2 PUSH1 0x0 ADD SSTORE PUSH1 0x20 DUP3 ADD MLOAD DUP2 PUSH1 0x1 ADD SWAP1 DUP1 MLOAD SWAP1 PUSH1 0x20 ADD SWAP1 PUSH2 0x652 SWAP3 SWAP2 SWAP1 PUSH2 0x1057 JUMP JUMPDEST POP PUSH1 0x40 DUP3 ADD MLOAD DUP2 PUSH1 0x2 ADD SSTORE PUSH1 0x60 DUP3 ADD MLOAD DUP2 PUSH1 0x3 ADD SSTORE PUSH1 0x80 DUP3 ADD MLOAD DUP2 PUSH1 0x4 ADD SWAP1 DUP1 MLOAD SWAP1 PUSH1 0x20 ADD SWAP1 PUSH2 0x683 SWAP3 SWAP2 SWAP1 PUSH2 0x1057 JUMP JUMPDEST POP SWAP1 POP POP PUSH32 0xCFC3A8401549578CDC3A4450882D09189A820561EBADB683B484BC6BD62DD4EF PUSH1 0x8 SLOAD DUP5 DUP5 DUP5 PUSH1 0x40 MLOAD PUSH2 0x6BE SWAP5 SWAP4 SWAP3 SWAP2 SWAP1 PUSH2 0x16BC JUMP JUMPDEST PUSH1 0x40 MLOAD DUP1 SWAP2 SUB SWAP1 LOG1 PUSH1 0x8 PUSH1 0x0 DUP2 SLOAD DUP1 SWAP3 SWAP2 SWAP1 PUSH2 0x6D9 SWAP1 PUSH2 0x1C29 JUMP JUMPDEST SWAP2 SWAP1 POP SSTORE POP POP POP POP JUMP JUMPDEST PUSH2 0x6EB PUSH2 0x10DD JUMP JUMPDEST PUSH2 0x6F3 PUSH2 0x10DD JUMP JUMPDEST PUSH2 0x70A DUP6 DUP6 DUP6 DUP5 PUSH2 0x977 SWAP1 SWAP4 SWAP3 SWAP2 SWAP1 PUSH4 0xFFFFFFFF AND JUMP JUMPDEST SWAP2 POP POP SWAP4 SWAP3 POP POP POP JUMP JUMPDEST PUSH1 0x60 PUSH1 0x0 DUP3 EQ ISZERO PUSH2 0x75C JUMPI PUSH1 0x40 MLOAD DUP1 PUSH1 0x40 ADD PUSH1 0x40 MSTORE DUP1 PUSH1 0x1 DUP2 MSTORE PUSH1 0x20 ADD PUSH32 0x3000000000000000000000000000000000000000000000000000000000000000 DUP2 MSTORE POP SWAP1 POP PUSH2 0x873 JUMP JUMPDEST PUSH1 0x0 DUP3 SWAP1 POP PUSH1 0x0 JUMPDEST PUSH1 0x0 DUP3 EQ PUSH2 0x78E JUMPI DUP1 DUP1 PUSH2 0x777 SWAP1 PUSH2 0x1C29 JUMP JUMPDEST SWAP2 POP POP PUSH1 0xA DUP3 PUSH2 0x787 SWAP2 SWAP1 PUSH2 0x1876 JUMP JUMPDEST SWAP2 POP PUSH2 0x764 JUMP JUMPDEST PUSH1 0x0 DUP2 PUSH8 0xFFFFFFFFFFFFFFFF DUP2 GT ISZERO PUSH2 0x7AA JUMPI PUSH2 0x7A9 PUSH2 0x1D8D JUMP JUMPDEST JUMPDEST PUSH1 0x40 MLOAD SWAP1 DUP1 DUP3 MSTORE DUP1 PUSH1 0x1F ADD PUSH1 0x1F NOT AND PUSH1 0x20 ADD DUP3 ADD PUSH1 0x40 MSTORE DUP1 ISZERO PUSH2 0x7DC JUMPI DUP2 PUSH1 0x20 ADD PUSH1 0x1 DUP3 MUL DUP1 CALLDATASIZE DUP4 CALLDATACOPY DUP1 DUP3 ADD SWAP2 POP POP SWAP1 POP JUMPDEST POP SWAP1 POP PUSH1 0x0 DUP3 SWAP1 POP JUMPDEST PUSH1 0x0 DUP7 EQ PUSH2 0x86B JUMPI PUSH1 0xA DUP7 PUSH2 0x7FA SWAP2 SWAP1 PUSH2 0x1CA0 JUMP JUMPDEST PUSH1 0x30 PUSH2 0x806 SWAP2 SWAP1 PUSH2 0x1820 JUMP JUMPDEST PUSH1 0xF8 SHL DUP3 DUP3 PUSH2 0x814 SWAP1 PUSH2 0x1B9C JUMP JUMPDEST SWAP3 POP DUP3 DUP2 MLOAD DUP2 LT PUSH2 0x828 JUMPI PUSH2 0x827 PUSH2 0x1D5E JUMP JUMPDEST JUMPDEST PUSH1 0x20 ADD ADD SWAP1 PUSH31 0xFFFFFFFFFFFFFFFFFFFFFFFFFFFFFFFFFFFFFFFFFFFFFFFFFFFFFFFFFFFFFF NOT AND SWAP1 DUP2 PUSH1 0x0 BYTE SWAP1 MSTORE8 POP PUSH1 0xA DUP7 PUSH2 0x864 SWAP2 SWAP1 PUSH2 0x1876 JUMP JUMPDEST SWAP6 POP PUSH2 0x7E5 JUMP JUMPDEST DUP2 SWAP5 POP POP POP POP POP JUMPDEST SWAP2 SWAP1 POP JUMP JUMPDEST PUSH2 0x88F DUP3 DUP5 PUSH1 0x80 ADD MLOAD PUSH2 0xA27 SWAP1 SWAP2 SWAP1 PUSH4 0xFFFFFFFF AND JUMP JUMPDEST PUSH2 0x8A6 DUP2 DUP5 PUSH1 0x80 ADD MLOAD PUSH2 0xA27 SWAP1 SWAP2 SWAP1 PUSH4 0xFFFFFFFF AND JUMP JUMPDEST POP POP POP JUMP JUMPDEST PUSH1 0x0 DUP1 PUSH1 0x4 SLOAD SWAP1 POP PUSH1 0x1 DUP2 PUSH2 0x8C0 SWAP2 SWAP1 PUSH2 0x1820 JUMP JUMPDEST PUSH1 0x4 DUP2 SWAP1 SSTORE POP PUSH1 0x0 PUSH4 0x40429946 PUSH1 0xE0 SHL PUSH1 0x0 DUP1 DUP8 PUSH1 0x0 ADD MLOAD ADDRESS DUP10 PUSH1 0x40 ADD MLOAD DUP8 PUSH1 0x1 DUP13 PUSH1 0x80 ADD MLOAD PUSH1 0x0 ADD MLOAD PUSH1 0x40 MLOAD PUSH1 0x24 ADD PUSH2 0x901 SWAP9 SWAP8 SWAP7 SWAP6 SWAP5 SWAP4 SWAP3 SWAP2 SWAP1 PUSH2 0x1533 JUMP JUMPDEST PUSH1 0x40 MLOAD PUSH1 0x20 DUP2 DUP4 SUB SUB DUP2 MSTORE SWAP1 PUSH1 0x40 MSTORE SWAP1 PUSH28 0xFFFFFFFFFFFFFFFFFFFFFFFFFFFFFFFFFFFFFFFFFFFFFFFFFFFFFFFF NOT AND PUSH1 0x20 DUP3 ADD DUP1 MLOAD PUSH28 0xFFFFFFFFFFFFFFFFFFFFFFFFFFFFFFFFFFFFFFFFFFFFFFFFFFFFFFFF DUP4 DUP2 DUP4 AND OR DUP4 MSTORE POP POP POP POP SWAP1 POP PUSH2 0x96C DUP7 DUP4 DUP7 DUP5 PUSH2 0xA4C JUMP JUMPDEST SWAP3 POP POP POP SWAP4 SWAP3 POP POP POP JUMP JUMPDEST PUSH2 0x97F PUSH2 0x10DD JUMP JUMPDEST PUSH2 0x98F DUP6 PUSH1 0x80 ADD MLOAD PUSH2 0x100 PUSH2 0xBF0 JUMP JUMPDEST POP DUP4 DUP6 PUSH1 0x0 ADD DUP2 DUP2 MSTORE POP POP DUP3 DUP6 PUSH1 0x20 ADD SWAP1 PUSH20 0xFFFFFFFFFFFFFFFFFFFFFFFFFFFFFFFFFFFFFFFF AND SWAP1 DUP2 PUSH20 0xFFFFFFFFFFFFFFFFFFFFFFFFFFFFFFFFFFFFFFFF AND DUP2 MSTORE POP POP DUP2 DUP6 PUSH1 0x40 ADD SWAP1 PUSH28 0xFFFFFFFFFFFFFFFFFFFFFFFFFFFFFFFFFFFFFFFFFFFFFFFFFFFFFFFF NOT AND SWAP1 DUP2 PUSH28 0xFFFFFFFFFFFFFFFFFFFFFFFFFFFFFFFFFFFFFFFFFFFFFFFFFFFFFFFF NOT AND DUP2 MSTORE POP POP DUP5 SWAP1 POP SWAP5 SWAP4 POP POP POP POP JUMP JUMPDEST PUSH2 0xA34 DUP3 PUSH1 0x3 DUP4 MLOAD PUSH2 0xC5A JUMP JUMPDEST PUSH2 0xA47 DUP2 DUP4 PUSH2 0xDDF SWAP1 SWAP2 SWAP1 PUSH4 0xFFFFFFFF AND JUMP JUMPDEST POP POP POP JUMP JUMPDEST PUSH1 0x0 ADDRESS DUP5 PUSH1 0x40 MLOAD PUSH1 0x20 ADD PUSH2 0xA61 SWAP3 SWAP2 SWAP1 PUSH2 0x1507 JUMP JUMPDEST PUSH1 0x40 MLOAD PUSH1 0x20 DUP2 DUP4 SUB SUB DUP2 MSTORE SWAP1 PUSH1 0x40 MSTORE DUP1 MLOAD SWAP1 PUSH1 0x20 ADD KECCAK256 SWAP1 POP DUP5 PUSH1 0x5 PUSH1 0x0 DUP4 DUP2 MSTORE PUSH1 0x20 ADD SWAP1 DUP2 MSTORE PUSH1 0x20 ADD PUSH1 0x0 KECCAK256 PUSH1 0x0 PUSH2 0x100 EXP DUP2 SLOAD DUP2 PUSH20 0xFFFFFFFFFFFFFFFFFFFFFFFFFFFFFFFFFFFFFFFF MUL NOT AND SWAP1 DUP4 PUSH20 0xFFFFFFFFFFFFFFFFFFFFFFFFFFFFFFFFFFFFFFFF AND MUL OR SWAP1 SSTORE POP DUP1 PUSH32 0xB5E6E01E79F91267DC17B4E6314D5D4D03593D2CEEE0FBB452B750BD70EA5AF9 PUSH1 0x40 MLOAD PUSH1 0x40 MLOAD DUP1 SWAP2 SUB SWAP1 LOG2 PUSH1 0x2 PUSH1 0x0 SWAP1 SLOAD SWAP1 PUSH2 0x100 EXP SWAP1 DIV PUSH20 0xFFFFFFFFFFFFFFFFFFFFFFFFFFFFFFFFFFFFFFFF AND PUSH20 0xFFFFFFFFFFFFFFFFFFFFFFFFFFFFFFFFFFFFFFFF AND PUSH4 0x4000AEA0 DUP7 DUP6 DUP6 PUSH1 0x40 MLOAD DUP5 PUSH4 0xFFFFFFFF AND PUSH1 0xE0 SHL DUP2 MSTORE PUSH1 0x4 ADD PUSH2 0xB57 SWAP4 SWAP3 SWAP2 SWAP1 PUSH2 0x15B8 JUMP JUMPDEST PUSH1 0x20 PUSH1 0x40 MLOAD DUP1 DUP4 SUB DUP2 PUSH1 0x0 DUP8 DUP1 EXTCODESIZE ISZERO DUP1 ISZERO PUSH2 0xB71 JUMPI PUSH1 0x0 DUP1 REVERT JUMPDEST POP GAS CALL ISZERO DUP1 ISZERO PUSH2 0xB85 JUMPI RETURNDATASIZE PUSH1 0x0 DUP1 RETURNDATACOPY RETURNDATASIZE PUSH1 0x0 REVERT JUMPDEST POP POP POP POP PUSH1 0x40 MLOAD RETURNDATASIZE PUSH1 0x1F NOT PUSH1 0x1F DUP3 ADD AND DUP3 ADD DUP1 PUSH1 0x40 MSTORE POP DUP2 ADD SWAP1 PUSH2 0xBA9 SWAP2 SWAP1 PUSH2 0x1230 JUMP JUMPDEST PUSH2 0xBE8 JUMPI PUSH1 0x40 MLOAD PUSH32 0x8C379A000000000000000000000000000000000000000000000000000000000 DUP2 MSTORE PUSH1 0x4 ADD PUSH2 0xBDF SWAP1 PUSH2 0x1631 JUMP JUMPDEST PUSH1 0x40 MLOAD DUP1 SWAP2 SUB SWAP1 REVERT JUMPDEST SWAP5 SWAP4 POP POP POP POP JUMP JUMPDEST PUSH2 0xBF8 PUSH2 0x114A JUMP JUMPDEST PUSH1 0x0 PUSH1 0x20 DUP4 PUSH2 0xC07 SWAP2 SWAP1 PUSH2 0x1CA0 JUMP JUMPDEST EQ PUSH2 0xC33 JUMPI PUSH1 0x20 DUP3 PUSH2 0xC19 SWAP2 SWAP1 PUSH2 0x1CA0 JUMP JUMPDEST PUSH1 0x20 PUSH2 0xC25 SWAP2 SWAP1 PUSH2 0x1A72 JUMP JUMPDEST DUP3 PUSH2 0xC30 SWAP2 SWAP1 PUSH2 0x1820 JUMP JUMPDEST SWAP2 POP JUMPDEST DUP2 DUP4 PUSH1 0x20 ADD DUP2 DUP2 MSTORE POP POP PUSH1 0x40 MLOAD DUP1 DUP5 MSTORE PUSH1 0x0 DUP2 MSTORE DUP3 DUP2 ADD PUSH1 0x20 ADD PUSH1 0x40 MSTORE POP DUP3 SWAP1 POP SWAP3 SWAP2 POP POP JUMP JUMPDEST PUSH1 0x17 DUP2 PUSH8 0xFFFFFFFFFFFFFFFF AND GT PUSH2 0xC91 JUMPI PUSH2 0xC8B DUP2 PUSH1 0x5 DUP5 PUSH1 0xFF AND SWAP1 SHL PUSH1 0xFF AND OR DUP5 PUSH2 0xE01 SWAP1 SWAP2 SWAP1 PUSH4 0xFFFFFFFF AND JUMP JUMPDEST POP PUSH2 0xDDA JUMP JUMPDEST PUSH1 0xFF DUP2 PUSH8 0xFFFFFFFFFFFFFFFF AND GT PUSH2 0xCE7 JUMPI PUSH2 0xCC0 PUSH1 0x18 PUSH1 0x5 DUP5 PUSH1 0xFF AND SWAP1 SHL OR DUP5 PUSH2 0xE01 SWAP1 SWAP2 SWAP1 PUSH4 0xFFFFFFFF AND JUMP JUMPDEST POP PUSH2 0xCE1 DUP2 PUSH8 0xFFFFFFFFFFFFFFFF AND PUSH1 0x1 DUP6 PUSH2 0xE21 SWAP1 SWAP3 SWAP2 SWAP1 PUSH4 0xFFFFFFFF AND JUMP JUMPDEST POP PUSH2 0xDD9 JUMP JUMPDEST PUSH2 0xFFFF DUP2 PUSH8 0xFFFFFFFFFFFFFFFF AND GT PUSH2 0xD3E JUMPI PUSH2 0xD17 PUSH1 0x19 PUSH1 0x5 DUP5 PUSH1 0xFF AND SWAP1 SHL OR DUP5 PUSH2 0xE01 SWAP1 SWAP2 SWAP1 PUSH4 0xFFFFFFFF AND JUMP JUMPDEST POP PUSH2 0xD38 DUP2 PUSH8 0xFFFFFFFFFFFFFFFF AND PUSH1 0x2 DUP6 PUSH2 0xE21 SWAP1 SWAP3 SWAP2 SWAP1 PUSH4 0xFFFFFFFF AND JUMP JUMPDEST POP PUSH2 0xDD8 JUMP JUMPDEST PUSH4 0xFFFFFFFF DUP2 PUSH8 0xFFFFFFFFFFFFFFFF AND GT PUSH2 0xD97 JUMPI PUSH2 0xD70 PUSH1 0x1A PUSH1 0x5 DUP5 PUSH1 0xFF AND SWAP1 SHL OR DUP5 PUSH2 0xE01 SWAP1 SWAP2 SWAP1 PUSH4 0xFFFFFFFF AND JUMP JUMPDEST POP PUSH2 0xD91 DUP2 PUSH8 0xFFFFFFFFFFFFFFFF AND PUSH1 0x4 DUP6 PUSH2 0xE21 SWAP1 SWAP3 SWAP2 SWAP1 PUSH4 0xFFFFFFFF AND JUMP JUMPDEST POP PUSH2 0xDD7 JUMP JUMPDEST PUSH2 0xDB4 PUSH1 0x1B PUSH1 0x5 DUP5 PUSH1 0xFF AND SWAP1 SHL OR DUP5 PUSH2 0xE01 SWAP1 SWAP2 SWAP1 PUSH4 0xFFFFFFFF AND JUMP JUMPDEST POP PUSH2 0xDD5 DUP2 PUSH8 0xFFFFFFFFFFFFFFFF AND PUSH1 0x8 DUP6 PUSH2 0xE21 SWAP1 SWAP3 SWAP2 SWAP1 PUSH4 0xFFFFFFFF AND JUMP JUMPDEST POP JUMPDEST JUMPDEST JUMPDEST JUMPDEST POP POP POP JUMP JUMPDEST PUSH2 0xDE7 PUSH2 0x114A JUMP JUMPDEST PUSH2 0xDF9 DUP4 DUP5 PUSH1 0x0 ADD MLOAD MLOAD DUP5 DUP6 MLOAD PUSH2 0xE43 JUMP JUMPDEST SWAP1 POP SWAP3 SWAP2 POP POP JUMP JUMPDEST PUSH2 0xE09 PUSH2 0x114A JUMP JUMPDEST PUSH2 0xE19 DUP4 DUP5 PUSH1 0x0 ADD MLOAD MLOAD DUP5 PUSH2 0xF32 JUMP JUMPDEST SWAP1 POP SWAP3 SWAP2 POP POP JUMP JUMPDEST PUSH2 0xE29 PUSH2 0x114A JUMP JUMPDEST PUSH2 0xE3A DUP5 DUP6 PUSH1 0x0 ADD MLOAD MLOAD DUP6 DUP6 PUSH2 0xF89 JUMP JUMPDEST SWAP1 POP SWAP4 SWAP3 POP POP POP JUMP JUMPDEST PUSH2 0xE4B PUSH2 0x114A JUMP JUMPDEST DUP3 MLOAD DUP3 GT ISZERO PUSH2 0xE59 JUMPI PUSH1 0x0 DUP1 REVERT JUMPDEST DUP5 PUSH1 0x20 ADD MLOAD DUP3 DUP6 PUSH2 0xE6A SWAP2 SWAP1 PUSH2 0x1820 JUMP JUMPDEST GT ISZERO PUSH2 0xE9F JUMPI PUSH2 0xE9E DUP6 PUSH1 0x2 PUSH2 0xE8F DUP9 PUSH1 0x20 ADD MLOAD DUP9 DUP8 PUSH2 0xE8A SWAP2 SWAP1 PUSH2 0x1820 JUMP JUMPDEST PUSH2 0x1017 JUMP JUMPDEST PUSH2 0xE99 SWAP2 SWAP1 PUSH2 0x1A18 JUMP JUMPDEST PUSH2 0x1033 JUMP JUMPDEST JUMPDEST PUSH1 0x0 DUP1 DUP7 MLOAD DUP1 MLOAD DUP8 PUSH1 0x20 DUP4 ADD ADD SWAP4 POP DUP1 DUP9 DUP8 ADD GT ISZERO PUSH2 0xEBE JUMPI DUP8 DUP7 ADD DUP3 MSTORE JUMPDEST PUSH1 0x20 DUP8 ADD SWAP3 POP POP POP JUMPDEST PUSH1 0x20 DUP5 LT PUSH2 0xF05 JUMPI DUP1 MLOAD DUP3 MSTORE PUSH1 0x20 DUP3 PUSH2 0xEE0 SWAP2 SWAP1 PUSH2 0x1820 JUMP JUMPDEST SWAP2 POP PUSH1 0x20 DUP2 PUSH2 0xEEF SWAP2 SWAP1 PUSH2 0x1820 JUMP JUMPDEST SWAP1 POP PUSH1 0x20 DUP5 PUSH2 0xEFE SWAP2 SWAP1 PUSH2 0x1A72 JUMP JUMPDEST SWAP4 POP PUSH2 0xEC7 JUMP JUMPDEST PUSH1 0x0 PUSH1 0x1 DUP6 PUSH1 0x20 SUB PUSH2 0x100 EXP SUB SWAP1 POP DUP1 NOT DUP3 MLOAD AND DUP2 DUP5 MLOAD AND DUP2 DUP2 OR DUP6 MSTORE POP POP POP DUP7 SWAP3 POP POP POP SWAP5 SWAP4 POP POP POP POP JUMP JUMPDEST PUSH2 0xF3A PUSH2 0x114A JUMP JUMPDEST DUP4 PUSH1 0x20 ADD MLOAD DUP4 LT PUSH2 0xF60 JUMPI PUSH2 0xF5F DUP5 PUSH1 0x2 DUP7 PUSH1 0x20 ADD MLOAD PUSH2 0xF5A SWAP2 SWAP1 PUSH2 0x1A18 JUMP JUMPDEST PUSH2 0x1033 JUMP JUMPDEST JUMPDEST DUP4 MLOAD DUP1 MLOAD PUSH1 0x20 DUP6 DUP4 ADD ADD DUP5 DUP2 MSTORE8 DUP2 DUP7 EQ ISZERO PUSH2 0xF7C JUMPI PUSH1 0x1 DUP3 ADD DUP4 MSTORE JUMPDEST POP POP POP DUP4 SWAP1 POP SWAP4 SWAP3 POP POP POP JUMP JUMPDEST PUSH2 0xF91 PUSH2 0x114A JUMP JUMPDEST DUP5 PUSH1 0x20 ADD MLOAD DUP5 DUP4 PUSH2 0xFA2 SWAP2 SWAP1 PUSH2 0x1820 JUMP JUMPDEST GT ISZERO PUSH2 0xFCA JUMPI PUSH2 0xFC9 DUP6 PUSH1 0x2 DUP7 DUP6 PUSH2 0xFBA SWAP2 SWAP1 PUSH2 0x1820 JUMP JUMPDEST PUSH2 0xFC4 SWAP2 SWAP1 PUSH2 0x1A18 JUMP JUMPDEST PUSH2 0x1033 JUMP JUMPDEST JUMPDEST PUSH1 0x0 PUSH1 0x1 DUP4 PUSH2 0x100 PUSH2 0xFDC SWAP2 SWAP1 PUSH2 0x18FA JUMP JUMPDEST PUSH2 0xFE6 SWAP2 SWAP1 PUSH2 0x1A72 JUMP JUMPDEST SWAP1 POP DUP6 MLOAD DUP4 DUP7 DUP3 ADD ADD DUP6 DUP4 NOT DUP3 MLOAD AND OR DUP2 MSTORE DUP2 MLOAD DUP6 DUP9 ADD GT ISZERO PUSH2 0x1009 JUMPI DUP5 DUP8 ADD DUP3 MSTORE JUMPDEST POP POP DUP6 SWAP2 POP POP SWAP5 SWAP4 POP POP POP POP JUMP JUMPDEST PUSH1 0x0 DUP2 DUP4 GT ISZERO PUSH2 0x1029 JUMPI DUP3 SWAP1 POP PUSH2 0x102D JUMP JUMPDEST DUP2 SWAP1 POP JUMPDEST SWAP3 SWAP2 POP POP JUMP JUMPDEST PUSH1 0x0 DUP3 PUSH1 0x0 ADD MLOAD SWAP1 POP PUSH2 0x1046 DUP4 DUP4 PUSH2 0xBF0 JUMP JUMPDEST POP PUSH2 0x1051 DUP4 DUP3 PUSH2 0xDDF JUMP JUMPDEST POP POP POP POP JUMP JUMPDEST DUP3 DUP1 SLOAD PUSH2 0x1063 SWAP1 PUSH2 0x1BC6 JUMP JUMPDEST SWAP1 PUSH1 0x0 MSTORE PUSH1 0x20 PUSH1 0x0 KECCAK256 SWAP1 PUSH1 0x1F ADD PUSH1 0x20 SWAP1 DIV DUP2 ADD SWAP3 DUP3 PUSH2 0x1085 JUMPI PUSH1 0x0 DUP6 SSTORE PUSH2 0x10CC JUMP JUMPDEST DUP3 PUSH1 0x1F LT PUSH2 0x109E JUMPI DUP1 MLOAD PUSH1 0xFF NOT AND DUP4 DUP1 ADD OR DUP6 SSTORE PUSH2 0x10CC JUMP JUMPDEST DUP3 DUP1 ADD PUSH1 0x1 ADD DUP6 SSTORE DUP3 ISZERO PUSH2 0x10CC JUMPI SWAP2 DUP3 ADD JUMPDEST DUP3 DUP2 GT ISZERO PUSH2 0x10CB JUMPI DUP3 MLOAD DUP3 SSTORE SWAP2 PUSH1 0x20 ADD SWAP2 SWAP1 PUSH1 0x1 ADD SWAP1 PUSH2 0x10B0 JUMP JUMPDEST JUMPDEST POP SWAP1 POP PUSH2 0x10D9 SWAP2 SWAP1 PUSH2 0x1164 JUMP JUMPDEST POP SWAP1 JUMP JUMPDEST PUSH1 0x40 MLOAD DUP1 PUSH1 0xA0 ADD PUSH1 0x40 MSTORE DUP1 PUSH1 0x0 DUP1 NOT AND DUP2 MSTORE PUSH1 0x20 ADD PUSH1 0x0 PUSH20 0xFFFFFFFFFFFFFFFFFFFFFFFFFFFFFFFFFFFFFFFF AND DUP2 MSTORE PUSH1 0x20 ADD PUSH1 0x0 PUSH28 0xFFFFFFFFFFFFFFFFFFFFFFFFFFFFFFFFFFFFFFFFFFFFFFFFFFFFFFFF NOT AND DUP2 MSTORE PUSH1 0x20 ADD PUSH1 0x0 DUP2 MSTORE PUSH1 0x20 ADD PUSH2 0x1144 PUSH2 0x114A JUMP JUMPDEST DUP2 MSTORE POP SWAP1 JUMP JUMPDEST PUSH1 0x40 MLOAD DUP1 PUSH1 0x40 ADD PUSH1 0x40 MSTORE DUP1 PUSH1 0x60 DUP2 MSTORE PUSH1 0x20 ADD PUSH1 0x0 DUP2 MSTORE POP SWAP1 JUMP JUMPDEST JUMPDEST DUP1 DUP3 GT ISZERO PUSH2 0x117D JUMPI PUSH1 0x0 DUP2 PUSH1 0x0 SWAP1 SSTORE POP PUSH1 0x1 ADD PUSH2 0x1165 JUMP JUMPDEST POP SWAP1 JUMP JUMPDEST PUSH1 0x0 PUSH2 0x1194 PUSH2 0x118F DUP5 PUSH2 0x17B7 JUMP JUMPDEST PUSH2 0x1792 JUMP JUMPDEST SWAP1 POP DUP3 DUP2 MSTORE PUSH1 0x20 DUP2 ADD DUP5 DUP5 DUP5 ADD GT ISZERO PUSH2 0x11B0 JUMPI PUSH2 0x11AF PUSH2 0x1DC1 JUMP JUMPDEST JUMPDEST PUSH2 0x11BB DUP5 DUP3 DUP6 PUSH2 0x1B5A JUMP JUMPDEST POP SWAP4 SWAP3 POP POP POP JUMP JUMPDEST PUSH1 0x0 DUP2 MLOAD SWAP1 POP PUSH2 0x11D2 DUP2 PUSH2 0x1EC2 JUMP JUMPDEST SWAP3 SWAP2 POP POP JUMP JUMPDEST PUSH1 0x0 DUP2 CALLDATALOAD SWAP1 POP PUSH2 0x11E7 DUP2 PUSH2 0x1ED9 JUMP JUMPDEST SWAP3 SWAP2 POP POP JUMP JUMPDEST PUSH1 0x0 DUP3 PUSH1 0x1F DUP4 ADD SLT PUSH2 0x1202 JUMPI PUSH2 0x1201 PUSH2 0x1DBC JUMP JUMPDEST JUMPDEST DUP2 CALLDATALOAD PUSH2 0x1212 DUP5 DUP3 PUSH1 0x20 DUP7 ADD PUSH2 0x1181 JUMP JUMPDEST SWAP2 POP POP SWAP3 SWAP2 POP POP JUMP JUMPDEST PUSH1 0x0 DUP2 CALLDATALOAD SWAP1 POP PUSH2 0x122A DUP2 PUSH2 0x1EF0 JUMP JUMPDEST SWAP3 SWAP2 POP POP JUMP JUMPDEST PUSH1 0x0 PUSH1 0x20 DUP3 DUP5 SUB SLT ISZERO PUSH2 0x1246 JUMPI PUSH2 0x1245 PUSH2 0x1DCB JUMP JUMPDEST JUMPDEST PUSH1 0x0 PUSH2 0x1254 DUP5 DUP3 DUP6 ADD PUSH2 0x11C3 JUMP JUMPDEST SWAP2 POP POP SWAP3 SWAP2 POP POP JUMP JUMPDEST PUSH1 0x0 PUSH1 0x20 DUP3 DUP5 SUB SLT ISZERO PUSH2 0x1273 JUMPI PUSH2 0x1272 PUSH2 0x1DCB JUMP JUMPDEST JUMPDEST PUSH1 0x0 PUSH2 0x1281 DUP5 DUP3 DUP6 ADD PUSH2 0x11D8 JUMP JUMPDEST SWAP2 POP POP SWAP3 SWAP2 POP POP JUMP JUMPDEST PUSH1 0x0 DUP1 PUSH1 0x40 DUP4 DUP6 SUB SLT ISZERO PUSH2 0x12A1 JUMPI PUSH2 0x12A0 PUSH2 0x1DCB JUMP JUMPDEST JUMPDEST PUSH1 0x0 PUSH2 0x12AF DUP6 DUP3 DUP7 ADD PUSH2 0x11D8 JUMP JUMPDEST SWAP3 POP POP PUSH1 0x20 PUSH2 0x12C0 DUP6 DUP3 DUP7 ADD PUSH2 0x121B JUMP JUMPDEST SWAP2 POP POP SWAP3 POP SWAP3 SWAP1 POP JUMP JUMPDEST PUSH1 0x0 DUP1 PUSH1 0x0 PUSH1 0x60 DUP5 DUP7 SUB SLT ISZERO PUSH2 0x12E3 JUMPI PUSH2 0x12E2 PUSH2 0x1DCB JUMP JUMPDEST JUMPDEST PUSH1 0x0 DUP5 ADD CALLDATALOAD PUSH8 0xFFFFFFFFFFFFFFFF DUP2 GT ISZERO PUSH2 0x1301 JUMPI PUSH2 0x1300 PUSH2 0x1DC6 JUMP JUMPDEST JUMPDEST PUSH2 0x130D DUP7 DUP3 DUP8 ADD PUSH2 0x11ED JUMP JUMPDEST SWAP4 POP POP PUSH1 0x20 PUSH2 0x131E DUP7 DUP3 DUP8 ADD PUSH2 0x121B JUMP JUMPDEST SWAP3 POP POP PUSH1 0x40 PUSH2 0x132F DUP7 DUP3 DUP8 ADD PUSH2 0x121B JUMP JUMPDEST SWAP2 POP POP SWAP3 POP SWAP3 POP SWAP3 JUMP JUMPDEST PUSH1 0x0 PUSH1 0x20 DUP3 DUP5 SUB SLT ISZERO PUSH2 0x134F JUMPI PUSH2 0x134E PUSH2 0x1DCB JUMP JUMPDEST JUMPDEST PUSH1 0x0 PUSH2 0x135D DUP5 DUP3 DUP6 ADD PUSH2 0x121B JUMP JUMPDEST SWAP2 POP POP SWAP3 SWAP2 POP POP JUMP JUMPDEST PUSH1 0x0 DUP1 PUSH1 0x40 DUP4 DUP6 SUB SLT ISZERO PUSH2 0x137D JUMPI PUSH2 0x137C PUSH2 0x1DCB JUMP JUMPDEST JUMPDEST PUSH1 0x0 PUSH2 0x138B DUP6 DUP3 DUP7 ADD PUSH2 0x121B JUMP JUMPDEST SWAP3 POP POP PUSH1 0x20 DUP4 ADD CALLDATALOAD PUSH8 0xFFFFFFFFFFFFFFFF DUP2 GT ISZERO PUSH2 0x13AC JUMPI PUSH2 0x13AB PUSH2 0x1DC6 JUMP JUMPDEST JUMPDEST PUSH2 0x13B8 DUP6 DUP3 DUP7 ADD PUSH2 0x11ED JUMP JUMPDEST SWAP2 POP POP SWAP3 POP SWAP3 SWAP1 POP JUMP JUMPDEST PUSH2 0x13CB DUP2 PUSH2 0x1AA6 JUMP JUMPDEST DUP3 MSTORE POP POP JUMP JUMPDEST PUSH2 0x13DA DUP2 PUSH2 0x1AC4 JUMP JUMPDEST DUP3 MSTORE POP POP JUMP JUMPDEST PUSH2 0x13E9 DUP2 PUSH2 0x1ACE JUMP JUMPDEST DUP3 MSTORE POP POP JUMP JUMPDEST PUSH1 0x0 PUSH2 0x13FA DUP3 PUSH2 0x17E8 JUMP JUMPDEST PUSH2 0x1404 DUP2 DUP6 PUSH2 0x17FE JUMP JUMPDEST SWAP4 POP PUSH2 0x1414 DUP2 DUP6 PUSH1 0x20 DUP7 ADD PUSH2 0x1B69 JUMP JUMPDEST PUSH2 0x141D DUP2 PUSH2 0x1DD0 JUMP JUMPDEST DUP5 ADD SWAP2 POP POP SWAP3 SWAP2 POP POP JUMP JUMPDEST PUSH2 0x1439 PUSH2 0x1434 DUP3 PUSH2 0x1B24 JUMP JUMPDEST PUSH2 0x1C72 JUMP JUMPDEST DUP3 MSTORE POP POP JUMP JUMPDEST PUSH1 0x0 PUSH2 0x144A DUP3 PUSH2 0x17F3 JUMP JUMPDEST PUSH2 0x1454 DUP2 DUP6 PUSH2 0x180F JUMP JUMPDEST SWAP4 POP PUSH2 0x1464 DUP2 DUP6 PUSH1 0x20 DUP7 ADD PUSH2 0x1B69 JUMP JUMPDEST PUSH2 0x146D DUP2 PUSH2 0x1DD0 JUMP JUMPDEST DUP5 ADD SWAP2 POP POP SWAP3 SWAP2 POP POP JUMP JUMPDEST PUSH1 0x0 PUSH2 0x1485 PUSH1 0x14 DUP4 PUSH2 0x180F JUMP JUMPDEST SWAP2 POP PUSH2 0x1490 DUP3 PUSH2 0x1DFB JUMP JUMPDEST PUSH1 0x20 DUP3 ADD SWAP1 POP SWAP2 SWAP1 POP JUMP JUMPDEST PUSH1 0x0 PUSH2 0x14A8 PUSH1 0x23 DUP4 PUSH2 0x180F JUMP JUMPDEST SWAP2 POP PUSH2 0x14B3 DUP3 PUSH2 0x1E24 JUMP JUMPDEST PUSH1 0x40 DUP3 ADD SWAP1 POP SWAP2 SWAP1 POP JUMP JUMPDEST PUSH1 0x0 PUSH2 0x14CB PUSH1 0x28 DUP4 PUSH2 0x180F JUMP JUMPDEST SWAP2 POP PUSH2 0x14D6 DUP3 PUSH2 0x1E73 JUMP JUMPDEST PUSH1 0x40 DUP3 ADD SWAP1 POP SWAP2 SWAP1 POP JUMP JUMPDEST PUSH2 0x14EA DUP2 PUSH2 0x1B1A JUMP JUMPDEST DUP3 MSTORE POP POP JUMP JUMPDEST PUSH2 0x1501 PUSH2 0x14FC DUP3 PUSH2 0x1B1A JUMP JUMPDEST PUSH2 0x1C96 JUMP JUMPDEST DUP3 MSTORE POP POP JUMP JUMPDEST PUSH1 0x0 PUSH2 0x1513 DUP3 DUP6 PUSH2 0x1428 JUMP JUMPDEST PUSH1 0x14 DUP3 ADD SWAP2 POP PUSH2 0x1523 DUP3 DUP5 PUSH2 0x14F0 JUMP JUMPDEST PUSH1 0x20 DUP3 ADD SWAP2 POP DUP2 SWAP1 POP SWAP4 SWAP3 POP POP POP JUMP JUMPDEST PUSH1 0x0 PUSH2 0x100 DUP3 ADD SWAP1 POP PUSH2 0x1549 PUSH1 0x0 DUP4 ADD DUP12 PUSH2 0x13C2 JUMP JUMPDEST PUSH2 0x1556 PUSH1 0x20 DUP4 ADD DUP11 PUSH2 0x14E1 JUMP JUMPDEST PUSH2 0x1563 PUSH1 0x40 DUP4 ADD DUP10 PUSH2 0x13D1 JUMP JUMPDEST PUSH2 0x1570 PUSH1 0x60 DUP4 ADD DUP9 PUSH2 0x13C2 JUMP JUMPDEST PUSH2 0x157D PUSH1 0x80 DUP4 ADD DUP8 PUSH2 0x13E0 JUMP JUMPDEST PUSH2 0x158A PUSH1 0xA0 DUP4 ADD DUP7 PUSH2 0x14E1 JUMP JUMPDEST PUSH2 0x1597 PUSH1 0xC0 DUP4 ADD DUP6 PUSH2 0x14E1 JUMP JUMPDEST DUP2 DUP2 SUB PUSH1 0xE0 DUP4 ADD MSTORE PUSH2 0x15A9 DUP2 DUP5 PUSH2 0x13EF JUMP JUMPDEST SWAP1 POP SWAP10 SWAP9 POP POP POP POP POP POP POP POP POP JUMP JUMPDEST PUSH1 0x0 PUSH1 0x60 DUP3 ADD SWAP1 POP PUSH2 0x15CD PUSH1 0x0 DUP4 ADD DUP7 PUSH2 0x13C2 JUMP JUMPDEST PUSH2 0x15DA PUSH1 0x20 DUP4 ADD DUP6 PUSH2 0x14E1 JUMP JUMPDEST DUP2 DUP2 SUB PUSH1 0x40 DUP4 ADD MSTORE PUSH2 0x15EC DUP2 DUP5 PUSH2 0x13EF JUMP JUMPDEST SWAP1 POP SWAP5 SWAP4 POP POP POP POP JUMP JUMPDEST PUSH1 0x0 PUSH1 0x20 DUP3 ADD SWAP1 POP PUSH2 0x160B PUSH1 0x0 DUP4 ADD DUP5 PUSH2 0x13D1 JUMP JUMPDEST SWAP3 SWAP2 POP POP JUMP JUMPDEST PUSH1 0x0 PUSH1 0x20 DUP3 ADD SWAP1 POP DUP2 DUP2 SUB PUSH1 0x0 DUP4 ADD MSTORE PUSH2 0x162A DUP2 PUSH2 0x1478 JUMP JUMPDEST SWAP1 POP SWAP2 SWAP1 POP JUMP JUMPDEST PUSH1 0x0 PUSH1 0x20 DUP3 ADD SWAP1 POP DUP2 DUP2 SUB PUSH1 0x0 DUP4 ADD MSTORE PUSH2 0x164A DUP2 PUSH2 0x149B JUMP JUMPDEST SWAP1 POP SWAP2 SWAP1 POP JUMP JUMPDEST PUSH1 0x0 PUSH1 0x20 DUP3 ADD SWAP1 POP DUP2 DUP2 SUB PUSH1 0x0 DUP4 ADD MSTORE PUSH2 0x166A DUP2 PUSH2 0x14BE JUMP JUMPDEST SWAP1 POP SWAP2 SWAP1 POP JUMP JUMPDEST PUSH1 0x0 PUSH1 0x20 DUP3 ADD SWAP1 POP PUSH2 0x1686 PUSH1 0x0 DUP4 ADD DUP5 PUSH2 0x14E1 JUMP JUMPDEST SWAP3 SWAP2 POP POP JUMP JUMPDEST PUSH1 0x0 PUSH1 0x40 DUP3 ADD SWAP1 POP PUSH2 0x16A1 PUSH1 0x0 DUP4 ADD DUP6 PUSH2 0x14E1 JUMP JUMPDEST DUP2 DUP2 SUB PUSH1 0x20 DUP4 ADD MSTORE PUSH2 0x16B3 DUP2 DUP5 PUSH2 0x143F JUMP JUMPDEST SWAP1 POP SWAP4 SWAP3 POP POP POP JUMP JUMPDEST PUSH1 0x0 PUSH1 0x80 DUP3 ADD SWAP1 POP PUSH2 0x16D1 PUSH1 0x0 DUP4 ADD DUP8 PUSH2 0x14E1 JUMP JUMPDEST DUP2 DUP2 SUB PUSH1 0x20 DUP4 ADD MSTORE PUSH2 0x16E3 DUP2 DUP7 PUSH2 0x143F JUMP JUMPDEST SWAP1 POP PUSH2 0x16F2 PUSH1 0x40 DUP4 ADD DUP6 PUSH2 0x14E1 JUMP JUMPDEST PUSH2 0x16FF PUSH1 0x60 DUP4 ADD DUP5 PUSH2 0x14E1 JUMP JUMPDEST SWAP6 SWAP5 POP POP POP POP POP JUMP JUMPDEST PUSH1 0x0 PUSH1 0xA0 DUP3 ADD SWAP1 POP PUSH2 0x171D PUSH1 0x0 DUP4 ADD DUP9 PUSH2 0x14E1 JUMP JUMPDEST DUP2 DUP2 SUB PUSH1 0x20 DUP4 ADD MSTORE PUSH2 0x172F DUP2 DUP8 PUSH2 0x143F JUMP JUMPDEST SWAP1 POP PUSH2 0x173E PUSH1 0x40 DUP4 ADD DUP7 PUSH2 0x14E1 JUMP JUMPDEST PUSH2 0x174B PUSH1 0x60 DUP4 ADD DUP6 PUSH2 0x14E1 JUMP JUMPDEST DUP2 DUP2 SUB PUSH1 0x80 DUP4 ADD MSTORE PUSH2 0x175D DUP2 DUP5 PUSH2 0x143F JUMP JUMPDEST SWAP1 POP SWAP7 SWAP6 POP POP POP POP POP POP JUMP JUMPDEST PUSH1 0x0 PUSH1 0x40 DUP3 ADD SWAP1 POP PUSH2 0x177E PUSH1 0x0 DUP4 ADD DUP6 PUSH2 0x14E1 JUMP JUMPDEST PUSH2 0x178B PUSH1 0x20 DUP4 ADD DUP5 PUSH2 0x14E1 JUMP JUMPDEST SWAP4 SWAP3 POP POP POP JUMP JUMPDEST PUSH1 0x0 PUSH2 0x179C PUSH2 0x17AD JUMP JUMPDEST SWAP1 POP PUSH2 0x17A8 DUP3 DUP3 PUSH2 0x1BF8 JUMP JUMPDEST SWAP2 SWAP1 POP JUMP JUMPDEST PUSH1 0x0 PUSH1 0x40 MLOAD SWAP1 POP SWAP1 JUMP JUMPDEST PUSH1 0x0 PUSH8 0xFFFFFFFFFFFFFFFF DUP3 GT ISZERO PUSH2 0x17D2 JUMPI PUSH2 0x17D1 PUSH2 0x1D8D JUMP JUMPDEST JUMPDEST PUSH2 0x17DB DUP3 PUSH2 0x1DD0 JUMP JUMPDEST SWAP1 POP PUSH1 0x20 DUP2 ADD SWAP1 POP SWAP2 SWAP1 POP JUMP JUMPDEST PUSH1 0x0 DUP2 MLOAD SWAP1 POP SWAP2 SWAP1 POP JUMP JUMPDEST PUSH1 0x0 DUP2 MLOAD SWAP1 POP SWAP2 SWAP1 POP JUMP JUMPDEST PUSH1 0x0 DUP3 DUP3 MSTORE PUSH1 0x20 DUP3 ADD SWAP1 POP SWAP3 SWAP2 POP POP JUMP JUMPDEST PUSH1 0x0 DUP3 DUP3 MSTORE PUSH1 0x20 DUP3 ADD SWAP1 POP SWAP3 SWAP2 POP POP JUMP JUMPDEST PUSH1 0x0 PUSH2 0x182B DUP3 PUSH2 0x1B1A JUMP JUMPDEST SWAP2 POP PUSH2 0x1836 DUP4 PUSH2 0x1B1A JUMP JUMPDEST SWAP3 POP DUP3 PUSH32 0xFFFFFFFFFFFFFFFFFFFFFFFFFFFFFFFFFFFFFFFFFFFFFFFFFFFFFFFFFFFFFFFF SUB DUP3 GT ISZERO PUSH2 0x186B JUMPI PUSH2 0x186A PUSH2 0x1CD1 JUMP JUMPDEST JUMPDEST DUP3 DUP3 ADD SWAP1 POP SWAP3 SWAP2 POP POP JUMP JUMPDEST PUSH1 0x0 PUSH2 0x1881 DUP3 PUSH2 0x1B1A JUMP JUMPDEST SWAP2 POP PUSH2 0x188C DUP4 PUSH2 0x1B1A JUMP JUMPDEST SWAP3 POP DUP3 PUSH2 0x189C JUMPI PUSH2 0x189B PUSH2 0x1D00 JUMP JUMPDEST JUMPDEST DUP3 DUP3 DIV SWAP1 POP SWAP3 SWAP2 POP POP JUMP JUMPDEST PUSH1 0x0 DUP1 DUP3 SWAP2 POP DUP4 SWAP1 POP JUMPDEST PUSH1 0x1 DUP6 GT ISZERO PUSH2 0x18F1 JUMPI DUP1 DUP7 DIV DUP2 GT ISZERO PUSH2 0x18CD JUMPI PUSH2 0x18CC PUSH2 0x1CD1 JUMP JUMPDEST JUMPDEST PUSH1 0x1 DUP6 AND ISZERO PUSH2 0x18DC JUMPI DUP1 DUP3 MUL SWAP2 POP JUMPDEST DUP1 DUP2 MUL SWAP1 POP PUSH2 0x18EA DUP6 PUSH2 0x1DEE JUMP JUMPDEST SWAP5 POP PUSH2 0x18B1 JUMP JUMPDEST SWAP5 POP SWAP5 SWAP3 POP POP POP JUMP JUMPDEST PUSH1 0x0 PUSH2 0x1905 DUP3 PUSH2 0x1B1A JUMP JUMPDEST SWAP2 POP PUSH2 0x1910 DUP4 PUSH2 0x1B1A JUMP JUMPDEST SWAP3 POP PUSH2 0x193D PUSH32 0xFFFFFFFFFFFFFFFFFFFFFFFFFFFFFFFFFFFFFFFFFFFFFFFFFFFFFFFFFFFFFFFF DUP5 DUP5 PUSH2 0x1945 JUMP JUMPDEST SWAP1 POP SWAP3 SWAP2 POP POP JUMP JUMPDEST PUSH1 0x0 DUP3 PUSH2 0x1955 JUMPI PUSH1 0x1 SWAP1 POP PUSH2 0x1A11 JUMP JUMPDEST DUP2 PUSH2 0x1963 JUMPI PUSH1 0x0 SWAP1 POP PUSH2 0x1A11 JUMP JUMPDEST DUP2 PUSH1 0x1 DUP2 EQ PUSH2 0x1979 JUMPI PUSH1 0x2 DUP2 EQ PUSH2 0x1983 JUMPI PUSH2 0x19B2 JUMP JUMPDEST PUSH1 0x1 SWAP2 POP POP PUSH2 0x1A11 JUMP JUMPDEST PUSH1 0xFF DUP5 GT ISZERO PUSH2 0x1995 JUMPI PUSH2 0x1994 PUSH2 0x1CD1 JUMP JUMPDEST JUMPDEST DUP4 PUSH1 0x2 EXP SWAP2 POP DUP5 DUP3 GT ISZERO PUSH2 0x19AC JUMPI PUSH2 0x19AB PUSH2 0x1CD1 JUMP JUMPDEST JUMPDEST POP PUSH2 0x1A11 JUMP JUMPDEST POP PUSH1 0x20 DUP4 LT PUSH2 0x133 DUP4 LT AND PUSH1 0x4E DUP5 LT PUSH1 0xB DUP5 LT AND OR ISZERO PUSH2 0x19E7 JUMPI DUP3 DUP3 EXP SWAP1 POP DUP4 DUP2 GT ISZERO PUSH2 0x19E2 JUMPI PUSH2 0x19E1 PUSH2 0x1CD1 JUMP JUMPDEST JUMPDEST PUSH2 0x1A11 JUMP JUMPDEST PUSH2 0x19F4 DUP5 DUP5 DUP5 PUSH1 0x1 PUSH2 0x18A7 JUMP JUMPDEST SWAP3 POP SWAP1 POP DUP2 DUP5 DIV DUP2 GT ISZERO PUSH2 0x1A0B JUMPI PUSH2 0x1A0A PUSH2 0x1CD1 JUMP JUMPDEST JUMPDEST DUP2 DUP2 MUL SWAP1 POP JUMPDEST SWAP4 SWAP3 POP POP POP JUMP JUMPDEST PUSH1 0x0 PUSH2 0x1A23 DUP3 PUSH2 0x1B1A JUMP JUMPDEST SWAP2 POP PUSH2 0x1A2E DUP4 PUSH2 0x1B1A JUMP JUMPDEST SWAP3 POP DUP2 PUSH32 0xFFFFFFFFFFFFFFFFFFFFFFFFFFFFFFFFFFFFFFFFFFFFFFFFFFFFFFFFFFFFFFFF DIV DUP4 GT DUP3 ISZERO ISZERO AND ISZERO PUSH2 0x1A67 JUMPI PUSH2 0x1A66 PUSH2 0x1CD1 JUMP JUMPDEST JUMPDEST DUP3 DUP3 MUL SWAP1 POP SWAP3 SWAP2 POP POP JUMP JUMPDEST PUSH1 0x0 PUSH2 0x1A7D DUP3 PUSH2 0x1B1A JUMP JUMPDEST SWAP2 POP PUSH2 0x1A88 DUP4 PUSH2 0x1B1A JUMP JUMPDEST SWAP3 POP DUP3 DUP3 LT ISZERO PUSH2 0x1A9B JUMPI PUSH2 0x1A9A PUSH2 0x1CD1 JUMP JUMPDEST JUMPDEST DUP3 DUP3 SUB SWAP1 POP SWAP3 SWAP2 POP POP JUMP JUMPDEST PUSH1 0x0 PUSH2 0x1AB1 DUP3 PUSH2 0x1AFA JUMP JUMPDEST SWAP1 POP SWAP2 SWAP1 POP JUMP JUMPDEST PUSH1 0x0 DUP2 ISZERO ISZERO SWAP1 POP SWAP2 SWAP1 POP JUMP JUMPDEST PUSH1 0x0 DUP2 SWAP1 POP SWAP2 SWAP1 POP JUMP JUMPDEST PUSH1 0x0 PUSH32 0xFFFFFFFF00000000000000000000000000000000000000000000000000000000 DUP3 AND SWAP1 POP SWAP2 SWAP1 POP JUMP JUMPDEST PUSH1 0x0 PUSH20 0xFFFFFFFFFFFFFFFFFFFFFFFFFFFFFFFFFFFFFFFF DUP3 AND SWAP1 POP SWAP2 SWAP1 POP JUMP JUMPDEST PUSH1 0x0 DUP2 SWAP1 POP SWAP2 SWAP1 POP JUMP JUMPDEST PUSH1 0x0 PUSH2 0x1B2F DUP3 PUSH2 0x1B36 JUMP JUMPDEST SWAP1 POP SWAP2 SWAP1 POP JUMP JUMPDEST PUSH1 0x0 PUSH2 0x1B41 DUP3 PUSH2 0x1B48 JUMP JUMPDEST SWAP1 POP SWAP2 SWAP1 POP JUMP JUMPDEST PUSH1 0x0 PUSH2 0x1B53 DUP3 PUSH2 0x1AFA JUMP JUMPDEST SWAP1 POP SWAP2 SWAP1 POP JUMP JUMPDEST DUP3 DUP2 DUP4 CALLDATACOPY PUSH1 0x0 DUP4 DUP4 ADD MSTORE POP POP POP JUMP JUMPDEST PUSH1 0x0 JUMPDEST DUP4 DUP2 LT ISZERO PUSH2 0x1B87 JUMPI DUP1 DUP3 ADD MLOAD DUP2 DUP5 ADD MSTORE PUSH1 0x20 DUP2 ADD SWAP1 POP PUSH2 0x1B6C JUMP JUMPDEST DUP4 DUP2 GT ISZERO PUSH2 0x1B96 JUMPI PUSH1 0x0 DUP5 DUP5 ADD MSTORE JUMPDEST POP POP POP POP JUMP JUMPDEST PUSH1 0x0 PUSH2 0x1BA7 DUP3 PUSH2 0x1B1A JUMP JUMPDEST SWAP2 POP PUSH1 0x0 DUP3 EQ ISZERO PUSH2 0x1BBB JUMPI PUSH2 0x1BBA PUSH2 0x1CD1 JUMP JUMPDEST JUMPDEST PUSH1 0x1 DUP3 SUB SWAP1 POP SWAP2 SWAP1 POP JUMP JUMPDEST PUSH1 0x0 PUSH1 0x2 DUP3 DIV SWAP1 POP PUSH1 0x1 DUP3 AND DUP1 PUSH2 0x1BDE JUMPI PUSH1 0x7F DUP3 AND SWAP2 POP JUMPDEST PUSH1 0x20 DUP3 LT DUP2 EQ ISZERO PUSH2 0x1BF2 JUMPI PUSH2 0x1BF1 PUSH2 0x1D2F JUMP JUMPDEST JUMPDEST POP SWAP2 SWAP1 POP JUMP JUMPDEST PUSH2 0x1C01 DUP3 PUSH2 0x1DD0 JUMP JUMPDEST DUP2 ADD DUP2 DUP2 LT PUSH8 0xFFFFFFFFFFFFFFFF DUP3 GT OR ISZERO PUSH2 0x1C20 JUMPI PUSH2 0x1C1F PUSH2 0x1D8D JUMP JUMPDEST JUMPDEST DUP1 PUSH1 0x40 MSTORE POP POP POP JUMP JUMPDEST PUSH1 0x0 PUSH2 0x1C34 DUP3 PUSH2 0x1B1A JUMP JUMPDEST SWAP2 POP PUSH32 0xFFFFFFFFFFFFFFFFFFFFFFFFFFFFFFFFFFFFFFFFFFFFFFFFFFFFFFFFFFFFFFFF DUP3 EQ ISZERO PUSH2 0x1C67 JUMPI PUSH2 0x1C66 PUSH2 0x1CD1 JUMP JUMPDEST JUMPDEST PUSH1 0x1 DUP3 ADD SWAP1 POP SWAP2 SWAP1 POP JUMP JUMPDEST PUSH1 0x0 PUSH2 0x1C7D DUP3 PUSH2 0x1C84 JUMP JUMPDEST SWAP1 POP SWAP2 SWAP1 POP JUMP JUMPDEST PUSH1 0x0 PUSH2 0x1C8F DUP3 PUSH2 0x1DE1 JUMP JUMPDEST SWAP1 POP SWAP2 SWAP1 POP JUMP JUMPDEST PUSH1 0x0 DUP2 SWAP1 POP SWAP2 SWAP1 POP JUMP JUMPDEST PUSH1 0x0 PUSH2 0x1CAB DUP3 PUSH2 0x1B1A JUMP JUMPDEST SWAP2 POP PUSH2 0x1CB6 DUP4 PUSH2 0x1B1A JUMP JUMPDEST SWAP3 POP DUP3 PUSH2 0x1CC6 JUMPI PUSH2 0x1CC5 PUSH2 0x1D00 JUMP JUMPDEST JUMPDEST DUP3 DUP3 MOD SWAP1 POP SWAP3 SWAP2 POP POP JUMP JUMPDEST PUSH32 0x4E487B7100000000000000000000000000000000000000000000000000000000 PUSH1 0x0 MSTORE PUSH1 0x11 PUSH1 0x4 MSTORE PUSH1 0x24 PUSH1 0x0 REVERT JUMPDEST PUSH32 0x4E487B7100000000000000000000000000000000000000000000000000000000 PUSH1 0x0 MSTORE PUSH1 0x12 PUSH1 0x4 MSTORE PUSH1 0x24 PUSH1 0x0 REVERT JUMPDEST PUSH32 0x4E487B7100000000000000000000000000000000000000000000000000000000 PUSH1 0x0 MSTORE PUSH1 0x22 PUSH1 0x4 MSTORE PUSH1 0x24 PUSH1 0x0 REVERT JUMPDEST PUSH32 0x4E487B7100000000000000000000000000000000000000000000000000000000 PUSH1 0x0 MSTORE PUSH1 0x32 PUSH1 0x4 MSTORE PUSH1 0x24 PUSH1 0x0 REVERT JUMPDEST PUSH32 0x4E487B7100000000000000000000000000000000000000000000000000000000 PUSH1 0x0 MSTORE PUSH1 0x41 PUSH1 0x4 MSTORE PUSH1 0x24 PUSH1 0x0 REVERT JUMPDEST PUSH1 0x0 DUP1 REVERT JUMPDEST PUSH1 0x0 DUP1 REVERT JUMPDEST PUSH1 0x0 DUP1 REVERT JUMPDEST PUSH1 0x0 DUP1 REVERT JUMPDEST PUSH1 0x0 PUSH1 0x1F NOT PUSH1 0x1F DUP4 ADD AND SWAP1 POP SWAP2 SWAP1 POP JUMP JUMPDEST PUSH1 0x0 DUP2 PUSH1 0x60 SHL SWAP1 POP SWAP2 SWAP1 POP JUMP JUMPDEST PUSH1 0x0 DUP2 PUSH1 0x1 SHR SWAP1 POP SWAP2 SWAP1 POP JUMP JUMPDEST PUSH32 0x426174636820646F6573206E6F74206578697374000000000000000000000000 PUSH1 0x0 DUP3 ADD MSTORE POP JUMP JUMPDEST PUSH32 0x756E61626C6520746F207472616E73666572416E6443616C6C20746F206F7261 PUSH1 0x0 DUP3 ADD MSTORE PUSH32 0x636C650000000000000000000000000000000000000000000000000000000000 PUSH1 0x20 DUP3 ADD MSTORE POP JUMP JUMPDEST PUSH32 0x536F75726365206D75737420626520746865206F7261636C65206F6620746865 PUSH1 0x0 DUP3 ADD MSTORE PUSH32 0x2072657175657374000000000000000000000000000000000000000000000000 PUSH1 0x20 DUP3 ADD MSTORE POP JUMP JUMPDEST PUSH2 0x1ECB DUP2 PUSH2 0x1AB8 JUMP JUMPDEST DUP2 EQ PUSH2 0x1ED6 JUMPI PUSH1 0x0 DUP1 REVERT JUMPDEST POP JUMP JUMPDEST PUSH2 0x1EE2 DUP2 PUSH2 0x1AC4 JUMP JUMPDEST DUP2 EQ PUSH2 0x1EED JUMPI PUSH1 0x0 DUP1 REVERT JUMPDEST POP JUMP JUMPDEST PUSH2 0x1EF9 DUP2 PUSH2 0x1B1A JUMP JUMPDEST DUP2 EQ PUSH2 0x1F04 JUMPI PUSH1 0x0 DUP1 REVERT JUMPDEST POP JUMP INVALID LOG2 PUSH5 0x6970667358 0x22 SLT KECCAK256 0xE3 CHAINID SWAP15 SWAP4 CALLVALUE 0xAF PUSH11 0x195B83A32059764E9278B4 0xE2 0xF 0x2C 0xB8 0xA8 DUP14 0xCE 0x26 0x22 DUP8 0xE9 0xD0 DELEGATECALL 0xE1 PUSH5 0x736F6C6343 STOP ADDMOD SMOD STOP CALLER "},"methodIdentifiers":{"batches(uint256)":"b32c4d8d","chainlinkRequestIdToBatchId(bytes32)":"39e25bad","createBatch(string,uint256,uint256)":"e7f25c6e","fulfill(bytes32,uint256)":"4357855e","nextBatchId()":"8462a7f8","requestTemperatureData(uint256)":"496781d0","updateBatch(uint256,string)":"8207fd85"}}}}}