{"contracts/DrugBatch.sol":{"DrugBatch":{"abi":[{"inputs":[],"stateMutability":"nonpayable","type":"constructor"},{"anonymous":false,"inputs":[{"indexed":false,"internalType":"uint256","name":"id","type":"uint256"},{"indexed":false,"internalType":"string","name":"manufacturer","type":"string"},{"indexed":false,"internalType":"uint256","name":"manufactureDate","type":"uint256"},{"indexed":false,"internalType":"uint256","name":"expiryDate","type":"uint256"}],"name":"BatchCreated","type":"event"},{"anonymous":false,"inputs":[{"indexed":false,"internalType":"uint256","name":"id","type":"uint256"},{"indexed":false,"internalType":"string","name":"status","type":"string"}],"name":"BatchUpdated","type":"event"},{"anonymous":false,"inputs":[{"indexed":true,"internalType":"bytes32","name":"id","type":"bytes32"}],"name":"ChainlinkCancelled","type":"event"},{"anonymous":false,"inputs":[{"indexed":true,"internalType":"bytes32","name":"id","type":"bytes32"}],"name":"ChainlinkFulfilled","type":"event"},{"anonymous":false,"inputs":[{"indexed":true,"internalType":"bytes32","name":"id","type":"bytes32"}],"name":"ChainlinkRequested","type":"event"},{"anonymous":false,"inputs":[{"indexed":false,"internalType":"uint256","name":"id","type":"uint256"},{"indexed":false,"internalType":"uint256","name":"temperature","type":"uint256"}],"name":"TemperatureExceeded","type":"event"},{"inputs":[{"internalType":"uint256","name":"","type":"uint256"}],"name":"batches","outputs":[{"internalType":"uint256","name":"id","type":"uint256"},{"internalType":"string","name":"manufacturer","type":"string"},{"internalType":"uint256","name":"manufactureDate","type":"uint256"},{"internalType":"uint256","name":"expiryDate","type":"uint256"},{"internalType":"string","name":"status","type":"string"}],"stateMutability":"view","type":"function"},{"inputs":[{"internalType":"bytes32","name":"","type":"bytes32"}],"name":"chainlinkRequestIdToBatchId","outputs":[{"internalType":"uint256","name":"","type":"uint256"}],"stateMutability":"view","type":"function"},{"inputs":[{"internalType":"string","name":"_manufacturer","type":"string"},{"internalType":"uint256","name":"_manufactureDate","type":"uint256"},{"internalType":"uint256","name":"_expiryDate","type":"uint256"}],"name":"createBatch","outputs":[],"stateMutability":"nonpayable","type":"function"},{"inputs":[{"internalType":"bytes32","name":"_requestId","type":"bytes32"},{"internalType":"uint256","name":"_temperature","type":"uint256"}],"name":"fulfill","outputs":[],"stateMutability":"nonpayable","type":"function"},{"inputs":[],"name":"nextBatchId","outputs":[{"internalType":"uint256","name":"","type":"uint256"}],"stateMutability":"view","type":"function"},{"inputs":[{"internalType":"uint256","name":"_batchId","type":"uint256"}],"name":"requestTemperatureData","outputs":[{"internalType":"bytes32","name":"requestId","type":"bytes32"}],"stateMutability":"nonpayable","type":"function"},{"inputs":[{"internalType":"uint256","name":"_batchId","type":"uint256"},{"internalType":"string","name":"_status","type":"string"}],"name":"updateBatch","outputs":[],"stateMutability":"nonpayable","type":"function"}],"evm":{"bytecode":{"linkReferences":{},"object":"60806040526001600455601e6009553480156200001b57600080fd5b506200002c620000bd60201b60201c565b737afe30cb3e53dba6801aa0ea647a0b1099abd5e6600a60006101000a81548173ffffffffffffffffffffffffffffffffffffffff021916908373ffffffffffffffffffffffffffffffffffffffff1602179055507f6435323730643163333131393431643062303862656164323166656137373437600b8190555067016345785d8a0000600c819055506200023a565b6200016373c89bd4e1632d3a43cb03aaad5262cbe4038bc57173ffffffffffffffffffffffffffffffffffffffff166338cc48316040518163ffffffff1660e01b815260040160206040518083038186803b1580156200011c57600080fd5b505afa15801562000131573d6000803e3d6000fd5b505050506040513d601f19601f82011682018060405250810190620001579190620001c0565b6200016560201b60201c565b565b80600260006101000a81548173ffffffffffffffffffffffffffffffffffffffff021916908373ffffffffffffffffffffffffffffffffffffffff16021790555050565b600081519050620001ba8162000220565b92915050565b600060208284031215620001d357600080fd5b6000620001e384828501620001a9565b91505092915050565b6000620001f98262000200565b9050919050565b600073ffffffffffffffffffffffffffffffffffffffff82169050919050565b6200022b81620001ec565b81146200023757600080fd5b50565b611ec2806200024a6000396000f3fe608060405234801561001057600080fd5b506004361061007d5760003560e01c80638207fd851161005b5780638207fd85146100fe5780638462a7f81461011a578063b32c4d8d14610138578063e7f25c6e1461016c5761007d565b806339e25bad146100825780634357855e146100b2578063496781d0146100ce575b600080fd5b61009c6004803603810190610097919061129d565b610188565b6040516100a99190611738565b60405180910390f35b6100cc60048036038101906100c791906112c6565b6101a0565b005b6100e860048036038101906100e39190611369565b610307565b6040516100f591906116bd565b60405180910390f35b61011860048036038101906101139190611392565b6103c1565b005b61012261046d565b60405161012f9190611738565b60405180910390f35b610152600480360381019061014d9190611369565b610473565b6040516101639594939291906117cf565b60405180910390f35b61018660048036038101906101819190611302565b6105b9565b005b60076020528060005260406000206000915090505481565b816005600082815260200190815260200160002060009054906101000a900473ffffffffffffffffffffffffffffffffffffffff1673ffffffffffffffffffffffffffffffffffffffff163373ffffffffffffffffffffffffffffffffffffffff1614610242576040517f08c379a000000000000000000000000000000000000000000000000000000000815260040161023990611718565b60405180910390fd5b6005600082815260200190815260200160002060006101000a81549073ffffffffffffffffffffffffffffffffffffffff0219169055807f7cc135e0cebb02c3480ae5d74d377283180a2601f8f644edf7987b009316c63a60405160405180910390a2600060076000858152602001908152602001600020549050600954831115610301577fc63b563cb63ffad76bbc9e8ceaad18081512169728708708ce00e240e22c8a0181846040516102f8929190611830565b60405180910390a15b50505050565b60008061031e600b5430634357855e60e01b6106e3565b90506103726040518060400160405280600781526020017f626174636849640000000000000000000000000000000000000000000000000081525061036285610714565b836108c49092919063ffffffff16565b6103a1600a60009054906101000a900473ffffffffffffffffffffffffffffffffffffffff1682600c546108f7565b915082600760008481526020019081526020016000208190555050919050565b6008548210610405576040517f08c379a00000000000000000000000000000000000000000000000000000000081526004016103fc906116d8565b60405180910390fd5b8060066000848152602001908152602001600020600401908051906020019061042f9291906110a3565b507fcc1163b9f5b7a48feb09e3106d97fe333e2b9b8d72544e2f9d4470f483e5214e8282604051610461929190611753565b60405180910390a15050565b60085481565b600660205280600052604060002060009150905080600001549080600101805461049c90611c86565b80601f01602080910402602001604051908101604052809291908181526020018280546104c890611c86565b80156105155780601f106104ea57610100808354040283529160200191610515565b820191906000526020600020905b8154815290600101906020018083116104f857829003601f168201915b50505050509080600201549080600301549080600401805461053690611c86565b80601f016020809104026020016040519081016040528092919081815260200182805461056290611c86565b80156105af5780601f10610584576101008083540402835291602001916105af565b820191906000526020600020905b81548152906001019060200180831161059257829003601f168201915b5050505050905085565b6040518060a0016040528060085481526020018481526020018381526020018281526020016040518060400160405280600781526020017f43726561746564000000000000000000000000000000000000000000000000008152508152506006600060085481526020019081526020016000206000820151816000015560208201518160010190805190602001906106529291906110a3565b50604082015181600201556060820151816003015560808201518160040190805190602001906106839291906110a3565b509050507fcfc3a8401549578cdc3a4450882d09189a820561ebadb683b484bc6bd62dd4ef6008548484846040516106be9493929190611783565b60405180910390a1600860008154809291906106d990611cb8565b9190505550505050565b6106eb611129565b6106f3611129565b61070a858585846109c3909392919063ffffffff16565b9150509392505050565b6060600082141561075c576040518060400160405280600181526020017f300000000000000000000000000000000000000000000000000000000000000081525090506108bf565b600082905060005b6000821461078e57808061077790611cb8565b915050600a826107879190611948565b9150610764565b60008167ffffffffffffffff8111156107d0577f4e487b7100000000000000000000000000000000000000000000000000000000600052604160045260246000fd5b6040519080825280601f01601f1916602001820160405280156108025781602001600182028036833780820191505090505b50905060008290505b600086146108b757600a866108209190611d2f565b603061082c91906118f2565b60f81b828261083a90611c5c565b92508281518110610874577f4e487b7100000000000000000000000000000000000000000000000000000000600052603260045260246000fd5b60200101907effffffffffffffffffffffffffffffffffffffffffffffffffffffffffffff1916908160001a905350600a866108b09190611948565b955061080b565b819450505050505b919050565b6108db828460800151610a7390919063ffffffff16565b6108f2818460800151610a7390919063ffffffff16565b505050565b600080600454905060018161090c91906118f2565b6004819055506000634042994660e01b60008087600001513089604001518760018c608001516000015160405160240161094d9897969594939291906115fa565b604051602081830303815290604052907bffffffffffffffffffffffffffffffffffffffffffffffffffffffff19166020820180517bffffffffffffffffffffffffffffffffffffffffffffffffffffffff838183161783525050505090506109b886838684610a98565b925050509392505050565b6109cb611129565b6109db8560800151610100610c3c565b508385600001818152505082856020019073ffffffffffffffffffffffffffffffffffffffff16908173ffffffffffffffffffffffffffffffffffffffff16815250508185604001907bffffffffffffffffffffffffffffffffffffffffffffffffffffffff191690817bffffffffffffffffffffffffffffffffffffffffffffffffffffffff191681525050849050949350505050565b610a808260038351610ca6565b610a938183610e2b90919063ffffffff16565b505050565b60003084604051602001610aad9291906115ce565b604051602081830303815290604052805190602001209050846005600083815260200190815260200160002060006101000a81548173ffffffffffffffffffffffffffffffffffffffff021916908373ffffffffffffffffffffffffffffffffffffffff160217905550807fb5e6e01e79f91267dc17b4e6314d5d4d03593d2ceee0fbb452b750bd70ea5af960405160405180910390a2600260009054906101000a900473ffffffffffffffffffffffffffffffffffffffff1673ffffffffffffffffffffffffffffffffffffffff16634000aea08685856040518463ffffffff1660e01b8152600401610ba39392919061167f565b602060405180830381600087803b158015610bbd57600080fd5b505af1158015610bd1573d6000803e3d6000fd5b505050506040513d601f19601f82011682018060405250810190610bf59190611274565b610c34576040517f08c379a0000000000000000000000000000000000000000000000000000000008152600401610c2b906116f8565b60405180910390fd5b949350505050565b610c44611196565b6000602083610c539190611d2f565b14610c7f57602082610c659190611d2f565b6020610c719190611b44565b82610c7c91906118f2565b91505b81836020018181525050604051808452600081528281016020016040525082905092915050565b60178167ffffffffffffffff1611610cdd57610cd78160058460ff16901b60ff161784610e4d90919063ffffffff16565b50610e26565b60ff8167ffffffffffffffff1611610d3357610d0c601860058460ff16901b1784610e4d90919063ffffffff16565b50610d2d8167ffffffffffffffff16600185610e6d9092919063ffffffff16565b50610e25565b61ffff8167ffffffffffffffff1611610d8a57610d63601960058460ff16901b1784610e4d90919063ffffffff16565b50610d848167ffffffffffffffff16600285610e6d9092919063ffffffff16565b50610e24565b63ffffffff8167ffffffffffffffff1611610de357610dbc601a60058460ff16901b1784610e4d90919063ffffffff16565b50610ddd8167ffffffffffffffff16600485610e6d9092919063ffffffff16565b50610e23565b610e00601b60058460ff16901b1784610e4d90919063ffffffff16565b50610e218167ffffffffffffffff16600885610e6d9092919063ffffffff16565b505b5b5b5b505050565b610e33611196565b610e4583846000015151848551610e8f565b905092915050565b610e55611196565b610e658384600001515184610f7e565b905092915050565b610e75611196565b610e86848560000151518585610fd5565b90509392505050565b610e97611196565b8251821115610ea557600080fd5b84602001518285610eb691906118f2565b1115610eeb57610eea856002610edb88602001518887610ed691906118f2565b611063565b610ee59190611aea565b61107f565b5b600080865180518760208301019350808887011115610f0a5787860182525b60208701925050505b60208410610f515780518252602082610f2c91906118f2565b9150602081610f3b91906118f2565b9050602084610f4a9190611b44565b9350610f13565b60006001856020036101000a03905080198251168184511681811785525050508692505050949350505050565b610f86611196565b83602001518310610fac57610fab8460028660200151610fa69190611aea565b61107f565b5b8351805160208583010184815381861415610fc8576001820183525b5050508390509392505050565b610fdd611196565b84602001518483610fee91906118f2565b111561101657611015856002868561100691906118f2565b6110109190611aea565b61107f565b5b600060018361010061102891906119cc565b6110329190611b44565b905085518386820101858319825116178152815185880111156110555784870182525b505085915050949350505050565b60008183111561107557829050611079565b8190505b92915050565b6000826000015190506110928383610c3c565b5061109d8382610e2b565b50505050565b8280546110af90611c86565b90600052602060002090601f0160209004810192826110d15760008555611118565b82601f106110ea57805160ff1916838001178555611118565b82800160010185558215611118579182015b828111156111175782518255916020019190600101906110fc565b5b50905061112591906111b0565b5090565b6040518060a0016040528060008019168152602001600073ffffffffffffffffffffffffffffffffffffffff16815260200160007bffffffffffffffffffffffffffffffffffffffffffffffffffffffff1916815260200160008152602001611190611196565b81525090565b604051806040016040528060608152602001600081525090565b5b808211156111c95760008160009055506001016111b1565b5090565b60006111e06111db8461188a565b611859565b9050828152602081018484840111156111f857600080fd5b611203848285611c1a565b509392505050565b60008151905061121a81611e47565b92915050565b60008135905061122f81611e5e565b92915050565b600082601f83011261124657600080fd5b81356112568482602086016111cd565b91505092915050565b60008135905061126e81611e75565b92915050565b60006020828403121561128657600080fd5b60006112948482850161120b565b91505092915050565b6000602082840312156112af57600080fd5b60006112bd84828501611220565b91505092915050565b600080604083850312156112d957600080fd5b60006112e785828601611220565b92505060206112f88582860161125f565b9150509250929050565b60008060006060848603121561131757600080fd5b600084013567ffffffffffffffff81111561133157600080fd5b61133d86828701611235565b935050602061134e8682870161125f565b925050604061135f8682870161125f565b9150509250925092565b60006020828403121561137b57600080fd5b60006113898482850161125f565b91505092915050565b600080604083850312156113a557600080fd5b60006113b38582860161125f565b925050602083013567ffffffffffffffff8111156113d057600080fd5b6113dc85828601611235565b9150509250929050565b6113ef81611b78565b82525050565b6113fe81611b96565b82525050565b61140d81611ba0565b82525050565b600061141e826118ba565b61142881856118d0565b9350611438818560208601611c29565b61144181611e1c565b840191505092915050565b61145d61145882611bf6565b611d01565b82525050565b600061146e826118c5565b61147881856118e1565b9350611488818560208601611c29565b61149181611e1c565b840191505092915050565b60006114a96014836118e1565b91507f426174636820646f6573206e6f742065786973740000000000000000000000006000830152602082019050919050565b60006114e96023836118e1565b91507f756e61626c6520746f207472616e73666572416e6443616c6c20746f206f726160008301527f636c6500000000000000000000000000000000000000000000000000000000006020830152604082019050919050565b600061154f6028836118e1565b91507f536f75726365206d75737420626520746865206f7261636c65206f662074686560008301527f20726571756573740000000000000000000000000000000000000000000000006020830152604082019050919050565b6115b181611bec565b82525050565b6115c86115c382611bec565b611d25565b82525050565b60006115da828561144c565b6014820191506115ea82846115b7565b6020820191508190509392505050565b600061010082019050611610600083018b6113e6565b61161d602083018a6115a8565b61162a60408301896113f5565b61163760608301886113e6565b6116446080830187611404565b61165160a08301866115a8565b61165e60c08301856115a8565b81810360e08301526116708184611413565b90509998505050505050505050565b600060608201905061169460008301866113e6565b6116a160208301856115a8565b81810360408301526116b38184611413565b9050949350505050565b60006020820190506116d260008301846113f5565b92915050565b600060208201905081810360008301526116f18161149c565b9050919050565b60006020820190508181036000830152611711816114dc565b9050919050565b6000602082019050818103600083015261173181611542565b9050919050565b600060208201905061174d60008301846115a8565b92915050565b600060408201905061176860008301856115a8565b818103602083015261177a8184611463565b90509392505050565b600060808201905061179860008301876115a8565b81810360208301526117aa8186611463565b90506117b960408301856115a8565b6117c660608301846115a8565b95945050505050565b600060a0820190506117e460008301886115a8565b81810360208301526117f68187611463565b905061180560408301866115a8565b61181260608301856115a8565b81810360808301526118248184611463565b90509695505050505050565b600060408201905061184560008301856115a8565b61185260208301846115a8565b9392505050565b6000604051905081810181811067ffffffffffffffff821117156118805761187f611ded565b5b8060405250919050565b600067ffffffffffffffff8211156118a5576118a4611ded565b5b601f19601f8301169050602081019050919050565b600081519050919050565b600081519050919050565b600082825260208201905092915050565b600082825260208201905092915050565b60006118fd82611bec565b915061190883611bec565b9250827fffffffffffffffffffffffffffffffffffffffffffffffffffffffffffffffff0382111561193d5761193c611d60565b5b828201905092915050565b600061195382611bec565b915061195e83611bec565b92508261196e5761196d611d8f565b5b828204905092915050565b6000808291508390505b60018511156119c35780860481111561199f5761199e611d60565b5b60018516156119ae5780820291505b80810290506119bc85611e3a565b9450611983565b94509492505050565b60006119d782611bec565b91506119e283611bec565b9250611a0f7fffffffffffffffffffffffffffffffffffffffffffffffffffffffffffffffff8484611a17565b905092915050565b600082611a275760019050611ae3565b81611a355760009050611ae3565b8160018114611a4b5760028114611a5557611a84565b6001915050611ae3565b60ff841115611a6757611a66611d60565b5b8360020a915084821115611a7e57611a7d611d60565b5b50611ae3565b5060208310610133831016604e8410600b8410161715611ab95782820a905083811115611ab457611ab3611d60565b5b611ae3565b611ac68484846001611979565b92509050818404811115611add57611adc611d60565b5b81810290505b9392505050565b6000611af582611bec565b9150611b0083611bec565b9250817fffffffffffffffffffffffffffffffffffffffffffffffffffffffffffffffff0483118215151615611b3957611b38611d60565b5b828202905092915050565b6000611b4f82611bec565b9150611b5a83611bec565b925082821015611b6d57611b6c611d60565b5b828203905092915050565b6000611b8382611bcc565b9050919050565b60008115159050919050565b6000819050919050565b60007fffffffff0000000000000000000000000000000000000000000000000000000082169050919050565b600073ffffffffffffffffffffffffffffffffffffffff82169050919050565b6000819050919050565b6000611c0182611c08565b9050919050565b6000611c1382611bcc565b9050919050565b82818337600083830152505050565b60005b83811015611c47578082015181840152602081019050611c2c565b83811115611c56576000848401525b50505050565b6000611c6782611bec565b91506000821415611c7b57611c7a611d60565b5b600182039050919050565b60006002820490506001821680611c9e57607f821691505b60208210811415611cb257611cb1611dbe565b5b50919050565b6000611cc382611bec565b91507fffffffffffffffffffffffffffffffffffffffffffffffffffffffffffffffff821415611cf657611cf5611d60565b5b600182019050919050565b6000611d0c82611d13565b9050919050565b6000611d1e82611e2d565b9050919050565b6000819050919050565b6000611d3a82611bec565b9150611d4583611bec565b925082611d5557611d54611d8f565b5b828206905092915050565b7f4e487b7100000000000000000000000000000000000000000000000000000000600052601160045260246000fd5b7f4e487b7100000000000000000000000000000000000000000000000000000000600052601260045260246000fd5b7f4e487b7100000000000000000000000000000000000000000000000000000000600052602260045260246000fd5b7f4e487b7100000000000000000000000000000000000000000000000000000000600052604160045260246000fd5b6000601f19601f8301169050919050565b60008160601b9050919050565b60008160011c9050919050565b611e5081611b8a565b8114611e5b57600080fd5b50565b611e6781611b96565b8114611e7257600080fd5b50565b611e7e81611bec565b8114611e8957600080fd5b5056fea2646970667358221220a41cb9c99bb7c57d3dc65192dbb6c5906465c123ff62b97d1ed82028210cd77d64736f6c63430008000033","opcodes":"PUSH1 0x80 PUSH1 0x40 MSTORE PUSH1 0x1 PUSH1 0x4 SSTORE PUSH1 0x1E PUSH1 0x9 SSTORE CALLVALUE DUP1 ISZERO PUSH3 0x1B JUMPI PUSH1 0x0 DUP1 REVERT JUMPDEST POP PUSH3 0x2C PUSH3 0xBD PUSH1 0x20 SHL PUSH1 0x20 SHR JUMP JUMPDEST PUSH20 0x7AFE30CB3E53DBA6801AA0EA647A0B1099ABD5E6 PUSH1 0xA PUSH1 0x0 PUSH2 0x100 EXP DUP2 SLOAD DUP2 PUSH20 0xFFFFFFFFFFFFFFFFFFFFFFFFFFFFFFFFFFFFFFFF MUL NOT AND SWAP1 DUP4 PUSH20 0xFFFFFFFFFFFFFFFFFFFFFFFFFFFFFFFFFFFFFFFF AND MUL OR SWAP1 SSTORE POP PUSH32 0x6435323730643163333131393431643062303862656164323166656137373437 PUSH1 0xB DUP2 SWAP1 SSTORE POP PUSH8 0x16345785D8A0000 PUSH1 0xC DUP2 SWAP1 SSTORE POP PUSH3 0x23A JUMP JUMPDEST PUSH3 0x163 PUSH20 0xC89BD4E1632D3A43CB03AAAD5262CBE4038BC571 PUSH20 0xFFFFFFFFFFFFFFFFFFFFFFFFFFFFFFFFFFFFFFFF AND PUSH4 0x38CC4831 PUSH1 0x40 MLOAD DUP2 PUSH4 0xFFFFFFFF AND PUSH1 0xE0 SHL DUP2 MSTORE PUSH1 0x4 ADD PUSH1 0x20 PUSH1 0x40 MLOAD DUP1 DUP4 SUB DUP2 DUP7 DUP1 EXTCODESIZE ISZERO DUP1 ISZERO PUSH3 0x11C JUMPI PUSH1 0x0 DUP1 REVERT JUMPDEST POP GAS STATICCALL ISZERO DUP1 ISZERO PUSH3 0x131 JUMPI RETURNDATASIZE PUSH1 0x0 DUP1 RETURNDATACOPY RETURNDATASIZE PUSH1 0x0 REVERT JUMPDEST POP POP POP POP PUSH1 0x40 MLOAD RETURNDATASIZE PUSH1 0x1F NOT PUSH1 0x1F DUP3 ADD AND DUP3 ADD DUP1 PUSH1 0x40 MSTORE POP DUP2 ADD SWAP1 PUSH3 0x157 SWAP2 SWAP1 PUSH3 0x1C0 JUMP JUMPDEST PUSH3 0x165 PUSH1 0x20 SHL PUSH1 0x20 SHR JUMP JUMPDEST JUMP JUMPDEST DUP1 PUSH1 0x2 PUSH1 0x0 PUSH2 0x100 EXP DUP2 SLOAD DUP2 PUSH20 0xFFFFFFFFFFFFFFFFFFFFFFFFFFFFFFFFFFFFFFFF MUL NOT AND SWAP1 DUP4 PUSH20 0xFFFFFFFFFFFFFFFFFFFFFFFFFFFFFFFFFFFFFFFF AND MUL OR SWAP1 SSTORE POP POP JUMP JUMPDEST PUSH1 0x0 DUP2 MLOAD SWAP1 POP PUSH3 0x1BA DUP2 PUSH3 0x220 JUMP JUMPDEST SWAP3 SWAP2 POP POP JUMP JUMPDEST PUSH1 0x0 PUSH1 0x20 DUP3 DUP5 SUB SLT ISZERO PUSH3 0x1D3 JUMPI PUSH1 0x0 DUP1 REVERT JUMPDEST PUSH1 0x0 PUSH3 0x1E3 DUP5 DUP3 DUP6 ADD PUSH3 0x1A9 JUMP JUMPDEST SWAP2 POP POP SWAP3 SWAP2 POP POP JUMP JUMPDEST PUSH1 0x0 PUSH3 0x1F9 DUP3 PUSH3 0x200 JUMP JUMPDEST SWAP1 POP SWAP2 SWAP1 POP JUMP JUMPDEST PUSH1 0x0 PUSH20 0xFFFFFFFFFFFFFFFFFFFFFFFFFFFFFFFFFFFFFFFF DUP3 AND SWAP1 POP SWAP2 SWAP1 POP JUMP JUMPDEST PUSH3 0x22B DUP2 PUSH3 0x1EC JUMP JUMPDEST DUP2 EQ PUSH3 0x237 JUMPI PUSH1 0x0 DUP1 REVERT JUMPDEST POP JUMP JUMPDEST PUSH2 0x1EC2 DUP1 PUSH3 0x24A PUSH1 0x0 CODECOPY PUSH1 0x0 RETURN INVALID PUSH1 0x80 PUSH1 0x40 MSTORE CALLVALUE DUP1 ISZERO PUSH2 0x10 JUMPI PUSH1 0x0 DUP1 REVERT JUMPDEST POP PUSH1 0x4 CALLDATASIZE LT PUSH2 0x7D JUMPI PUSH1 0x0 CALLDATALOAD PUSH1 0xE0 SHR DUP1 PUSH4 0x8207FD85 GT PUSH2 0x5B JUMPI DUP1 PUSH4 0x8207FD85 EQ PUSH2 0xFE JUMPI DUP1 PUSH4 0x8462A7F8 EQ PUSH2 0x11A JUMPI DUP1 PUSH4 0xB32C4D8D EQ PUSH2 0x138 JUMPI DUP1 PUSH4 0xE7F25C6E EQ PUSH2 0x16C JUMPI PUSH2 0x7D JUMP JUMPDEST DUP1 PUSH4 0x39E25BAD EQ PUSH2 0x82 JUMPI DUP1 PUSH4 0x4357855E EQ PUSH2 0xB2 JUMPI DUP1 PUSH4 0x496781D0 EQ PUSH2 0xCE JUMPI JUMPDEST PUSH1 0x0 DUP1 REVERT JUMPDEST PUSH2 0x9C PUSH1 0x4 DUP1 CALLDATASIZE SUB DUP2 ADD SWAP1 PUSH2 0x97 SWAP2 SWAP1 PUSH2 0x129D JUMP JUMPDEST PUSH2 0x188 JUMP JUMPDEST PUSH1 0x40 MLOAD PUSH2 0xA9 SWAP2 SWAP1 PUSH2 0x1738 JUMP JUMPDEST PUSH1 0x40 MLOAD DUP1 SWAP2 SUB SWAP1 RETURN JUMPDEST PUSH2 0xCC PUSH1 0x4 DUP1 CALLDATASIZE SUB DUP2 ADD SWAP1 PUSH2 0xC7 SWAP2 SWAP1 PUSH2 0x12C6 JUMP JUMPDEST PUSH2 0x1A0 JUMP JUMPDEST STOP JUMPDEST PUSH2 0xE8 PUSH1 0x4 DUP1 CALLDATASIZE SUB DUP2 ADD SWAP1 PUSH2 0xE3 SWAP2 SWAP1 PUSH2 0x1369 JUMP JUMPDEST PUSH2 0x307 JUMP JUMPDEST PUSH1 0x40 MLOAD PUSH2 0xF5 SWAP2 SWAP1 PUSH2 0x16BD JUMP JUMPDEST PUSH1 0x40 MLOAD DUP1 SWAP2 SUB SWAP1 RETURN JUMPDEST PUSH2 0x118 PUSH1 0x4 DUP1 CALLDATASIZE SUB DUP2 ADD SWAP1 PUSH2 0x113 SWAP2 SWAP1 PUSH2 0x1392 JUMP JUMPDEST PUSH2 0x3C1 JUMP JUMPDEST STOP JUMPDEST PUSH2 0x122 PUSH2 0x46D JUMP JUMPDEST PUSH1 0x40 MLOAD PUSH2 0x12F SWAP2 SWAP1 PUSH2 0x1738 JUMP JUMPDEST PUSH1 0x40 MLOAD DUP1 SWAP2 SUB SWAP1 RETURN JUMPDEST PUSH2 0x152 PUSH1 0x4 DUP1 CALLDATASIZE SUB DUP2 ADD SWAP1 PUSH2 0x14D SWAP2 SWAP1 PUSH2 0x1369 JUMP JUMPDEST PUSH2 0x473 JUMP JUMPDEST PUSH1 0x40 MLOAD PUSH2 0x163 SWAP6 SWAP5 SWAP4 SWAP3 SWAP2 SWAP1 PUSH2 0x17CF JUMP JUMPDEST PUSH1 0x40 MLOAD DUP1 SWAP2 SUB SWAP1 RETURN JUMPDEST PUSH2 0x186 PUSH1 0x4 DUP1 CALLDATASIZE SUB DUP2 ADD SWAP1 PUSH2 0x181 SWAP2 SWAP1 PUSH2 0x1302 JUMP JUMPDEST PUSH2 0x5B9 JUMP JUMPDEST STOP JUMPDEST PUSH1 0x7 PUSH1 0x20 MSTORE DUP1 PUSH1 0x0 MSTORE PUSH1 0x40 PUSH1 0x0 KECCAK256 PUSH1 0x0 SWAP2 POP SWAP1 POP SLOAD DUP2 JUMP JUMPDEST DUP2 PUSH1 0x5 PUSH1 0x0 DUP3 DUP2 MSTORE PUSH1 0x20 ADD SWAP1 DUP2 MSTORE PUSH1 0x20 ADD PUSH1 0x0 KECCAK256 PUSH1 0x0 SWAP1 SLOAD SWAP1 PUSH2 0x100 EXP SWAP1 DIV PUSH20 0xFFFFFFFFFFFFFFFFFFFFFFFFFFFFFFFFFFFFFFFF AND PUSH20 0xFFFFFFFFFFFFFFFFFFFFFFFFFFFFFFFFFFFFFFFF AND CALLER PUSH20 0xFFFFFFFFFFFFFFFFFFFFFFFFFFFFFFFFFFFFFFFF AND EQ PUSH2 0x242 JUMPI PUSH1 0x40 MLOAD PUSH32 0x8C379A000000000000000000000000000000000000000000000000000000000 DUP2 MSTORE PUSH1 0x4 ADD PUSH2 0x239 SWAP1 PUSH2 0x1718 JUMP JUMPDEST PUSH1 0x40 MLOAD DUP1 SWAP2 SUB SWAP1 REVERT JUMPDEST PUSH1 0x5 PUSH1 0x0 DUP3 DUP2 MSTORE PUSH1 0x20 ADD SWAP1 DUP2 MSTORE PUSH1 0x20 ADD PUSH1 0x0 KECCAK256 PUSH1 0x0 PUSH2 0x100 EXP DUP2 SLOAD SWAP1 PUSH20 0xFFFFFFFFFFFFFFFFFFFFFFFFFFFFFFFFFFFFFFFF MUL NOT AND SWAP1 SSTORE DUP1 PUSH32 0x7CC135E0CEBB02C3480AE5D74D377283180A2601F8F644EDF7987B009316C63A PUSH1 0x40 MLOAD PUSH1 0x40 MLOAD DUP1 SWAP2 SUB SWAP1 LOG2 PUSH1 0x0 PUSH1 0x7 PUSH1 0x0 DUP6 DUP2 MSTORE PUSH1 0x20 ADD SWAP1 DUP2 MSTORE PUSH1 0x20 ADD PUSH1 0x0 KECCAK256 SLOAD SWAP1 POP PUSH1 0x9 SLOAD DUP4 GT ISZERO PUSH2 0x301 JUMPI PUSH32 0xC63B563CB63FFAD76BBC9E8CEAAD18081512169728708708CE00E240E22C8A01 DUP2 DUP5 PUSH1 0x40 MLOAD PUSH2 0x2F8 SWAP3 SWAP2 SWAP1 PUSH2 0x1830 JUMP JUMPDEST PUSH1 0x40 MLOAD DUP1 SWAP2 SUB SWAP1 LOG1 JUMPDEST POP POP POP POP JUMP JUMPDEST PUSH1 0x0 DUP1 PUSH2 0x31E PUSH1 0xB SLOAD ADDRESS PUSH4 0x4357855E PUSH1 0xE0 SHL PUSH2 0x6E3 JUMP JUMPDEST SWAP1 POP PUSH2 0x372 PUSH1 0x40 MLOAD DUP1 PUSH1 0x40 ADD PUSH1 0x40 MSTORE DUP1 PUSH1 0x7 DUP2 MSTORE PUSH1 0x20 ADD PUSH32 0x6261746368496400000000000000000000000000000000000000000000000000 DUP2 MSTORE POP PUSH2 0x362 DUP6 PUSH2 0x714 JUMP JUMPDEST DUP4 PUSH2 0x8C4 SWAP1 SWAP3 SWAP2 SWAP1 PUSH4 0xFFFFFFFF AND JUMP JUMPDEST PUSH2 0x3A1 PUSH1 0xA PUSH1 0x0 SWAP1 SLOAD SWAP1 PUSH2 0x100 EXP SWAP1 DIV PUSH20 0xFFFFFFFFFFFFFFFFFFFFFFFFFFFFFFFFFFFFFFFF AND DUP3 PUSH1 0xC SLOAD PUSH2 0x8F7 JUMP JUMPDEST SWAP2 POP DUP3 PUSH1 0x7 PUSH1 0x0 DUP5 DUP2 MSTORE PUSH1 0x20 ADD SWAP1 DUP2 MSTORE PUSH1 0x20 ADD PUSH1 0x0 KECCAK256 DUP2 SWAP1 SSTORE POP POP SWAP2 SWAP1 POP JUMP JUMPDEST PUSH1 0x8 SLOAD DUP3 LT PUSH2 0x405 JUMPI PUSH1 0x40 MLOAD PUSH32 0x8C379A000000000000000000000000000000000000000000000000000000000 DUP2 MSTORE PUSH1 0x4 ADD PUSH2 0x3FC SWAP1 PUSH2 0x16D8 JUMP JUMPDEST PUSH1 0x40 MLOAD DUP1 SWAP2 SUB SWAP1 REVERT JUMPDEST DUP1 PUSH1 0x6 PUSH1 0x0 DUP5 DUP2 MSTORE PUSH1 0x20 ADD SWAP1 DUP2 MSTORE PUSH1 0x20 ADD PUSH1 0x0 KECCAK256 PUSH1 0x4 ADD SWAP1 DUP1 MLOAD SWAP1 PUSH1 0x20 ADD SWAP1 PUSH2 0x42F SWAP3 SWAP2 SWAP1 PUSH2 0x10A3 JUMP JUMPDEST POP PUSH32 0xCC1163B9F5B7A48FEB09E3106D97FE333E2B9B8D72544E2F9D4470F483E5214E DUP3 DUP3 PUSH1 0x40 MLOAD PUSH2 0x461 SWAP3 SWAP2 SWAP1 PUSH2 0x1753 JUMP JUMPDEST PUSH1 0x40 MLOAD DUP1 SWAP2 SUB SWAP1 LOG1 POP POP JUMP JUMPDEST PUSH1 0x8 SLOAD DUP2 JUMP JUMPDEST PUSH1 0x6 PUSH1 0x20 MSTORE DUP1 PUSH1 0x0 MSTORE PUSH1 0x40 PUSH1 0x0 KECCAK256 PUSH1 0x0 SWAP2 POP SWAP1 POP DUP1 PUSH1 0x0 ADD SLOAD SWAP1 DUP1 PUSH1 0x1 ADD DUP1 SLOAD PUSH2 0x49C SWAP1 PUSH2 0x1C86 JUMP JUMPDEST DUP1 PUSH1 0x1F ADD PUSH1 0x20 DUP1 SWAP2 DIV MUL PUSH1 0x20 ADD PUSH1 0x40 MLOAD SWAP1 DUP2 ADD PUSH1 0x40 MSTORE DUP1 SWAP3 SWAP2 SWAP1 DUP2 DUP2 MSTORE PUSH1 0x20 ADD DUP3 DUP1 SLOAD PUSH2 0x4C8 SWAP1 PUSH2 0x1C86 JUMP JUMPDEST DUP1 ISZERO PUSH2 0x515 JUMPI DUP1 PUSH1 0x1F LT PUSH2 0x4EA JUMPI PUSH2 0x100 DUP1 DUP4 SLOAD DIV MUL DUP4 MSTORE SWAP2 PUSH1 0x20 ADD SWAP2 PUSH2 0x515 JUMP JUMPDEST DUP3 ADD SWAP2 SWAP1 PUSH1 0x0 MSTORE PUSH1 0x20 PUSH1 0x0 KECCAK256 SWAP1 JUMPDEST DUP2 SLOAD DUP2 MSTORE SWAP1 PUSH1 0x1 ADD SWAP1 PUSH1 0x20 ADD DUP1 DUP4 GT PUSH2 0x4F8 JUMPI DUP3 SWAP1 SUB PUSH1 0x1F AND DUP3 ADD SWAP2 JUMPDEST POP POP POP POP POP SWAP1 DUP1 PUSH1 0x2 ADD SLOAD SWAP1 DUP1 PUSH1 0x3 ADD SLOAD SWAP1 DUP1 PUSH1 0x4 ADD DUP1 SLOAD PUSH2 0x536 SWAP1 PUSH2 0x1C86 JUMP JUMPDEST DUP1 PUSH1 0x1F ADD PUSH1 0x20 DUP1 SWAP2 DIV MUL PUSH1 0x20 ADD PUSH1 0x40 MLOAD SWAP1 DUP2 ADD PUSH1 0x40 MSTORE DUP1 SWAP3 SWAP2 SWAP1 DUP2 DUP2 MSTORE PUSH1 0x20 ADD DUP3 DUP1 SLOAD PUSH2 0x562 SWAP1 PUSH2 0x1C86 JUMP JUMPDEST DUP1 ISZERO PUSH2 0x5AF JUMPI DUP1 PUSH1 0x1F LT PUSH2 0x584 JUMPI PUSH2 0x100 DUP1 DUP4 SLOAD DIV MUL DUP4 MSTORE SWAP2 PUSH1 0x20 ADD SWAP2 PUSH2 0x5AF JUMP JUMPDEST DUP3 ADD SWAP2 SWAP1 PUSH1 0x0 MSTORE PUSH1 0x20 PUSH1 0x0 KECCAK256 SWAP1 JUMPDEST DUP2 SLOAD DUP2 MSTORE SWAP1 PUSH1 0x1 ADD SWAP1 PUSH1 0x20 ADD DUP1 DUP4 GT PUSH2 0x592 JUMPI DUP3 SWAP1 SUB PUSH1 0x1F AND DUP3 ADD SWAP2 JUMPDEST POP POP POP POP POP SWAP1 POP DUP6 JUMP JUMPDEST PUSH1 0x40 MLOAD DUP1 PUSH1 0xA0 ADD PUSH1 0x40 MSTORE DUP1 PUSH1 0x8 SLOAD DUP2 MSTORE PUSH1 0x20 ADD DUP5 DUP2 MSTORE PUSH1 0x20 ADD DUP4 DUP2 MSTORE PUSH1 0x20 ADD DUP3 DUP2 MSTORE PUSH1 0x20 ADD PUSH1 0x40 MLOAD DUP1 PUSH1 0x40 ADD PUSH1 0x40 MSTORE DUP1 PUSH1 0x7 DUP2 MSTORE PUSH1 0x20 ADD PUSH32 0x4372656174656400000000000000000000000000000000000000000000000000 DUP2 MSTORE POP DUP2 MSTORE POP PUSH1 0x6 PUSH1 0x0 PUSH1 0x8 SLOAD DUP2 MSTORE PUSH1 0x20 ADD SWAP1 DUP2 MSTORE PUSH1 0x20 ADD PUSH1 0x0 KECCAK256 PUSH1 0x0 DUP3 ADD MLOAD DUP2 PUSH1 0x0 ADD SSTORE PUSH1 0x20 DUP3 ADD MLOAD DUP2 PUSH1 0x1 ADD SWAP1 DUP1 MLOAD SWAP1 PUSH1 0x20 ADD SWAP1 PUSH2 0x652 SWAP3 SWAP2 SWAP1 PUSH2 0x10A3 JUMP JUMPDEST POP PUSH1 0x40 DUP3 ADD MLOAD DUP2 PUSH1 0x2 ADD SSTORE PUSH1 0x60 DUP3 ADD MLOAD DUP2 PUSH1 0x3 ADD SSTORE PUSH1 0x80 DUP3 ADD MLOAD DUP2 PUSH1 0x4 ADD SWAP1 DUP1 MLOAD SWAP1 PUSH1 0x20 ADD SWAP1 PUSH2 0x683 SWAP3 SWAP2 SWAP1 PUSH2 0x10A3 JUMP JUMPDEST POP SWAP1 POP POP PUSH32 0xCFC3A8401549578CDC3A4450882D09189A820561EBADB683B484BC6BD62DD4EF PUSH1 0x8 SLOAD DUP5 DUP5 DUP5 PUSH1 0x40 MLOAD PUSH2 0x6BE SWAP5 SWAP4 SWAP3 SWAP2 SWAP1 PUSH2 0x1783 JUMP JUMPDEST PUSH1 0x40 MLOAD DUP1 SWAP2 SUB SWAP1 LOG1 PUSH1 0x8 PUSH1 0x0 DUP2 SLOAD DUP1 SWAP3 SWAP2 SWAP1 PUSH2 0x6D9 SWAP1 PUSH2 0x1CB8 JUMP JUMPDEST SWAP2 SWAP1 POP SSTORE POP POP POP POP JUMP JUMPDEST PUSH2 0x6EB PUSH2 0x1129 JUMP JUMPDEST PUSH2 0x6F3 PUSH2 0x1129 JUMP JUMPDEST PUSH2 0x70A DUP6 DUP6 DUP6 DUP5 PUSH2 0x9C3 SWAP1 SWAP4 SWAP3 SWAP2 SWAP1 PUSH4 0xFFFFFFFF AND JUMP JUMPDEST SWAP2 POP POP SWAP4 SWAP3 POP POP POP JUMP JUMPDEST PUSH1 0x60 PUSH1 0x0 DUP3 EQ ISZERO PUSH2 0x75C JUMPI PUSH1 0x40 MLOAD DUP1 PUSH1 0x40 ADD PUSH1 0x40 MSTORE DUP1 PUSH1 0x1 DUP2 MSTORE PUSH1 0x20 ADD PUSH32 0x3000000000000000000000000000000000000000000000000000000000000000 DUP2 MSTORE POP SWAP1 POP PUSH2 0x8BF JUMP JUMPDEST PUSH1 0x0 DUP3 SWAP1 POP PUSH1 0x0 JUMPDEST PUSH1 0x0 DUP3 EQ PUSH2 0x78E JUMPI DUP1 DUP1 PUSH2 0x777 SWAP1 PUSH2 0x1CB8 JUMP JUMPDEST SWAP2 POP POP PUSH1 0xA DUP3 PUSH2 0x787 SWAP2 SWAP1 PUSH2 0x1948 JUMP JUMPDEST SWAP2 POP PUSH2 0x764 JUMP JUMPDEST PUSH1 0x0 DUP2 PUSH8 0xFFFFFFFFFFFFFFFF DUP2 GT ISZERO PUSH2 0x7D0 JUMPI PUSH32 0x4E487B7100000000000000000000000000000000000000000000000000000000 PUSH1 0x0 MSTORE PUSH1 0x41 PUSH1 0x4 MSTORE PUSH1 0x24 PUSH1 0x0 REVERT JUMPDEST PUSH1 0x40 MLOAD SWAP1 DUP1 DUP3 MSTORE DUP1 PUSH1 0x1F ADD PUSH1 0x1F NOT AND PUSH1 0x20 ADD DUP3 ADD PUSH1 0x40 MSTORE DUP1 ISZERO PUSH2 0x802 JUMPI DUP2 PUSH1 0x20 ADD PUSH1 0x1 DUP3 MUL DUP1 CALLDATASIZE DUP4 CALLDATACOPY DUP1 DUP3 ADD SWAP2 POP POP SWAP1 POP JUMPDEST POP SWAP1 POP PUSH1 0x0 DUP3 SWAP1 POP JUMPDEST PUSH1 0x0 DUP7 EQ PUSH2 0x8B7 JUMPI PUSH1 0xA DUP7 PUSH2 0x820 SWAP2 SWAP1 PUSH2 0x1D2F JUMP JUMPDEST PUSH1 0x30 PUSH2 0x82C SWAP2 SWAP1 PUSH2 0x18F2 JUMP JUMPDEST PUSH1 0xF8 SHL DUP3 DUP3 PUSH2 0x83A SWAP1 PUSH2 0x1C5C JUMP JUMPDEST SWAP3 POP DUP3 DUP2 MLOAD DUP2 LT PUSH2 0x874 JUMPI PUSH32 0x4E487B7100000000000000000000000000000000000000000000000000000000 PUSH1 0x0 MSTORE PUSH1 0x32 PUSH1 0x4 MSTORE PUSH1 0x24 PUSH1 0x0 REVERT JUMPDEST PUSH1 0x20 ADD ADD SWAP1 PUSH31 0xFFFFFFFFFFFFFFFFFFFFFFFFFFFFFFFFFFFFFFFFFFFFFFFFFFFFFFFFFFFFFF NOT AND SWAP1 DUP2 PUSH1 0x0 BYTE SWAP1 MSTORE8 POP PUSH1 0xA DUP7 PUSH2 0x8B0 SWAP2 SWAP1 PUSH2 0x1948 JUMP JUMPDEST SWAP6 POP PUSH2 0x80B JUMP JUMPDEST DUP2 SWAP5 POP POP POP POP POP JUMPDEST SWAP2 SWAP1 POP JUMP JUMPDEST PUSH2 0x8DB DUP3 DUP5 PUSH1 0x80 ADD MLOAD PUSH2 0xA73 SWAP1 SWAP2 SWAP1 PUSH4 0xFFFFFFFF AND JUMP JUMPDEST PUSH2 0x8F2 DUP2 DUP5 PUSH1 0x80 ADD MLOAD PUSH2 0xA73 SWAP1 SWAP2 SWAP1 PUSH4 0xFFFFFFFF AND JUMP JUMPDEST POP POP POP JUMP JUMPDEST PUSH1 0x0 DUP1 PUSH1 0x4 SLOAD SWAP1 POP PUSH1 0x1 DUP2 PUSH2 0x90C SWAP2 SWAP1 PUSH2 0x18F2 JUMP JUMPDEST PUSH1 0x4 DUP2 SWAP1 SSTORE POP PUSH1 0x0 PUSH4 0x40429946 PUSH1 0xE0 SHL PUSH1 0x0 DUP1 DUP8 PUSH1 0x0 ADD MLOAD ADDRESS DUP10 PUSH1 0x40 ADD MLOAD DUP8 PUSH1 0x1 DUP13 PUSH1 0x80 ADD MLOAD PUSH1 0x0 ADD MLOAD PUSH1 0x40 MLOAD PUSH1 0x24 ADD PUSH2 0x94D SWAP9 SWAP8 SWAP7 SWAP6 SWAP5 SWAP4 SWAP3 SWAP2 SWAP1 PUSH2 0x15FA JUMP JUMPDEST PUSH1 0x40 MLOAD PUSH1 0x20 DUP2 DUP4 SUB SUB DUP2 MSTORE SWAP1 PUSH1 0x40 MSTORE SWAP1 PUSH28 0xFFFFFFFFFFFFFFFFFFFFFFFFFFFFFFFFFFFFFFFFFFFFFFFFFFFFFFFF NOT AND PUSH1 0x20 DUP3 ADD DUP1 MLOAD PUSH28 0xFFFFFFFFFFFFFFFFFFFFFFFFFFFFFFFFFFFFFFFFFFFFFFFFFFFFFFFF DUP4 DUP2 DUP4 AND OR DUP4 MSTORE POP POP POP POP SWAP1 POP PUSH2 0x9B8 DUP7 DUP4 DUP7 DUP5 PUSH2 0xA98 JUMP JUMPDEST SWAP3 POP POP POP SWAP4 SWAP3 POP POP POP JUMP JUMPDEST PUSH2 0x9CB PUSH2 0x1129 JUMP JUMPDEST PUSH2 0x9DB DUP6 PUSH1 0x80 ADD MLOAD PUSH2 0x100 PUSH2 0xC3C JUMP JUMPDEST POP DUP4 DUP6 PUSH1 0x0 ADD DUP2 DUP2 MSTORE POP POP DUP3 DUP6 PUSH1 0x20 ADD SWAP1 PUSH20 0xFFFFFFFFFFFFFFFFFFFFFFFFFFFFFFFFFFFFFFFF AND SWAP1 DUP2 PUSH20 0xFFFFFFFFFFFFFFFFFFFFFFFFFFFFFFFFFFFFFFFF AND DUP2 MSTORE POP POP DUP2 DUP6 PUSH1 0x40 ADD SWAP1 PUSH28 0xFFFFFFFFFFFFFFFFFFFFFFFFFFFFFFFFFFFFFFFFFFFFFFFFFFFFFFFF NOT AND SWAP1 DUP2 PUSH28 0xFFFFFFFFFFFFFFFFFFFFFFFFFFFFFFFFFFFFFFFFFFFFFFFFFFFFFFFF NOT AND DUP2 MSTORE POP POP DUP5 SWAP1 POP SWAP5 SWAP4 POP POP POP POP JUMP JUMPDEST PUSH2 0xA80 DUP3 PUSH1 0x3 DUP4 MLOAD PUSH2 0xCA6 JUMP JUMPDEST PUSH2 0xA93 DUP2 DUP4 PUSH2 0xE2B SWAP1 SWAP2 SWAP1 PUSH4 0xFFFFFFFF AND JUMP JUMPDEST POP POP POP JUMP JUMPDEST PUSH1 0x0 ADDRESS DUP5 PUSH1 0x40 MLOAD PUSH1 0x20 ADD PUSH2 0xAAD SWAP3 SWAP2 SWAP1 PUSH2 0x15CE JUMP JUMPDEST PUSH1 0x40 MLOAD PUSH1 0x20 DUP2 DUP4 SUB SUB DUP2 MSTORE SWAP1 PUSH1 0x40 MSTORE DUP1 MLOAD SWAP1 PUSH1 0x20 ADD KECCAK256 SWAP1 POP DUP5 PUSH1 0x5 PUSH1 0x0 DUP4 DUP2 MSTORE PUSH1 0x20 ADD SWAP1 DUP2 MSTORE PUSH1 0x20 ADD PUSH1 0x0 KECCAK256 PUSH1 0x0 PUSH2 0x100 EXP DUP2 SLOAD DUP2 PUSH20 0xFFFFFFFFFFFFFFFFFFFFFFFFFFFFFFFFFFFFFFFF MUL NOT AND SWAP1 DUP4 PUSH20 0xFFFFFFFFFFFFFFFFFFFFFFFFFFFFFFFFFFFFFFFF AND MUL OR SWAP1 SSTORE POP DUP1 PUSH32 0xB5E6E01E79F91267DC17B4E6314D5D4D03593D2CEEE0FBB452B750BD70EA5AF9 PUSH1 0x40 MLOAD PUSH1 0x40 MLOAD DUP1 SWAP2 SUB SWAP1 LOG2 PUSH1 0x2 PUSH1 0x0 SWAP1 SLOAD SWAP1 PUSH2 0x100 EXP SWAP1 DIV PUSH20 0xFFFFFFFFFFFFFFFFFFFFFFFFFFFFFFFFFFFFFFFF AND PUSH20 0xFFFFFFFFFFFFFFFFFFFFFFFFFFFFFFFFFFFFFFFF AND PUSH4 0x4000AEA0 DUP7 DUP6 DUP6 PUSH1 0x40 MLOAD DUP5 PUSH4 0xFFFFFFFF AND PUSH1 0xE0 SHL DUP2 MSTORE PUSH1 0x4 ADD PUSH2 0xBA3 SWAP4 SWAP3 SWAP2 SWAP1 PUSH2 0x167F JUMP JUMPDEST PUSH1 0x20 PUSH1 0x40 MLOAD DUP1 DUP4 SUB DUP2 PUSH1 0x0 DUP8 DUP1 EXTCODESIZE ISZERO DUP1 ISZERO PUSH2 0xBBD JUMPI PUSH1 0x0 DUP1 REVERT JUMPDEST POP GAS CALL ISZERO DUP1 ISZERO PUSH2 0xBD1 JUMPI RETURNDATASIZE PUSH1 0x0 DUP1 RETURNDATACOPY RETURNDATASIZE PUSH1 0x0 REVERT JUMPDEST POP POP POP POP PUSH1 0x40 MLOAD RETURNDATASIZE PUSH1 0x1F NOT PUSH1 0x1F DUP3 ADD AND DUP3 ADD DUP1 PUSH1 0x40 MSTORE POP DUP2 ADD SWAP1 PUSH2 0xBF5 SWAP2 SWAP1 PUSH2 0x1274 JUMP JUMPDEST PUSH2 0xC34 JUMPI PUSH1 0x40 MLOAD PUSH32 0x8C379A000000000000000000000000000000000000000000000000000000000 DUP2 MSTORE PUSH1 0x4 ADD PUSH2 0xC2B SWAP1 PUSH2 0x16F8 JUMP JUMPDEST PUSH1 0x40 MLOAD DUP1 SWAP2 SUB SWAP1 REVERT JUMPDEST SWAP5 SWAP4 POP POP POP POP JUMP JUMPDEST PUSH2 0xC44 PUSH2 0x1196 JUMP JUMPDEST PUSH1 0x0 PUSH1 0x20 DUP4 PUSH2 0xC53 SWAP2 SWAP1 PUSH2 0x1D2F JUMP JUMPDEST EQ PUSH2 0xC7F JUMPI PUSH1 0x20 DUP3 PUSH2 0xC65 SWAP2 SWAP1 PUSH2 0x1D2F JUMP JUMPDEST PUSH1 0x20 PUSH2 0xC71 SWAP2 SWAP1 PUSH2 0x1B44 JUMP JUMPDEST DUP3 PUSH2 0xC7C SWAP2 SWAP1 PUSH2 0x18F2 JUMP JUMPDEST SWAP2 POP JUMPDEST DUP2 DUP4 PUSH1 0x20 ADD DUP2 DUP2 MSTORE POP POP PUSH1 0x40 MLOAD DUP1 DUP5 MSTORE PUSH1 0x0 DUP2 MSTORE DUP3 DUP2 ADD PUSH1 0x20 ADD PUSH1 0x40 MSTORE POP DUP3 SWAP1 POP SWAP3 SWAP2 POP POP JUMP JUMPDEST PUSH1 0x17 DUP2 PUSH8 0xFFFFFFFFFFFFFFFF AND GT PUSH2 0xCDD JUMPI PUSH2 0xCD7 DUP2 PUSH1 0x5 DUP5 PUSH1 0xFF AND SWAP1 SHL PUSH1 0xFF AND OR DUP5 PUSH2 0xE4D SWAP1 SWAP2 SWAP1 PUSH4 0xFFFFFFFF AND JUMP JUMPDEST POP PUSH2 0xE26 JUMP JUMPDEST PUSH1 0xFF DUP2 PUSH8 0xFFFFFFFFFFFFFFFF AND GT PUSH2 0xD33 JUMPI PUSH2 0xD0C PUSH1 0x18 PUSH1 0x5 DUP5 PUSH1 0xFF AND SWAP1 SHL OR DUP5 PUSH2 0xE4D SWAP1 SWAP2 SWAP1 PUSH4 0xFFFFFFFF AND JUMP JUMPDEST POP PUSH2 0xD2D DUP2 PUSH8 0xFFFFFFFFFFFFFFFF AND PUSH1 0x1 DUP6 PUSH2 0xE6D SWAP1 SWAP3 SWAP2 SWAP1 PUSH4 0xFFFFFFFF AND JUMP JUMPDEST POP PUSH2 0xE25 JUMP JUMPDEST PUSH2 0xFFFF DUP2 PUSH8 0xFFFFFFFFFFFFFFFF AND GT PUSH2 0xD8A JUMPI PUSH2 0xD63 PUSH1 0x19 PUSH1 0x5 DUP5 PUSH1 0xFF AND SWAP1 SHL OR DUP5 PUSH2 0xE4D SWAP1 SWAP2 SWAP1 PUSH4 0xFFFFFFFF AND JUMP JUMPDEST POP PUSH2 0xD84 DUP2 PUSH8 0xFFFFFFFFFFFFFFFF AND PUSH1 0x2 DUP6 PUSH2 0xE6D SWAP1 SWAP3 SWAP2 SWAP1 PUSH4 0xFFFFFFFF AND JUMP JUMPDEST POP PUSH2 0xE24 JUMP JUMPDEST PUSH4 0xFFFFFFFF DUP2 PUSH8 0xFFFFFFFFFFFFFFFF AND GT PUSH2 0xDE3 JUMPI PUSH2 0xDBC PUSH1 0x1A PUSH1 0x5 DUP5 PUSH1 0xFF AND SWAP1 SHL OR DUP5 PUSH2 0xE4D SWAP1 SWAP2 SWAP1 PUSH4 0xFFFFFFFF AND JUMP JUMPDEST POP PUSH2 0xDDD DUP2 PUSH8 0xFFFFFFFFFFFFFFFF AND PUSH1 0x4 DUP6 PUSH2 0xE6D SWAP1 SWAP3 SWAP2 SWAP1 PUSH4 0xFFFFFFFF AND JUMP JUMPDEST POP PUSH2 0xE23 JUMP JUMPDEST PUSH2 0xE00 PUSH1 0x1B PUSH1 0x5 DUP5 PUSH1 0xFF AND SWAP1 SHL OR DUP5 PUSH2 0xE4D SWAP1 SWAP2 SWAP1 PUSH4 0xFFFFFFFF AND JUMP JUMPDEST POP PUSH2 0xE21 DUP2 PUSH8 0xFFFFFFFFFFFFFFFF AND PUSH1 0x8 DUP6 PUSH2 0xE6D SWAP1 SWAP3 SWAP2 SWAP1 PUSH4 0xFFFFFFFF AND JUMP JUMPDEST POP JUMPDEST JUMPDEST JUMPDEST JUMPDEST POP POP POP JUMP JUMPDEST PUSH2 0xE33 PUSH2 0x1196 JUMP JUMPDEST PUSH2 0xE45 DUP4 DUP5 PUSH1 0x0 ADD MLOAD MLOAD DUP5 DUP6 MLOAD PUSH2 0xE8F JUMP JUMPDEST SWAP1 POP SWAP3 SWAP2 POP POP JUMP JUMPDEST PUSH2 0xE55 PUSH2 0x1196 JUMP JUMPDEST PUSH2 0xE65 DUP4 DUP5 PUSH1 0x0 ADD MLOAD MLOAD DUP5 PUSH2 0xF7E JUMP JUMPDEST SWAP1 POP SWAP3 SWAP2 POP POP JUMP JUMPDEST PUSH2 0xE75 PUSH2 0x1196 JUMP JUMPDEST PUSH2 0xE86 DUP5 DUP6 PUSH1 0x0 ADD MLOAD MLOAD DUP6 DUP6 PUSH2 0xFD5 JUMP JUMPDEST SWAP1 POP SWAP4 SWAP3 POP POP POP JUMP JUMPDEST PUSH2 0xE97 PUSH2 0x1196 JUMP JUMPDEST DUP3 MLOAD DUP3 GT ISZERO PUSH2 0xEA5 JUMPI PUSH1 0x0 DUP1 REVERT JUMPDEST DUP5 PUSH1 0x20 ADD MLOAD DUP3 DUP6 PUSH2 0xEB6 SWAP2 SWAP1 PUSH2 0x18F2 JUMP JUMPDEST GT ISZERO PUSH2 0xEEB JUMPI PUSH2 0xEEA DUP6 PUSH1 0x2 PUSH2 0xEDB DUP9 PUSH1 0x20 ADD MLOAD DUP9 DUP8 PUSH2 0xED6 SWAP2 SWAP1 PUSH2 0x18F2 JUMP JUMPDEST PUSH2 0x1063 JUMP JUMPDEST PUSH2 0xEE5 SWAP2 SWAP1 PUSH2 0x1AEA JUMP JUMPDEST PUSH2 0x107F JUMP JUMPDEST JUMPDEST PUSH1 0x0 DUP1 DUP7 MLOAD DUP1 MLOAD DUP8 PUSH1 0x20 DUP4 ADD ADD SWAP4 POP DUP1 DUP9 DUP8 ADD GT ISZERO PUSH2 0xF0A JUMPI DUP8 DUP7 ADD DUP3 MSTORE JUMPDEST PUSH1 0x20 DUP8 ADD SWAP3 POP POP POP JUMPDEST PUSH1 0x20 DUP5 LT PUSH2 0xF51 JUMPI DUP1 MLOAD DUP3 MSTORE PUSH1 0x20 DUP3 PUSH2 0xF2C SWAP2 SWAP1 PUSH2 0x18F2 JUMP JUMPDEST SWAP2 POP PUSH1 0x20 DUP2 PUSH2 0xF3B SWAP2 SWAP1 PUSH2 0x18F2 JUMP JUMPDEST SWAP1 POP PUSH1 0x20 DUP5 PUSH2 0xF4A SWAP2 SWAP1 PUSH2 0x1B44 JUMP JUMPDEST SWAP4 POP PUSH2 0xF13 JUMP JUMPDEST PUSH1 0x0 PUSH1 0x1 DUP6 PUSH1 0x20 SUB PUSH2 0x100 EXP SUB SWAP1 POP DUP1 NOT DUP3 MLOAD AND DUP2 DUP5 MLOAD AND DUP2 DUP2 OR DUP6 MSTORE POP POP POP DUP7 SWAP3 POP POP POP SWAP5 SWAP4 POP POP POP POP JUMP JUMPDEST PUSH2 0xF86 PUSH2 0x1196 JUMP JUMPDEST DUP4 PUSH1 0x20 ADD MLOAD DUP4 LT PUSH2 0xFAC JUMPI PUSH2 0xFAB DUP5 PUSH1 0x2 DUP7 PUSH1 0x20 ADD MLOAD PUSH2 0xFA6 SWAP2 SWAP1 PUSH2 0x1AEA JUMP JUMPDEST PUSH2 0x107F JUMP JUMPDEST JUMPDEST DUP4 MLOAD DUP1 MLOAD PUSH1 0x20 DUP6 DUP4 ADD ADD DUP5 DUP2 MSTORE8 DUP2 DUP7 EQ ISZERO PUSH2 0xFC8 JUMPI PUSH1 0x1 DUP3 ADD DUP4 MSTORE JUMPDEST POP POP POP DUP4 SWAP1 POP SWAP4 SWAP3 POP POP POP JUMP JUMPDEST PUSH2 0xFDD PUSH2 0x1196 JUMP JUMPDEST DUP5 PUSH1 0x20 ADD MLOAD DUP5 DUP4 PUSH2 0xFEE SWAP2 SWAP1 PUSH2 0x18F2 JUMP JUMPDEST GT ISZERO PUSH2 0x1016 JUMPI PUSH2 0x1015 DUP6 PUSH1 0x2 DUP7 DUP6 PUSH2 0x1006 SWAP2 SWAP1 PUSH2 0x18F2 JUMP JUMPDEST PUSH2 0x1010 SWAP2 SWAP1 PUSH2 0x1AEA JUMP JUMPDEST PUSH2 0x107F JUMP JUMPDEST JUMPDEST PUSH1 0x0 PUSH1 0x1 DUP4 PUSH2 0x100 PUSH2 0x1028 SWAP2 SWAP1 PUSH2 0x19CC JUMP JUMPDEST PUSH2 0x1032 SWAP2 SWAP1 PUSH2 0x1B44 JUMP JUMPDEST SWAP1 POP DUP6 MLOAD DUP4 DUP7 DUP3 ADD ADD DUP6 DUP4 NOT DUP3 MLOAD AND OR DUP2 MSTORE DUP2 MLOAD DUP6 DUP9 ADD GT ISZERO PUSH2 0x1055 JUMPI DUP5 DUP8 ADD DUP3 MSTORE JUMPDEST POP POP DUP6 SWAP2 POP POP SWAP5 SWAP4 POP POP POP POP JUMP JUMPDEST PUSH1 0x0 DUP2 DUP4 GT ISZERO PUSH2 0x1075 JUMPI DUP3 SWAP1 POP PUSH2 0x1079 JUMP JUMPDEST DUP2 SWAP1 POP JUMPDEST SWAP3 SWAP2 POP POP JUMP JUMPDEST PUSH1 0x0 DUP3 PUSH1 0x0 ADD MLOAD SWAP1 POP PUSH2 0x1092 DUP4 DUP4 PUSH2 0xC3C JUMP JUMPDEST POP PUSH2 0x109D DUP4 DUP3 PUSH2 0xE2B JUMP JUMPDEST POP POP POP POP JUMP JUMPDEST DUP3 DUP1 SLOAD PUSH2 0x10AF SWAP1 PUSH2 0x1C86 JUMP JUMPDEST SWAP1 PUSH1 0x0 MSTORE PUSH1 0x20 PUSH1 0x0 KECCAK256 SWAP1 PUSH1 0x1F ADD PUSH1 0x20 SWAP1 DIV DUP2 ADD SWAP3 DUP3 PUSH2 0x10D1 JUMPI PUSH1 0x0 DUP6 SSTORE PUSH2 0x1118 JUMP JUMPDEST DUP3 PUSH1 0x1F LT PUSH2 0x10EA JUMPI DUP1 MLOAD PUSH1 0xFF NOT AND DUP4 DUP1 ADD OR DUP6 SSTORE PUSH2 0x1118 JUMP JUMPDEST DUP3 DUP1 ADD PUSH1 0x1 ADD DUP6 SSTORE DUP3 ISZERO PUSH2 0x1118 JUMPI SWAP2 DUP3 ADD JUMPDEST DUP3 DUP2 GT ISZERO PUSH2 0x1117 JUMPI DUP3 MLOAD DUP3 SSTORE SWAP2 PUSH1 0x20 ADD SWAP2 SWAP1 PUSH1 0x1 ADD SWAP1 PUSH2 0x10FC JUMP JUMPDEST JUMPDEST POP SWAP1 POP PUSH2 0x1125 SWAP2 SWAP1 PUSH2 0x11B0 JUMP JUMPDEST POP SWAP1 JUMP JUMPDEST PUSH1 0x40 MLOAD DUP1 PUSH1 0xA0 ADD PUSH1 0x40 MSTORE DUP1 PUSH1 0x0 DUP1 NOT AND DUP2 MSTORE PUSH1 0x20 ADD PUSH1 0x0 PUSH20 0xFFFFFFFFFFFFFFFFFFFFFFFFFFFFFFFFFFFFFFFF AND DUP2 MSTORE PUSH1 0x20 ADD PUSH1 0x0 PUSH28 0xFFFFFFFFFFFFFFFFFFFFFFFFFFFFFFFFFFFFFFFFFFFFFFFFFFFFFFFF NOT AND DUP2 MSTORE PUSH1 0x20 ADD PUSH1 0x0 DUP2 MSTORE PUSH1 0x20 ADD PUSH2 0x1190 PUSH2 0x1196 JUMP JUMPDEST DUP2 MSTORE POP SWAP1 JUMP JUMPDEST PUSH1 0x40 MLOAD DUP1 PUSH1 0x40 ADD PUSH1 0x40 MSTORE DUP1 PUSH1 0x60 DUP2 MSTORE PUSH1 0x20 ADD PUSH1 0x0 DUP2 MSTORE POP SWAP1 JUMP JUMPDEST JUMPDEST DUP1 DUP3 GT ISZERO PUSH2 0x11C9 JUMPI PUSH1 0x0 DUP2 PUSH1 0x0 SWAP1 SSTORE POP PUSH1 0x1 ADD PUSH2 0x11B1 JUMP JUMPDEST POP SWAP1 JUMP JUMPDEST PUSH1 0x0 PUSH2 0x11E0 PUSH2 0x11DB DUP5 PUSH2 0x188A JUMP JUMPDEST PUSH2 0x1859 JUMP JUMPDEST SWAP1 POP DUP3 DUP2 MSTORE PUSH1 0x20 DUP2 ADD DUP5 DUP5 DUP5 ADD GT ISZERO PUSH2 0x11F8 JUMPI PUSH1 0x0 DUP1 REVERT JUMPDEST PUSH2 0x1203 DUP5 DUP3 DUP6 PUSH2 0x1C1A JUMP JUMPDEST POP SWAP4 SWAP3 POP POP POP JUMP JUMPDEST PUSH1 0x0 DUP2 MLOAD SWAP1 POP PUSH2 0x121A DUP2 PUSH2 0x1E47 JUMP JUMPDEST SWAP3 SWAP2 POP POP JUMP JUMPDEST PUSH1 0x0 DUP2 CALLDATALOAD SWAP1 POP PUSH2 0x122F DUP2 PUSH2 0x1E5E JUMP JUMPDEST SWAP3 SWAP2 POP POP JUMP JUMPDEST PUSH1 0x0 DUP3 PUSH1 0x1F DUP4 ADD SLT PUSH2 0x1246 JUMPI PUSH1 0x0 DUP1 REVERT JUMPDEST DUP2 CALLDATALOAD PUSH2 0x1256 DUP5 DUP3 PUSH1 0x20 DUP7 ADD PUSH2 0x11CD JUMP JUMPDEST SWAP2 POP POP SWAP3 SWAP2 POP POP JUMP JUMPDEST PUSH1 0x0 DUP2 CALLDATALOAD SWAP1 POP PUSH2 0x126E DUP2 PUSH2 0x1E75 JUMP JUMPDEST SWAP3 SWAP2 POP POP JUMP JUMPDEST PUSH1 0x0 PUSH1 0x20 DUP3 DUP5 SUB SLT ISZERO PUSH2 0x1286 JUMPI PUSH1 0x0 DUP1 REVERT JUMPDEST PUSH1 0x0 PUSH2 0x1294 DUP5 DUP3 DUP6 ADD PUSH2 0x120B JUMP JUMPDEST SWAP2 POP POP SWAP3 SWAP2 POP POP JUMP JUMPDEST PUSH1 0x0 PUSH1 0x20 DUP3 DUP5 SUB SLT ISZERO PUSH2 0x12AF JUMPI PUSH1 0x0 DUP1 REVERT JUMPDEST PUSH1 0x0 PUSH2 0x12BD DUP5 DUP3 DUP6 ADD PUSH2 0x1220 JUMP JUMPDEST SWAP2 POP POP SWAP3 SWAP2 POP POP JUMP JUMPDEST PUSH1 0x0 DUP1 PUSH1 0x40 DUP4 DUP6 SUB SLT ISZERO PUSH2 0x12D9 JUMPI PUSH1 0x0 DUP1 REVERT JUMPDEST PUSH1 0x0 PUSH2 0x12E7 DUP6 DUP3 DUP7 ADD PUSH2 0x1220 JUMP JUMPDEST SWAP3 POP POP PUSH1 0x20 PUSH2 0x12F8 DUP6 DUP3 DUP7 ADD PUSH2 0x125F JUMP JUMPDEST SWAP2 POP POP SWAP3 POP SWAP3 SWAP1 POP JUMP JUMPDEST PUSH1 0x0 DUP1 PUSH1 0x0 PUSH1 0x60 DUP5 DUP7 SUB SLT ISZERO PUSH2 0x1317 JUMPI PUSH1 0x0 DUP1 REVERT JUMPDEST PUSH1 0x0 DUP5 ADD CALLDATALOAD PUSH8 0xFFFFFFFFFFFFFFFF DUP2 GT ISZERO PUSH2 0x1331 JUMPI PUSH1 0x0 DUP1 REVERT JUMPDEST PUSH2 0x133D DUP7 DUP3 DUP8 ADD PUSH2 0x1235 JUMP JUMPDEST SWAP4 POP POP PUSH1 0x20 PUSH2 0x134E DUP7 DUP3 DUP8 ADD PUSH2 0x125F JUMP JUMPDEST SWAP3 POP POP PUSH1 0x40 PUSH2 0x135F DUP7 DUP3 DUP8 ADD PUSH2 0x125F JUMP JUMPDEST SWAP2 POP POP SWAP3 POP SWAP3 POP SWAP3 JUMP JUMPDEST PUSH1 0x0 PUSH1 0x20 DUP3 DUP5 SUB SLT ISZERO PUSH2 0x137B JUMPI PUSH1 0x0 DUP1 REVERT JUMPDEST PUSH1 0x0 PUSH2 0x1389 DUP5 DUP3 DUP6 ADD PUSH2 0x125F JUMP JUMPDEST SWAP2 POP POP SWAP3 SWAP2 POP POP JUMP JUMPDEST PUSH1 0x0 DUP1 PUSH1 0x40 DUP4 DUP6 SUB SLT ISZERO PUSH2 0x13A5 JUMPI PUSH1 0x0 DUP1 REVERT JUMPDEST PUSH1 0x0 PUSH2 0x13B3 DUP6 DUP3 DUP7 ADD PUSH2 0x125F JUMP JUMPDEST SWAP3 POP POP PUSH1 0x20 DUP4 ADD CALLDATALOAD PUSH8 0xFFFFFFFFFFFFFFFF DUP2 GT ISZERO PUSH2 0x13D0 JUMPI PUSH1 0x0 DUP1 REVERT JUMPDEST PUSH2 0x13DC DUP6 DUP3 DUP7 ADD PUSH2 0x1235 JUMP JUMPDEST SWAP2 POP POP SWAP3 POP SWAP3 SWAP1 POP JUMP JUMPDEST PUSH2 0x13EF DUP2 PUSH2 0x1B78 JUMP JUMPDEST DUP3 MSTORE POP POP JUMP JUMPDEST PUSH2 0x13FE DUP2 PUSH2 0x1B96 JUMP JUMPDEST DUP3 MSTORE POP POP JUMP JUMPDEST PUSH2 0x140D DUP2 PUSH2 0x1BA0 JUMP JUMPDEST DUP3 MSTORE POP POP JUMP JUMPDEST PUSH1 0x0 PUSH2 0x141E DUP3 PUSH2 0x18BA JUMP JUMPDEST PUSH2 0x1428 DUP2 DUP6 PUSH2 0x18D0 JUMP JUMPDEST SWAP4 POP PUSH2 0x1438 DUP2 DUP6 PUSH1 0x20 DUP7 ADD PUSH2 0x1C29 JUMP JUMPDEST PUSH2 0x1441 DUP2 PUSH2 0x1E1C JUMP JUMPDEST DUP5 ADD SWAP2 POP POP SWAP3 SWAP2 POP POP JUMP JUMPDEST PUSH2 0x145D PUSH2 0x1458 DUP3 PUSH2 0x1BF6 JUMP JUMPDEST PUSH2 0x1D01 JUMP JUMPDEST DUP3 MSTORE POP POP JUMP JUMPDEST PUSH1 0x0 PUSH2 0x146E DUP3 PUSH2 0x18C5 JUMP JUMPDEST PUSH2 0x1478 DUP2 DUP6 PUSH2 0x18E1 JUMP JUMPDEST SWAP4 POP PUSH2 0x1488 DUP2 DUP6 PUSH1 0x20 DUP7 ADD PUSH2 0x1C29 JUMP JUMPDEST PUSH2 0x1491 DUP2 PUSH2 0x1E1C JUMP JUMPDEST DUP5 ADD SWAP2 POP POP SWAP3 SWAP2 POP POP JUMP JUMPDEST PUSH1 0x0 PUSH2 0x14A9 PUSH1 0x14 DUP4 PUSH2 0x18E1 JUMP JUMPDEST SWAP2 POP PUSH32 0x426174636820646F6573206E6F74206578697374000000000000000000000000 PUSH1 0x0 DUP4 ADD MSTORE PUSH1 0x20 DUP3 ADD SWAP1 POP SWAP2 SWAP1 POP JUMP JUMPDEST PUSH1 0x0 PUSH2 0x14E9 PUSH1 0x23 DUP4 PUSH2 0x18E1 JUMP JUMPDEST SWAP2 POP PUSH32 0x756E61626C6520746F207472616E73666572416E6443616C6C20746F206F7261 PUSH1 0x0 DUP4 ADD MSTORE PUSH32 0x636C650000000000000000000000000000000000000000000000000000000000 PUSH1 0x20 DUP4 ADD MSTORE PUSH1 0x40 DUP3 ADD SWAP1 POP SWAP2 SWAP1 POP JUMP JUMPDEST PUSH1 0x0 PUSH2 0x154F PUSH1 0x28 DUP4 PUSH2 0x18E1 JUMP JUMPDEST SWAP2 POP PUSH32 0x536F75726365206D75737420626520746865206F7261636C65206F6620746865 PUSH1 0x0 DUP4 ADD MSTORE PUSH32 0x2072657175657374000000000000000000000000000000000000000000000000 PUSH1 0x20 DUP4 ADD MSTORE PUSH1 0x40 DUP3 ADD SWAP1 POP SWAP2 SWAP1 POP JUMP JUMPDEST PUSH2 0x15B1 DUP2 PUSH2 0x1BEC JUMP JUMPDEST DUP3 MSTORE POP POP JUMP JUMPDEST PUSH2 0x15C8 PUSH2 0x15C3 DUP3 PUSH2 0x1BEC JUMP JUMPDEST PUSH2 0x1D25 JUMP JUMPDEST DUP3 MSTORE POP POP JUMP JUMPDEST PUSH1 0x0 PUSH2 0x15DA DUP3 DUP6 PUSH2 0x144C JUMP JUMPDEST PUSH1 0x14 DUP3 ADD SWAP2 POP PUSH2 0x15EA DUP3 DUP5 PUSH2 0x15B7 JUMP JUMPDEST PUSH1 0x20 DUP3 ADD SWAP2 POP DUP2 SWAP1 POP SWAP4 SWAP3 POP POP POP JUMP JUMPDEST PUSH1 0x0 PUSH2 0x100 DUP3 ADD SWAP1 POP PUSH2 0x1610 PUSH1 0x0 DUP4 ADD DUP12 PUSH2 0x13E6 JUMP JUMPDEST PUSH2 0x161D PUSH1 0x20 DUP4 ADD DUP11 PUSH2 0x15A8 JUMP JUMPDEST PUSH2 0x162A PUSH1 0x40 DUP4 ADD DUP10 PUSH2 0x13F5 JUMP JUMPDEST PUSH2 0x1637 PUSH1 0x60 DUP4 ADD DUP9 PUSH2 0x13E6 JUMP JUMPDEST PUSH2 0x1644 PUSH1 0x80 DUP4 ADD DUP8 PUSH2 0x1404 JUMP JUMPDEST PUSH2 0x1651 PUSH1 0xA0 DUP4 ADD DUP7 PUSH2 0x15A8 JUMP JUMPDEST PUSH2 0x165E PUSH1 0xC0 DUP4 ADD DUP6 PUSH2 0x15A8 JUMP JUMPDEST DUP2 DUP2 SUB PUSH1 0xE0 DUP4 ADD MSTORE PUSH2 0x1670 DUP2 DUP5 PUSH2 0x1413 JUMP JUMPDEST SWAP1 POP SWAP10 SWAP9 POP POP POP POP POP POP POP POP POP JUMP JUMPDEST PUSH1 0x0 PUSH1 0x60 DUP3 ADD SWAP1 POP PUSH2 0x1694 PUSH1 0x0 DUP4 ADD DUP7 PUSH2 0x13E6 JUMP JUMPDEST PUSH2 0x16A1 PUSH1 0x20 DUP4 ADD DUP6 PUSH2 0x15A8 JUMP JUMPDEST DUP2 DUP2 SUB PUSH1 0x40 DUP4 ADD MSTORE PUSH2 0x16B3 DUP2 DUP5 PUSH2 0x1413 JUMP JUMPDEST SWAP1 POP SWAP5 SWAP4 POP POP POP POP JUMP JUMPDEST PUSH1 0x0 PUSH1 0x20 DUP3 ADD SWAP1 POP PUSH2 0x16D2 PUSH1 0x0 DUP4 ADD DUP5 PUSH2 0x13F5 JUMP JUMPDEST SWAP3 SWAP2 POP POP JUMP JUMPDEST PUSH1 0x0 PUSH1 0x20 DUP3 ADD SWAP1 POP DUP2 DUP2 SUB PUSH1 0x0 DUP4 ADD MSTORE PUSH2 0x16F1 DUP2 PUSH2 0x149C JUMP JUMPDEST SWAP1 POP SWAP2 SWAP1 POP JUMP JUMPDEST PUSH1 0x0 PUSH1 0x20 DUP3 ADD SWAP1 POP DUP2 DUP2 SUB PUSH1 0x0 DUP4 ADD MSTORE PUSH2 0x1711 DUP2 PUSH2 0x14DC JUMP JUMPDEST SWAP1 POP SWAP2 SWAP1 POP JUMP JUMPDEST PUSH1 0x0 PUSH1 0x20 DUP3 ADD SWAP1 POP DUP2 DUP2 SUB PUSH1 0x0 DUP4 ADD MSTORE PUSH2 0x1731 DUP2 PUSH2 0x1542 JUMP JUMPDEST SWAP1 POP SWAP2 SWAP1 POP JUMP JUMPDEST PUSH1 0x0 PUSH1 0x20 DUP3 ADD SWAP1 POP PUSH2 0x174D PUSH1 0x0 DUP4 ADD DUP5 PUSH2 0x15A8 JUMP JUMPDEST SWAP3 SWAP2 POP POP JUMP JUMPDEST PUSH1 0x0 PUSH1 0x40 DUP3 ADD SWAP1 POP PUSH2 0x1768 PUSH1 0x0 DUP4 ADD DUP6 PUSH2 0x15A8 JUMP JUMPDEST DUP2 DUP2 SUB PUSH1 0x20 DUP4 ADD MSTORE PUSH2 0x177A DUP2 DUP5 PUSH2 0x1463 JUMP JUMPDEST SWAP1 POP SWAP4 SWAP3 POP POP POP JUMP JUMPDEST PUSH1 0x0 PUSH1 0x80 DUP3 ADD SWAP1 POP PUSH2 0x1798 PUSH1 0x0 DUP4 ADD DUP8 PUSH2 0x15A8 JUMP JUMPDEST DUP2 DUP2 SUB PUSH1 0x20 DUP4 ADD MSTORE PUSH2 0x17AA DUP2 DUP7 PUSH2 0x1463 JUMP JUMPDEST SWAP1 POP PUSH2 0x17B9 PUSH1 0x40 DUP4 ADD DUP6 PUSH2 0x15A8 JUMP JUMPDEST PUSH2 0x17C6 PUSH1 0x60 DUP4 ADD DUP5 PUSH2 0x15A8 JUMP JUMPDEST SWAP6 SWAP5 POP POP POP POP POP JUMP JUMPDEST PUSH1 0x0 PUSH1 0xA0 DUP3 ADD SWAP1 POP PUSH2 0x17E4 PUSH1 0x0 DUP4 ADD DUP9 PUSH2 0x15A8 JUMP JUMPDEST DUP2 DUP2 SUB PUSH1 0x20 DUP4 ADD MSTORE PUSH2 0x17F6 DUP2 DUP8 PUSH2 0x1463 JUMP JUMPDEST SWAP1 POP PUSH2 0x1805 PUSH1 0x40 DUP4 ADD DUP7 PUSH2 0x15A8 JUMP JUMPDEST PUSH2 0x1812 PUSH1 0x60 DUP4 ADD DUP6 PUSH2 0x15A8 JUMP JUMPDEST DUP2 DUP2 SUB PUSH1 0x80 DUP4 ADD MSTORE PUSH2 0x1824 DUP2 DUP5 PUSH2 0x1463 JUMP JUMPDEST SWAP1 POP SWAP7 SWAP6 POP POP POP POP POP POP JUMP JUMPDEST PUSH1 0x0 PUSH1 0x40 DUP3 ADD SWAP1 POP PUSH2 0x1845 PUSH1 0x0 DUP4 ADD DUP6 PUSH2 0x15A8 JUMP JUMPDEST PUSH2 0x1852 PUSH1 0x20 DUP4 ADD DUP5 PUSH2 0x15A8 JUMP JUMPDEST SWAP4 SWAP3 POP POP POP JUMP JUMPDEST PUSH1 0x0 PUSH1 0x40 MLOAD SWAP1 POP DUP2 DUP2 ADD DUP2 DUP2 LT PUSH8 0xFFFFFFFFFFFFFFFF DUP3 GT OR ISZERO PUSH2 0x1880 JUMPI PUSH2 0x187F PUSH2 0x1DED JUMP JUMPDEST JUMPDEST DUP1 PUSH1 0x40 MSTORE POP SWAP2 SWAP1 POP JUMP JUMPDEST PUSH1 0x0 PUSH8 0xFFFFFFFFFFFFFFFF DUP3 GT ISZERO PUSH2 0x18A5 JUMPI PUSH2 0x18A4 PUSH2 0x1DED JUMP JUMPDEST JUMPDEST PUSH1 0x1F NOT PUSH1 0x1F DUP4 ADD AND SWAP1 POP PUSH1 0x20 DUP2 ADD SWAP1 POP SWAP2 SWAP1 POP JUMP JUMPDEST PUSH1 0x0 DUP2 MLOAD SWAP1 POP SWAP2 SWAP1 POP JUMP JUMPDEST PUSH1 0x0 DUP2 MLOAD SWAP1 POP SWAP2 SWAP1 POP JUMP JUMPDEST PUSH1 0x0 DUP3 DUP3 MSTORE PUSH1 0x20 DUP3 ADD SWAP1 POP SWAP3 SWAP2 POP POP JUMP JUMPDEST PUSH1 0x0 DUP3 DUP3 MSTORE PUSH1 0x20 DUP3 ADD SWAP1 POP SWAP3 SWAP2 POP POP JUMP JUMPDEST PUSH1 0x0 PUSH2 0x18FD DUP3 PUSH2 0x1BEC JUMP JUMPDEST SWAP2 POP PUSH2 0x1908 DUP4 PUSH2 0x1BEC JUMP JUMPDEST SWAP3 POP DUP3 PUSH32 0xFFFFFFFFFFFFFFFFFFFFFFFFFFFFFFFFFFFFFFFFFFFFFFFFFFFFFFFFFFFFFFFF SUB DUP3 GT ISZERO PUSH2 0x193D JUMPI PUSH2 0x193C PUSH2 0x1D60 JUMP JUMPDEST JUMPDEST DUP3 DUP3 ADD SWAP1 POP SWAP3 SWAP2 POP POP JUMP JUMPDEST PUSH1 0x0 PUSH2 0x1953 DUP3 PUSH2 0x1BEC JUMP JUMPDEST SWAP2 POP PUSH2 0x195E DUP4 PUSH2 0x1BEC JUMP JUMPDEST SWAP3 POP DUP3 PUSH2 0x196E JUMPI PUSH2 0x196D PUSH2 0x1D8F JUMP JUMPDEST JUMPDEST DUP3 DUP3 DIV SWAP1 POP SWAP3 SWAP2 POP POP JUMP JUMPDEST PUSH1 0x0 DUP1 DUP3 SWAP2 POP DUP4 SWAP1 POP JUMPDEST PUSH1 0x1 DUP6 GT ISZERO PUSH2 0x19C3 JUMPI DUP1 DUP7 DIV DUP2 GT ISZERO PUSH2 0x199F JUMPI PUSH2 0x199E PUSH2 0x1D60 JUMP JUMPDEST JUMPDEST PUSH1 0x1 DUP6 AND ISZERO PUSH2 0x19AE JUMPI DUP1 DUP3 MUL SWAP2 POP JUMPDEST DUP1 DUP2 MUL SWAP1 POP PUSH2 0x19BC DUP6 PUSH2 0x1E3A JUMP JUMPDEST SWAP5 POP PUSH2 0x1983 JUMP JUMPDEST SWAP5 POP SWAP5 SWAP3 POP POP POP JUMP JUMPDEST PUSH1 0x0 PUSH2 0x19D7 DUP3 PUSH2 0x1BEC JUMP JUMPDEST SWAP2 POP PUSH2 0x19E2 DUP4 PUSH2 0x1BEC JUMP JUMPDEST SWAP3 POP PUSH2 0x1A0F PUSH32 0xFFFFFFFFFFFFFFFFFFFFFFFFFFFFFFFFFFFFFFFFFFFFFFFFFFFFFFFFFFFFFFFF DUP5 DUP5 PUSH2 0x1A17 JUMP JUMPDEST SWAP1 POP SWAP3 SWAP2 POP POP JUMP JUMPDEST PUSH1 0x0 DUP3 PUSH2 0x1A27 JUMPI PUSH1 0x1 SWAP1 POP PUSH2 0x1AE3 JUMP JUMPDEST DUP2 PUSH2 0x1A35 JUMPI PUSH1 0x0 SWAP1 POP PUSH2 0x1AE3 JUMP JUMPDEST DUP2 PUSH1 0x1 DUP2 EQ PUSH2 0x1A4B JUMPI PUSH1 0x2 DUP2 EQ PUSH2 0x1A55 JUMPI PUSH2 0x1A84 JUMP JUMPDEST PUSH1 0x1 SWAP2 POP POP PUSH2 0x1AE3 JUMP JUMPDEST PUSH1 0xFF DUP5 GT ISZERO PUSH2 0x1A67 JUMPI PUSH2 0x1A66 PUSH2 0x1D60 JUMP JUMPDEST JUMPDEST DUP4 PUSH1 0x2 EXP SWAP2 POP DUP5 DUP3 GT ISZERO PUSH2 0x1A7E JUMPI PUSH2 0x1A7D PUSH2 0x1D60 JUMP JUMPDEST JUMPDEST POP PUSH2 0x1AE3 JUMP JUMPDEST POP PUSH1 0x20 DUP4 LT PUSH2 0x133 DUP4 LT AND PUSH1 0x4E DUP5 LT PUSH1 0xB DUP5 LT AND OR ISZERO PUSH2 0x1AB9 JUMPI DUP3 DUP3 EXP SWAP1 POP DUP4 DUP2 GT ISZERO PUSH2 0x1AB4 JUMPI PUSH2 0x1AB3 PUSH2 0x1D60 JUMP JUMPDEST JUMPDEST PUSH2 0x1AE3 JUMP JUMPDEST PUSH2 0x1AC6 DUP5 DUP5 DUP5 PUSH1 0x1 PUSH2 0x1979 JUMP JUMPDEST SWAP3 POP SWAP1 POP DUP2 DUP5 DIV DUP2 GT ISZERO PUSH2 0x1ADD JUMPI PUSH2 0x1ADC PUSH2 0x1D60 JUMP JUMPDEST JUMPDEST DUP2 DUP2 MUL SWAP1 POP JUMPDEST SWAP4 SWAP3 POP POP POP JUMP JUMPDEST PUSH1 0x0 PUSH2 0x1AF5 DUP3 PUSH2 0x1BEC JUMP JUMPDEST SWAP2 POP PUSH2 0x1B00 DUP4 PUSH2 0x1BEC JUMP JUMPDEST SWAP3 POP DUP2 PUSH32 0xFFFFFFFFFFFFFFFFFFFFFFFFFFFFFFFFFFFFFFFFFFFFFFFFFFFFFFFFFFFFFFFF DIV DUP4 GT DUP3 ISZERO ISZERO AND ISZERO PUSH2 0x1B39 JUMPI PUSH2 0x1B38 PUSH2 0x1D60 JUMP JUMPDEST JUMPDEST DUP3 DUP3 MUL SWAP1 POP SWAP3 SWAP2 POP POP JUMP JUMPDEST PUSH1 0x0 PUSH2 0x1B4F DUP3 PUSH2 0x1BEC JUMP JUMPDEST SWAP2 POP PUSH2 0x1B5A DUP4 PUSH2 0x1BEC JUMP JUMPDEST SWAP3 POP DUP3 DUP3 LT ISZERO PUSH2 0x1B6D JUMPI PUSH2 0x1B6C PUSH2 0x1D60 JUMP JUMPDEST JUMPDEST DUP3 DUP3 SUB SWAP1 POP SWAP3 SWAP2 POP POP JUMP JUMPDEST PUSH1 0x0 PUSH2 0x1B83 DUP3 PUSH2 0x1BCC JUMP JUMPDEST SWAP1 POP SWAP2 SWAP1 POP JUMP JUMPDEST PUSH1 0x0 DUP2 ISZERO ISZERO SWAP1 POP SWAP2 SWAP1 POP JUMP JUMPDEST PUSH1 0x0 DUP2 SWAP1 POP SWAP2 SWAP1 POP JUMP JUMPDEST PUSH1 0x0 PUSH32 0xFFFFFFFF00000000000000000000000000000000000000000000000000000000 DUP3 AND SWAP1 POP SWAP2 SWAP1 POP JUMP JUMPDEST PUSH1 0x0 PUSH20 0xFFFFFFFFFFFFFFFFFFFFFFFFFFFFFFFFFFFFFFFF DUP3 AND SWAP1 POP SWAP2 SWAP1 POP JUMP JUMPDEST PUSH1 0x0 DUP2 SWAP1 POP SWAP2 SWAP1 POP JUMP JUMPDEST PUSH1 0x0 PUSH2 0x1C01 DUP3 PUSH2 0x1C08 JUMP JUMPDEST SWAP1 POP SWAP2 SWAP1 POP JUMP JUMPDEST PUSH1 0x0 PUSH2 0x1C13 DUP3 PUSH2 0x1BCC JUMP JUMPDEST SWAP1 POP SWAP2 SWAP1 POP JUMP JUMPDEST DUP3 DUP2 DUP4 CALLDATACOPY PUSH1 0x0 DUP4 DUP4 ADD MSTORE POP POP POP JUMP JUMPDEST PUSH1 0x0 JUMPDEST DUP4 DUP2 LT ISZERO PUSH2 0x1C47 JUMPI DUP1 DUP3 ADD MLOAD DUP2 DUP5 ADD MSTORE PUSH1 0x20 DUP2 ADD SWAP1 POP PUSH2 0x1C2C JUMP JUMPDEST DUP4 DUP2 GT ISZERO PUSH2 0x1C56 JUMPI PUSH1 0x0 DUP5 DUP5 ADD MSTORE JUMPDEST POP POP POP POP JUMP JUMPDEST PUSH1 0x0 PUSH2 0x1C67 DUP3 PUSH2 0x1BEC JUMP JUMPDEST SWAP2 POP PUSH1 0x0 DUP3 EQ ISZERO PUSH2 0x1C7B JUMPI PUSH2 0x1C7A PUSH2 0x1D60 JUMP JUMPDEST JUMPDEST PUSH1 0x1 DUP3 SUB SWAP1 POP SWAP2 SWAP1 POP JUMP JUMPDEST PUSH1 0x0 PUSH1 0x2 DUP3 DIV SWAP1 POP PUSH1 0x1 DUP3 AND DUP1 PUSH2 0x1C9E JUMPI PUSH1 0x7F DUP3 AND SWAP2 POP JUMPDEST PUSH1 0x20 DUP3 LT DUP2 EQ ISZERO PUSH2 0x1CB2 JUMPI PUSH2 0x1CB1 PUSH2 0x1DBE JUMP JUMPDEST JUMPDEST POP SWAP2 SWAP1 POP JUMP JUMPDEST PUSH1 0x0 PUSH2 0x1CC3 DUP3 PUSH2 0x1BEC JUMP JUMPDEST SWAP2 POP PUSH32 0xFFFFFFFFFFFFFFFFFFFFFFFFFFFFFFFFFFFFFFFFFFFFFFFFFFFFFFFFFFFFFFFF DUP3 EQ ISZERO PUSH2 0x1CF6 JUMPI PUSH2 0x1CF5 PUSH2 0x1D60 JUMP JUMPDEST JUMPDEST PUSH1 0x1 DUP3 ADD SWAP1 POP SWAP2 SWAP1 POP JUMP JUMPDEST PUSH1 0x0 PUSH2 0x1D0C DUP3 PUSH2 0x1D13 JUMP JUMPDEST SWAP1 POP SWAP2 SWAP1 POP JUMP JUMPDEST PUSH1 0x0 PUSH2 0x1D1E DUP3 PUSH2 0x1E2D JUMP JUMPDEST SWAP1 POP SWAP2 SWAP1 POP JUMP JUMPDEST PUSH1 0x0 DUP2 SWAP1 POP SWAP2 SWAP1 POP JUMP JUMPDEST PUSH1 0x0 PUSH2 0x1D3A DUP3 PUSH2 0x1BEC JUMP JUMPDEST SWAP2 POP PUSH2 0x1D45 DUP4 PUSH2 0x1BEC JUMP JUMPDEST SWAP3 POP DUP3 PUSH2 0x1D55 JUMPI PUSH2 0x1D54 PUSH2 0x1D8F JUMP JUMPDEST JUMPDEST DUP3 DUP3 MOD SWAP1 POP SWAP3 SWAP2 POP POP JUMP JUMPDEST PUSH32 0x4E487B7100000000000000000000000000000000000000000000000000000000 PUSH1 0x0 MSTORE PUSH1 0x11 PUSH1 0x4 MSTORE PUSH1 0x24 PUSH1 0x0 REVERT JUMPDEST PUSH32 0x4E487B7100000000000000000000000000000000000000000000000000000000 PUSH1 0x0 MSTORE PUSH1 0x12 PUSH1 0x4 MSTORE PUSH1 0x24 PUSH1 0x0 REVERT JUMPDEST PUSH32 0x4E487B7100000000000000000000000000000000000000000000000000000000 PUSH1 0x0 MSTORE PUSH1 0x22 PUSH1 0x4 MSTORE PUSH1 0x24 PUSH1 0x0 REVERT JUMPDEST PUSH32 0x4E487B7100000000000000000000000000000000000000000000000000000000 PUSH1 0x0 MSTORE PUSH1 0x41 PUSH1 0x4 MSTORE PUSH1 0x24 PUSH1 0x0 REVERT JUMPDEST PUSH1 0x0 PUSH1 0x1F NOT PUSH1 0x1F DUP4 ADD AND SWAP1 POP SWAP2 SWAP1 POP JUMP JUMPDEST PUSH1 0x0 DUP2 PUSH1 0x60 SHL SWAP1 POP SWAP2 SWAP1 POP JUMP JUMPDEST PUSH1 0x0 DUP2 PUSH1 0x1 SHR SWAP1 POP SWAP2 SWAP1 POP JUMP JUMPDEST PUSH2 0x1E50 DUP2 PUSH2 0x1B8A JUMP JUMPDEST DUP2 EQ PUSH2 0x1E5B JUMPI PUSH1 0x0 DUP1 REVERT JUMPDEST POP JUMP JUMPDEST PUSH2 0x1E67 DUP2 PUSH2 0x1B96 JUMP JUMPDEST DUP2 EQ PUSH2 0x1E72 JUMPI PUSH1 0x0 DUP1 REVERT JUMPDEST POP JUMP JUMPDEST PUSH2 0x1E7E DUP2 PUSH2 0x1BEC JUMP JUMPDEST DUP2 EQ PUSH2 0x1E89 JUMPI PUSH1 0x0 DUP1 REVERT JUMPDEST POP JUMP INVALID LOG2 PUSH5 0x6970667358 0x22 SLT KECCAK256 LOG4 SHR 0xB9 0xC9 SWAP12 0xB7 0xC5 PUSH30 0x3DC65192DBB6C5906465C123FF62B97D1ED82028210CD77D64736F6C6343 STOP ADDMOD STOP STOP CALLER "},"methodIdentifiers":{"batches(uint256)":"b32c4d8d","chainlinkRequestIdToBatchId(bytes32)":"39e25bad","createBatch(string,uint256,uint256)":"e7f25c6e","fulfill(bytes32,uint256)":"4357855e","nextBatchId()":"8462a7f8","requestTemperatureData(uint256)":"496781d0","updateBatch(uint256,string)":"8207fd85"}}}}}